{
  "contractName": "Dex",
  "abi": [
    {
      "anonymous": false,
      "inputs": [
        {
          "indexed": true,
          "internalType": "address",
          "name": "previousOwner",
          "type": "address"
        },
        {
          "indexed": true,
          "internalType": "address",
          "name": "newOwner",
          "type": "address"
        }
      ],
      "name": "OwnershipTransferred",
      "type": "event"
    },
    {
      "inputs": [
        {
          "internalType": "bytes32",
          "name": "_ticker",
          "type": "bytes32"
        },
        {
          "internalType": "address",
          "name": "_tickerAddress",
          "type": "address"
        }
      ],
      "name": "addToken",
      "outputs": [],
      "stateMutability": "nonpayable",
      "type": "function"
    },
    {
      "inputs": [
        {
          "internalType": "address",
          "name": "",
          "type": "address"
        },
        {
          "internalType": "bytes32",
          "name": "",
          "type": "bytes32"
        }
      ],
      "name": "balances",
      "outputs": [
        {
          "internalType": "uint256",
          "name": "",
          "type": "uint256"
        }
      ],
      "stateMutability": "view",
      "type": "function",
      "constant": true
    },
    {
      "inputs": [
        {
          "internalType": "uint256",
          "name": "_amount",
          "type": "uint256"
        },
        {
          "internalType": "bytes32",
          "name": "_ticker",
          "type": "bytes32"
        }
      ],
      "name": "deposit",
      "outputs": [],
      "stateMutability": "nonpayable",
      "type": "function"
    },
    {
      "inputs": [],
      "name": "depositETH",
      "outputs": [],
      "stateMutability": "payable",
      "type": "function",
      "payable": true
    },
    {
      "inputs": [
        {
          "internalType": "uint256",
          "name": "",
          "type": "uint256"
        }
      ],
      "name": "marketOrders",
      "outputs": [
        {
          "internalType": "address",
          "name": "trader",
          "type": "address"
        },
        {
          "internalType": "bytes32",
          "name": "ticker",
          "type": "bytes32"
        },
        {
          "internalType": "uint256",
          "name": "amount",
          "type": "uint256"
        }
      ],
      "stateMutability": "view",
      "type": "function",
      "constant": true
    },
    {
      "inputs": [
        {
          "internalType": "bytes32",
          "name": "",
          "type": "bytes32"
        },
        {
          "internalType": "uint256",
          "name": "",
          "type": "uint256"
        },
        {
          "internalType": "uint256",
          "name": "",
          "type": "uint256"
        }
      ],
      "name": "orderBook",
      "outputs": [
        {
          "internalType": "uint256",
          "name": "id",
          "type": "uint256"
        },
        {
          "internalType": "address",
          "name": "trader",
          "type": "address"
        },
        {
          "internalType": "enum Dex.Side",
          "name": "side",
          "type": "uint8"
        },
        {
          "internalType": "bytes32",
          "name": "ticker",
          "type": "bytes32"
        },
        {
          "internalType": "uint256",
          "name": "amount",
          "type": "uint256"
        },
        {
          "internalType": "uint256",
          "name": "price",
          "type": "uint256"
        }
      ],
      "stateMutability": "view",
      "type": "function",
      "constant": true
    },
    {
      "inputs": [],
      "name": "owner",
      "outputs": [
        {
          "internalType": "address",
          "name": "",
          "type": "address"
        }
      ],
      "stateMutability": "view",
      "type": "function",
      "constant": true
    },
    {
      "inputs": [],
      "name": "renounceOwnership",
      "outputs": [],
      "stateMutability": "nonpayable",
      "type": "function"
    },
    {
      "inputs": [
        {
          "internalType": "uint256",
          "name": "",
          "type": "uint256"
        }
      ],
      "name": "tickerList",
      "outputs": [
        {
          "internalType": "bytes32",
          "name": "",
          "type": "bytes32"
        }
      ],
      "stateMutability": "view",
      "type": "function",
      "constant": true
    },
    {
      "inputs": [
        {
          "internalType": "bytes32",
          "name": "",
          "type": "bytes32"
        }
      ],
      "name": "tokenMapping",
      "outputs": [
        {
          "internalType": "bytes32",
          "name": "ticker",
          "type": "bytes32"
        },
        {
          "internalType": "address",
          "name": "tokenAddress",
          "type": "address"
        }
      ],
      "stateMutability": "view",
      "type": "function",
      "constant": true
    },
    {
      "inputs": [
        {
          "internalType": "address",
          "name": "newOwner",
          "type": "address"
        }
      ],
      "name": "transferOwnership",
      "outputs": [],
      "stateMutability": "nonpayable",
      "type": "function"
    },
    {
      "inputs": [
        {
          "internalType": "uint256",
          "name": "_amount",
          "type": "uint256"
        },
        {
          "internalType": "bytes32",
          "name": "_ticker",
          "type": "bytes32"
        }
      ],
      "name": "withdraw",
      "outputs": [],
      "stateMutability": "nonpayable",
      "type": "function"
    },
    {
      "inputs": [
        {
          "internalType": "bytes32",
          "name": "_ticker",
          "type": "bytes32"
        },
        {
          "internalType": "enum Dex.Side",
          "name": "side",
          "type": "uint8"
        }
      ],
      "name": "getOrderBook",
      "outputs": [
        {
          "components": [
            {
              "internalType": "uint256",
              "name": "id",
              "type": "uint256"
            },
            {
              "internalType": "address",
              "name": "trader",
              "type": "address"
            },
            {
              "internalType": "enum Dex.Side",
              "name": "side",
              "type": "uint8"
            },
            {
              "internalType": "bytes32",
              "name": "ticker",
              "type": "bytes32"
            },
            {
              "internalType": "uint256",
              "name": "amount",
              "type": "uint256"
            },
            {
              "internalType": "uint256",
              "name": "price",
              "type": "uint256"
            }
          ],
          "internalType": "struct Dex.Order[]",
          "name": "",
          "type": "tuple[]"
        }
      ],
      "stateMutability": "view",
      "type": "function",
      "constant": true
    },
    {
      "inputs": [],
      "name": "getPendingBuyMktOrders",
      "outputs": [
        {
          "components": [
            {
              "internalType": "address",
              "name": "trader",
              "type": "address"
            },
            {
              "internalType": "bytes32",
              "name": "ticker",
              "type": "bytes32"
            },
            {
              "internalType": "uint256",
              "name": "amount",
              "type": "uint256"
            }
          ],
          "internalType": "struct Dex.MarketBuyOrder[]",
          "name": "",
          "type": "tuple[]"
        }
      ],
      "stateMutability": "view",
      "type": "function",
      "constant": true
    },
    {
      "inputs": [
        {
          "internalType": "enum Dex.Side",
          "name": "side",
          "type": "uint8"
        },
        {
          "internalType": "bytes32",
          "name": "ticker",
          "type": "bytes32"
        },
        {
          "internalType": "uint256",
          "name": "amount",
          "type": "uint256"
        },
        {
          "internalType": "uint256",
          "name": "price",
          "type": "uint256"
        }
      ],
      "name": "createLimitOrder",
      "outputs": [],
      "stateMutability": "nonpayable",
      "type": "function"
    },
    {
      "inputs": [
        {
          "internalType": "enum Dex.Side",
          "name": "side",
          "type": "uint8"
        },
        {
          "internalType": "bytes32",
          "name": "ticker",
          "type": "bytes32"
        },
        {
          "internalType": "uint256",
          "name": "amount",
          "type": "uint256"
        },
        {
          "internalType": "address",
          "name": "trader",
          "type": "address"
        }
      ],
      "name": "createMarketOrder",
      "outputs": [],
      "stateMutability": "nonpayable",
      "type": "function"
    }
  ],
  "bytecode": "0x60806040523480156200001157600080fd5b5062000032620000266200003860201b60201c565b6200004060201b60201c565b62000104565b600033905090565b60008060009054906101000a900473ffffffffffffffffffffffffffffffffffffffff169050816000806101000a81548173ffffffffffffffffffffffffffffffffffffffff021916908373ffffffffffffffffffffffffffffffffffffffff1602179055508173ffffffffffffffffffffffffffffffffffffffff168173ffffffffffffffffffffffffffffffffffffffff167f8be0079c531659141344cd1fd0a4f28419497f9722a3daafe3b4186f6b6457e060405160405180910390a35050565b61482580620001146000396000f3fe6080604052600436106100f35760003560e01c80639dcae8361161008a578063cb3764a811610059578063cb3764a814610342578063eb6e98751461037f578063f2fde38b146103a8578063f6326fb3146103d1576100f3565b80639dcae83614610288578063a8d2021a146102b3578063ba58ea68146102dc578063c9630cb014610319576100f3565b80636f3b62f9116100c65780636f3b62f9146101f4578063715018a61461021d5780638da5cb5b146102345780639776aacf1461025f576100f3565b80630bb431b6146100f85780631f14df691461013a578063346970f914610177578063667cb4ba146101b6575b600080fd5b34801561010457600080fd5b5061011f600480360381019061011a9190613b3a565b6103db565b6040516101319695949392919061445f565b60405180910390f35b34801561014657600080fd5b50610161600480360381019061015c9190613a34565b61046e565b60405161016e9190614444565b60405180910390f35b34801561018357600080fd5b5061019e60048036038101906101999190613c4f565b610493565b6040516101ad9392919061421c565b60405180910390f35b3480156101c257600080fd5b506101dd60048036038101906101d89190613a99565b6104ed565b6040516101eb9291906142db565b60405180910390f35b34801561020057600080fd5b5061021b60048036038101906102169190613bec565b610531565b005b34801561022957600080fd5b506102326115bd565b005b34801561024057600080fd5b50610249611645565b60405161025691906141ca565b60405180910390f35b34801561026b57600080fd5b5061028660048036038101906102819190613ac2565b61166e565b005b34801561029457600080fd5b5061029d61184e565b6040516102aa919061427c565b60405180910390f35b3480156102bf57600080fd5b506102da60048036038101906102d59190613ca1565b611917565b005b3480156102e857600080fd5b5061030360048036038101906102fe9190613afe565b611b96565b604051610310919061429e565b60405180910390f35b34801561032557600080fd5b50610340600480360381019061033b9190613ca1565b611d57565b005b34801561034e57600080fd5b5061036960048036038101906103649190613c4f565b612016565b60405161037691906142c0565b60405180910390f35b34801561038b57600080fd5b506103a660048036038101906103a19190613b89565b61203a565b005b3480156103b457600080fd5b506103cf60048036038101906103ca9190613a0b565b6130e0565b005b6103d96131d8565b005b6004602052826000526040600020602052816000526040600020818154811061040357600080fd5b906000526020600020906005020160009250925050508060000154908060010160009054906101000a900473ffffffffffffffffffffffffffffffffffffffff16908060010160149054906101000a900460ff16908060020154908060030154908060040154905086565b6003602052816000526040600020602052806000526040600020600091509150505481565b600581815481106104a357600080fd5b90600052602060002090600302016000915090508060000160009054906101000a900473ffffffffffffffffffffffffffffffffffffffff16908060010154908060020154905083565b60026020528060005260406000206000915090508060000154908060010160009054906101000a900473ffffffffffffffffffffffffffffffffffffffff16905082565b6000600181111561056b577f4e487b7100000000000000000000000000000000000000000000000000000000600052602160045260246000fd5b8460018111156105a4577f4e487b7100000000000000000000000000000000000000000000000000000000600052602160045260246000fd5b14156106745780826105b69190614599565b600360006105c2613268565b73ffffffffffffffffffffffffffffffffffffffff1673ffffffffffffffffffffffffffffffffffffffff16815260200190815260200160002060007f4554480000000000000000000000000000000000000000000000000000000000815260200190815260200160002054101561066f576040517f08c379a000000000000000000000000000000000000000000000000000000000815260040161066690614344565b60405180910390fd5b610788565b6001808111156106ad577f4e487b7100000000000000000000000000000000000000000000000000000000600052602160045260246000fd5b8460018111156106e6577f4e487b7100000000000000000000000000000000000000000000000000000000600052602160045260246000fd5b14156107875781600360006106f9613268565b73ffffffffffffffffffffffffffffffffffffffff1673ffffffffffffffffffffffffffffffffffffffff1681526020019081526020016000206000858152602001908152602001600020541015610786576040517f08c379a000000000000000000000000000000000000000000000000000000000815260040161077d906143a4565b60405180910390fd5b5b5b60006107946006613270565b905060006004600086815260200190815260200160002060008760018111156107e6577f4e487b7100000000000000000000000000000000000000000000000000000000600052602160045260246000fd5b81526020019081526020016000209050806040518060c00160405280848152602001610810613268565b73ffffffffffffffffffffffffffffffffffffffff168152602001886001811115610864577f4e487b7100000000000000000000000000000000000000000000000000000000600052602160045260246000fd5b81526020018781526020018681526020018581525090806001815401808255809150506001900390600052602060002090600502016000909190919091506000820151816000015560208201518160010160006101000a81548173ffffffffffffffffffffffffffffffffffffffff021916908373ffffffffffffffffffffffffffffffffffffffff16021790555060408201518160010160146101000a81548160ff02191690836001811115610944577f4e487b7100000000000000000000000000000000000000000000000000000000600052602160045260246000fd5b0217905550606082015181600201556080820151816003015560a08201518160040155505060008082805490501161097d57600061098f565b6001828054905061098e91906145f3565b5b9050600060018111156109cb577f4e487b7100000000000000000000000000000000000000000000000000000000600052602160045260246000fd5b876001811115610a04577f4e487b7100000000000000000000000000000000000000000000000000000000600052602160045260246000fd5b1415610ee5575b6000811115610ee05781600182610a2291906145f3565b81548110610a59577f4e487b7100000000000000000000000000000000000000000000000000000000600052603260045260246000fd5b906000526020600020906005020160040154828281548110610aa4577f4e487b7100000000000000000000000000000000000000000000000000000000600052603260045260246000fd5b9060005260206000209060050201600401541115610ec8576000828281548110610af7577f4e487b7100000000000000000000000000000000000000000000000000000000600052603260045260246000fd5b90600052602060002090600502016040518060c0016040529081600082015481526020016001820160009054906101000a900473ffffffffffffffffffffffffffffffffffffffff1673ffffffffffffffffffffffffffffffffffffffff1673ffffffffffffffffffffffffffffffffffffffff1681526020016001820160149054906101000a900460ff166001811115610bbb577f4e487b7100000000000000000000000000000000000000000000000000000000600052602160045260246000fd5b6001811115610bf3577f4e487b7100000000000000000000000000000000000000000000000000000000600052602160045260246000fd5b81526020016002820154815260200160038201548152602001600482015481525050905082600183610c2591906145f3565b81548110610c5c577f4e487b7100000000000000000000000000000000000000000000000000000000600052603260045260246000fd5b9060005260206000209060050201838381548110610ca3577f4e487b7100000000000000000000000000000000000000000000000000000000600052603260045260246000fd5b9060005260206000209060050201600082015481600001556001820160009054906101000a900473ffffffffffffffffffffffffffffffffffffffff168160010160006101000a81548173ffffffffffffffffffffffffffffffffffffffff021916908373ffffffffffffffffffffffffffffffffffffffff1602179055506001820160149054906101000a900460ff168160010160146101000a81548160ff02191690836001811115610d80577f4e487b7100000000000000000000000000000000000000000000000000000000600052602160045260246000fd5b02179055506002820154816002015560038201548160030155600482015481600401559050508083600184610db591906145f3565b81548110610dec577f4e487b7100000000000000000000000000000000000000000000000000000000600052603260045260246000fd5b90600052602060002090600502016000820151816000015560208201518160010160006101000a81548173ffffffffffffffffffffffffffffffffffffffff021916908373ffffffffffffffffffffffffffffffffffffffff16021790555060408201518160010160146101000a81548160ff02191690836001811115610e9c577f4e487b7100000000000000000000000000000000000000000000000000000000600052602160045260246000fd5b0217905550606082015181600201556080820151816003015560a0820151816004015590505050610ecd565b610ee0565b8080610ed89061469e565b915050610a0b565b611435565b600180811115610f1e577f4e487b7100000000000000000000000000000000000000000000000000000000600052602160045260246000fd5b876001811115610f57577f4e487b7100000000000000000000000000000000000000000000000000000000600052602160045260246000fd5b1415611434575b60008111156114335781600182610f7591906145f3565b81548110610fac577f4e487b7100000000000000000000000000000000000000000000000000000000600052603260045260246000fd5b906000526020600020906005020160040154828281548110610ff7577f4e487b7100000000000000000000000000000000000000000000000000000000600052603260045260246000fd5b906000526020600020906005020160040154101561141b57600082828154811061104a577f4e487b7100000000000000000000000000000000000000000000000000000000600052603260045260246000fd5b90600052602060002090600502016040518060c0016040529081600082015481526020016001820160009054906101000a900473ffffffffffffffffffffffffffffffffffffffff1673ffffffffffffffffffffffffffffffffffffffff1673ffffffffffffffffffffffffffffffffffffffff1681526020016001820160149054906101000a900460ff16600181111561110e577f4e487b7100000000000000000000000000000000000000000000000000000000600052602160045260246000fd5b6001811115611146577f4e487b7100000000000000000000000000000000000000000000000000000000600052602160045260246000fd5b8152602001600282015481526020016003820154815260200160048201548152505090508260018361117891906145f3565b815481106111af577f4e487b7100000000000000000000000000000000000000000000000000000000600052603260045260246000fd5b90600052602060002090600502018383815481106111f6577f4e487b7100000000000000000000000000000000000000000000000000000000600052603260045260246000fd5b9060005260206000209060050201600082015481600001556001820160009054906101000a900473ffffffffffffffffffffffffffffffffffffffff168160010160006101000a81548173ffffffffffffffffffffffffffffffffffffffff021916908373ffffffffffffffffffffffffffffffffffffffff1602179055506001820160149054906101000a900460ff168160010160146101000a81548160ff021916908360018111156112d3577f4e487b7100000000000000000000000000000000000000000000000000000000600052602160045260246000fd5b0217905550600282015481600201556003820154816003015560048201548160040155905050808360018461130891906145f3565b8154811061133f577f4e487b7100000000000000000000000000000000000000000000000000000000600052603260045260246000fd5b90600052602060002090600502016000820151816000015560208201518160010160006101000a81548173ffffffffffffffffffffffffffffffffffffffff021916908373ffffffffffffffffffffffffffffffffffffffff16021790555060408201518160010160146101000a81548160ff021916908360018111156113ef577f4e487b7100000000000000000000000000000000000000000000000000000000600052602160045260246000fd5b0217905550606082015181600201556080820151816003015560a0820151816004015590505050611420565b611433565b808061142b9061469e565b915050610f5e565b5b5b61143f600661327e565b60006005805490501180156114c857506000600460006005600081548110611490577f4e487b7100000000000000000000000000000000000000000000000000000000600052603260045260246000fd5b906000526020600020906003020160010154815260200190815260200160002060006001815260200190815260200160002080549050115b156115b4576000600560008154811061150a577f4e487b7100000000000000000000000000000000000000000000000000000000600052603260045260246000fd5b90600052602060002090600302016040518060600160405290816000820160009054906101000a900473ffffffffffffffffffffffffffffffffffffffff1673ffffffffffffffffffffffffffffffffffffffff1673ffffffffffffffffffffffffffffffffffffffff1681526020016001820154815260200160028201548152505090506115996005613294565b6115b2600082602001518360400151846000015161203a565b505b50505050505050565b6115c5613268565b73ffffffffffffffffffffffffffffffffffffffff166115e3611645565b73ffffffffffffffffffffffffffffffffffffffff1614611639576040517f08c379a000000000000000000000000000000000000000000000000000000000815260040161163090614404565b60405180910390fd5b6116436000613465565b565b60008060009054906101000a900473ffffffffffffffffffffffffffffffffffffffff16905090565b611676613268565b73ffffffffffffffffffffffffffffffffffffffff16611694611645565b73ffffffffffffffffffffffffffffffffffffffff16146116ea576040517f08c379a00000000000000000000000000000000000000000000000000000000081526004016116e190614404565b60405180910390fd5b600073ffffffffffffffffffffffffffffffffffffffff166002600084815260200190815260200160002060010160009054906101000a900473ffffffffffffffffffffffffffffffffffffffff1673ffffffffffffffffffffffffffffffffffffffff161461178f576040517f08c379a000000000000000000000000000000000000000000000000000000000815260040161178690614384565b60405180910390fd5b60405180604001604052808381526020018273ffffffffffffffffffffffffffffffffffffffff16815250600260008481526020019081526020016000206000820151816000015560208201518160010160006101000a81548173ffffffffffffffffffffffffffffffffffffffff021916908373ffffffffffffffffffffffffffffffffffffffff16021790555090505060018290806001815401808255809150506001900390600052602060002001600090919091909150555050565b60606005805480602002602001604051908101604052809291908181526020016000905b8282101561190e57838290600052602060002090600302016040518060600160405290816000820160009054906101000a900473ffffffffffffffffffffffffffffffffffffffff1673ffffffffffffffffffffffffffffffffffffffff1673ffffffffffffffffffffffffffffffffffffffff1681526020016001820154815260200160028201548152505081526020019060010190611872565b50505050905090565b80600073ffffffffffffffffffffffffffffffffffffffff166002600083815260200190815260200160002060010160009054906101000a900473ffffffffffffffffffffffffffffffffffffffff1673ffffffffffffffffffffffffffffffffffffffff1614156119be576040517f08c379a00000000000000000000000000000000000000000000000000000000081526004016119b5906143c4565b60405180910390fd5b82600360006119cb613268565b73ffffffffffffffffffffffffffffffffffffffff1673ffffffffffffffffffffffffffffffffffffffff1681526020019081526020016000206000848152602001908152602001600020541015611a58576040517f08c379a0000000000000000000000000000000000000000000000000000000008152600401611a4f90614304565b60405180910390fd5b8260036000611a65613268565b73ffffffffffffffffffffffffffffffffffffffff1673ffffffffffffffffffffffffffffffffffffffff16815260200190815260200160002060008481526020019081526020016000206000828254611abf91906145f3565b925050819055506002600083815260200190815260200160002060010160009054906101000a900473ffffffffffffffffffffffffffffffffffffffff1673ffffffffffffffffffffffffffffffffffffffff1663a9059cbb611b20613268565b856040518363ffffffff1660e01b8152600401611b3e929190614253565b602060405180830381600087803b158015611b5857600080fd5b505af1158015611b6c573d6000803e3d6000fd5b505050506040513d601f19601f82011682018060405250810190611b909190613a70565b50505050565b6060600460008481526020019081526020016000206000836001811115611be6577f4e487b7100000000000000000000000000000000000000000000000000000000600052602160045260246000fd5b8152602001908152602001600020805480602002602001604051908101604052809291908181526020016000905b82821015611d4b57838290600052602060002090600502016040518060c0016040529081600082015481526020016001820160009054906101000a900473ffffffffffffffffffffffffffffffffffffffff1673ffffffffffffffffffffffffffffffffffffffff1673ffffffffffffffffffffffffffffffffffffffff1681526020016001820160149054906101000a900460ff166001811115611ce2577f4e487b7100000000000000000000000000000000000000000000000000000000600052602160045260246000fd5b6001811115611d1a577f4e487b7100000000000000000000000000000000000000000000000000000000600052602160045260246000fd5b8152602001600282015481526020016003820154815260200160048201548152505081526020019060010190611c14565b50505050905092915050565b80600073ffffffffffffffffffffffffffffffffffffffff166002600083815260200190815260200160002060010160009054906101000a900473ffffffffffffffffffffffffffffffffffffffff1673ffffffffffffffffffffffffffffffffffffffff161415611dfe576040517f08c379a0000000000000000000000000000000000000000000000000000000008152600401611df5906143c4565b60405180910390fd5b60006002600084815260200190815260200160002060010160009054906101000a900473ffffffffffffffffffffffffffffffffffffffff169050838173ffffffffffffffffffffffffffffffffffffffff166370a08231611e5e613268565b6040518263ffffffff1660e01b8152600401611e7a91906141ca565b60206040518083038186803b158015611e9257600080fd5b505afa158015611ea6573d6000803e3d6000fd5b505050506040513d601f19601f82011682018060405250810190611eca9190613c78565b1015611f0b576040517f08c379a0000000000000000000000000000000000000000000000000000000008152600401611f0290614364565b60405180910390fd5b8360036000611f18613268565b73ffffffffffffffffffffffffffffffffffffffff1673ffffffffffffffffffffffffffffffffffffffff16815260200190815260200160002060008581526020019081526020016000206000828254611f729190614543565b925050819055508073ffffffffffffffffffffffffffffffffffffffff166323b872dd611f9d613268565b30876040518463ffffffff1660e01b8152600401611fbd939291906141e5565b602060405180830381600087803b158015611fd757600080fd5b505af1158015611feb573d6000803e3d6000fd5b505050506040513d601f19601f8201168201806040525081019061200f9190613a70565b5050505050565b6001818154811061202657600080fd5b906000526020600020016000915090505481565b836001811115612073577f4e487b7100000000000000000000000000000000000000000000000000000000600052602160045260246000fd5b6001808111156120ac577f4e487b7100000000000000000000000000000000000000000000000000000000600052602160045260246000fd5b141561274057600360008273ffffffffffffffffffffffffffffffffffffffff1673ffffffffffffffffffffffffffffffffffffffff168152602001908152602001600020600084815260200190815260200160002054821115612145576040517f08c379a000000000000000000000000000000000000000000000000000000000815260040161213c90614424565b60405180910390fd5b600060046000858152602001908152602001600020600080815260200190815260200160002090505b600083118015612182575060008180549050115b1561273a57806000815481106121c1577f4e487b7100000000000000000000000000000000000000000000000000000000600052603260045260246000fd5b90600052602060002090600502016003015483106124ab5780600081548110612213577f4e487b7100000000000000000000000000000000000000000000000000000000600052603260045260246000fd5b9060005260206000209060050201600301548361223091906145f3565b925061244c8160008154811061226f577f4e487b7100000000000000000000000000000000000000000000000000000000600052603260045260246000fd5b90600052602060002090600502016040518060c0016040529081600082015481526020016001820160009054906101000a900473ffffffffffffffffffffffffffffffffffffffff1673ffffffffffffffffffffffffffffffffffffffff1673ffffffffffffffffffffffffffffffffffffffff1681526020016001820160149054906101000a900460ff166001811115612333577f4e487b7100000000000000000000000000000000000000000000000000000000600052602160045260246000fd5b600181111561236b577f4e487b7100000000000000000000000000000000000000000000000000000000600052602160045260246000fd5b81526020016002820154815260200160038201548152602001600482015481525050826000815481106123c7577f4e487b7100000000000000000000000000000000000000000000000000000000600052603260045260246000fd5b9060005260206000209060050201600301548484600081548110612414577f4e487b7100000000000000000000000000000000000000000000000000000000600052603260045260246000fd5b906000526020600020906005020160010160009054906101000a900473ffffffffffffffffffffffffffffffffffffffff1688613529565b600081600081548110612488577f4e487b7100000000000000000000000000000000000000000000000000000000600052603260045260246000fd5b9060005260206000209060050201600301819055506124a681613721565b612735565b806000815481106124e5577f4e487b7100000000000000000000000000000000000000000000000000000000600052603260045260246000fd5b906000526020600020906005020160030154831015612734578281600081548110612539577f4e487b7100000000000000000000000000000000000000000000000000000000600052603260045260246000fd5b9060005260206000209060050201600301600082825461255991906145f3565b9250508190555061272f8160008154811061259d577f4e487b7100000000000000000000000000000000000000000000000000000000600052603260045260246000fd5b90600052602060002090600502016040518060c0016040529081600082015481526020016001820160009054906101000a900473ffffffffffffffffffffffffffffffffffffffff1673ffffffffffffffffffffffffffffffffffffffff1673ffffffffffffffffffffffffffffffffffffffff1681526020016001820160149054906101000a900460ff166001811115612661577f4e487b7100000000000000000000000000000000000000000000000000000000600052602160045260246000fd5b6001811115612699577f4e487b7100000000000000000000000000000000000000000000000000000000600052602160045260246000fd5b815260200160028201548152602001600382015481526020016004820154815250508484846000815481106126f7577f4e487b7100000000000000000000000000000000000000000000000000000000600052603260045260246000fd5b906000526020600020906005020160010160009054906101000a900473ffffffffffffffffffffffffffffffffffffffff1688613529565b600092505b5b61216e565b506130da565b836001811115612779577f4e487b7100000000000000000000000000000000000000000000000000000000600052602160045260246000fd5b600060018111156127b3577f4e487b7100000000000000000000000000000000000000000000000000000000600052602160045260246000fd5b14156130d957600060046000858152602001908152602001600020600060018152602001908152602001600020905060008180549050116128ac57600560405180606001604052808473ffffffffffffffffffffffffffffffffffffffff16815260200186815260200185815250908060018154018082558091505060019003906000526020600020906003020160009091909190915060008201518160000160006101000a81548173ffffffffffffffffffffffffffffffffffffffff021916908373ffffffffffffffffffffffffffffffffffffffff160217905550602082015181600101556040820151816002015550506130d7565b5b6000831180156128c1575060008180549050115b156130d65780600081548110612900577f4e487b7100000000000000000000000000000000000000000000000000000000600052603260045260246000fd5b9060005260206000209060050201600301548310612d3e5780600081548110612952577f4e487b7100000000000000000000000000000000000000000000000000000000600052603260045260246000fd5b9060005260206000209060050201600401548160008154811061299e577f4e487b7100000000000000000000000000000000000000000000000000000000600052603260045260246000fd5b9060005260206000209060050201600301546129ba9190614599565b600360008473ffffffffffffffffffffffffffffffffffffffff1673ffffffffffffffffffffffffffffffffffffffff16815260200190815260200160002060007f45544800000000000000000000000000000000000000000000000000000000008152602001908152602001600020541015612a6c576040517f08c379a0000000000000000000000000000000000000000000000000000000008152600401612a63906143e4565b60405180910390fd5b80600081548110612aa6577f4e487b7100000000000000000000000000000000000000000000000000000000600052603260045260246000fd5b90600052602060002090600502016003015483612ac391906145f3565b9250612cdf81600081548110612b02577f4e487b7100000000000000000000000000000000000000000000000000000000600052603260045260246000fd5b90600052602060002090600502016040518060c0016040529081600082015481526020016001820160009054906101000a900473ffffffffffffffffffffffffffffffffffffffff1673ffffffffffffffffffffffffffffffffffffffff1673ffffffffffffffffffffffffffffffffffffffff1681526020016001820160149054906101000a900460ff166001811115612bc6577f4e487b7100000000000000000000000000000000000000000000000000000000600052602160045260246000fd5b6001811115612bfe577f4e487b7100000000000000000000000000000000000000000000000000000000600052602160045260246000fd5b8152602001600282015481526020016003820154815260200160048201548152505082600081548110612c5a577f4e487b7100000000000000000000000000000000000000000000000000000000600052603260045260246000fd5b90600052602060002090600502016003015483600081548110612ca6577f4e487b7100000000000000000000000000000000000000000000000000000000600052603260045260246000fd5b906000526020600020906005020160010160009054906101000a900473ffffffffffffffffffffffffffffffffffffffff168588613529565b600081600081548110612d1b577f4e487b7100000000000000000000000000000000000000000000000000000000600052603260045260246000fd5b906000526020600020906005020160030181905550612d3981613721565b6130d1565b80600081548110612d78577f4e487b7100000000000000000000000000000000000000000000000000000000600052603260045260246000fd5b9060005260206000209060050201600301548310156130d05780600081548110612dcb577f4e487b7100000000000000000000000000000000000000000000000000000000600052603260045260246000fd5b90600052602060002090600502016004015483612de89190614599565b600360008473ffffffffffffffffffffffffffffffffffffffff1673ffffffffffffffffffffffffffffffffffffffff16815260200190815260200160002060007f45544800000000000000000000000000000000000000000000000000000000008152602001908152602001600020541015612e9a576040517f08c379a0000000000000000000000000000000000000000000000000000000008152600401612e91906143e4565b60405180910390fd5b8281600081548110612ed5577f4e487b7100000000000000000000000000000000000000000000000000000000600052603260045260246000fd5b90600052602060002090600502016003016000828254612ef591906145f3565b925050819055506130cb81600081548110612f39577f4e487b7100000000000000000000000000000000000000000000000000000000600052603260045260246000fd5b90600052602060002090600502016040518060c0016040529081600082015481526020016001820160009054906101000a900473ffffffffffffffffffffffffffffffffffffffff1673ffffffffffffffffffffffffffffffffffffffff1673ffffffffffffffffffffffffffffffffffffffff1681526020016001820160149054906101000a900460ff166001811115612ffd577f4e487b7100000000000000000000000000000000000000000000000000000000600052602160045260246000fd5b6001811115613035577f4e487b7100000000000000000000000000000000000000000000000000000000600052602160045260246000fd5b815260200160028201548152602001600382015481526020016004820154815250508483600081548110613092577f4e487b7100000000000000000000000000000000000000000000000000000000600052603260045260246000fd5b906000526020600020906005020160010160009054906101000a900473ffffffffffffffffffffffffffffffffffffffff168588613529565b600092505b5b6128ad565b5b505b5b50505050565b6130e8613268565b73ffffffffffffffffffffffffffffffffffffffff16613106611645565b73ffffffffffffffffffffffffffffffffffffffff161461315c576040517f08c379a000000000000000000000000000000000000000000000000000000000815260040161315390614404565b60405180910390fd5b600073ffffffffffffffffffffffffffffffffffffffff168173ffffffffffffffffffffffffffffffffffffffff1614156131cc576040517f08c379a00000000000000000000000000000000000000000000000000000000081526004016131c390614324565b60405180910390fd5b6131d581613465565b50565b34600360006131e5613268565b73ffffffffffffffffffffffffffffffffffffffff1673ffffffffffffffffffffffffffffffffffffffff16815260200190815260200160002060007f45544800000000000000000000000000000000000000000000000000000000008152602001908152602001600020600082825461325f9190614543565b92505081905550565b600033905090565b600081600001549050919050565b6001816000016000828254019250508190555050565b60005b600182805490506132a891906145f3565b8110156133da57816001826132bd9190614543565b815481106132f4577f4e487b7100000000000000000000000000000000000000000000000000000000600052603260045260246000fd5b906000526020600020906003020182828154811061333b577f4e487b7100000000000000000000000000000000000000000000000000000000600052603260045260246000fd5b90600052602060002090600302016000820160009054906101000a900473ffffffffffffffffffffffffffffffffffffffff168160000160006101000a81548173ffffffffffffffffffffffffffffffffffffffff021916908373ffffffffffffffffffffffffffffffffffffffff160217905550600182015481600101556002820154816002015590505080806133d2906146c8565b915050613297565b5080805480613412577f4e487b7100000000000000000000000000000000000000000000000000000000600052603160045260246000fd5b6001900381819060005260206000209060030201600080820160006101000a81549073ffffffffffffffffffffffffffffffffffffffff0219169055600182016000905560028201600090555050905550565b60008060009054906101000a900473ffffffffffffffffffffffffffffffffffffffff169050816000806101000a81548173ffffffffffffffffffffffffffffffffffffffff021916908373ffffffffffffffffffffffffffffffffffffffff1602179055508173ffffffffffffffffffffffffffffffffffffffff168173ffffffffffffffffffffffffffffffffffffffff167f8be0079c531659141344cd1fd0a4f28419497f9722a3daafe3b4186f6b6457e060405160405180910390a35050565b6000848660a0015161353b9190614599565b905080600360008673ffffffffffffffffffffffffffffffffffffffff1673ffffffffffffffffffffffffffffffffffffffff16815260200190815260200160002060007f4554480000000000000000000000000000000000000000000000000000000000815260200190815260200160002060008282546135bd9190614543565b9250508190555084600360008673ffffffffffffffffffffffffffffffffffffffff1673ffffffffffffffffffffffffffffffffffffffff1681526020019081526020016000206000848152602001908152602001600020600082825461362491906145f3565b9250508190555080600360008573ffffffffffffffffffffffffffffffffffffffff1673ffffffffffffffffffffffffffffffffffffffff16815260200190815260200160002060007f4554480000000000000000000000000000000000000000000000000000000000815260200190815260200160002060008282546136ab91906145f3565b9250508190555084600360008573ffffffffffffffffffffffffffffffffffffffff1673ffffffffffffffffffffffffffffffffffffffff168152602001908152602001600020600084815260200190815260200160002060008282546137129190614543565b92505081905550505050505050565b60005b6001828054905061373591906145f3565b8110156138de578160018261374a9190614543565b81548110613781577f4e487b7100000000000000000000000000000000000000000000000000000000600052603260045260246000fd5b90600052602060002090600502018282815481106137c8577f4e487b7100000000000000000000000000000000000000000000000000000000600052603260045260246000fd5b9060005260206000209060050201600082015481600001556001820160009054906101000a900473ffffffffffffffffffffffffffffffffffffffff168160010160006101000a81548173ffffffffffffffffffffffffffffffffffffffff021916908373ffffffffffffffffffffffffffffffffffffffff1602179055506001820160149054906101000a900460ff168160010160146101000a81548160ff021916908360018111156138a5577f4e487b7100000000000000000000000000000000000000000000000000000000600052602160045260246000fd5b021790555060028201548160020155600382015481600301556004820154816004015590505080806138d6906146c8565b915050613724565b5080805480613916577f4e487b7100000000000000000000000000000000000000000000000000000000600052603160045260246000fd5b60019003818190600052602060002090600502016000808201600090556001820160006101000a81549073ffffffffffffffffffffffffffffffffffffffff02191690556001820160146101000a81549060ff02191690556002820160009055600382016000905560048201600090555050905550565b60008135905061399c81614783565b92915050565b6000815190506139b18161479a565b92915050565b6000813590506139c6816147b1565b92915050565b6000813590506139db816147c8565b92915050565b6000813590506139f0816147d8565b92915050565b600081519050613a05816147d8565b92915050565b600060208284031215613a1d57600080fd5b6000613a2b8482850161398d565b91505092915050565b60008060408385031215613a4757600080fd5b6000613a558582860161398d565b9250506020613a66858286016139b7565b9150509250929050565b600060208284031215613a8257600080fd5b6000613a90848285016139a2565b91505092915050565b600060208284031215613aab57600080fd5b6000613ab9848285016139b7565b91505092915050565b60008060408385031215613ad557600080fd5b6000613ae3858286016139b7565b9250506020613af48582860161398d565b9150509250929050565b60008060408385031215613b1157600080fd5b6000613b1f858286016139b7565b9250506020613b30858286016139cc565b9150509250929050565b600080600060608486031215613b4f57600080fd5b6000613b5d868287016139b7565b9350506020613b6e868287016139e1565b9250506040613b7f868287016139e1565b9150509250925092565b60008060008060808587031215613b9f57600080fd5b6000613bad878288016139cc565b9450506020613bbe878288016139b7565b9350506040613bcf878288016139e1565b9250506060613be08782880161398d565b91505092959194509250565b60008060008060808587031215613c0257600080fd5b6000613c10878288016139cc565b9450506020613c21878288016139b7565b9350506040613c32878288016139e1565b9250506060613c43878288016139e1565b91505092959194509250565b600060208284031215613c6157600080fd5b6000613c6f848285016139e1565b91505092915050565b600060208284031215613c8a57600080fd5b6000613c98848285016139f6565b91505092915050565b60008060408385031215613cb457600080fd5b6000613cc2858286016139e1565b9250506020613cd3858286016139b7565b9150509250929050565b6000613ce983836140ef565b60608301905092915050565b6000613d018383614131565b60c08301905092915050565b613d1681614627565b82525050565b613d2581614627565b82525050565b6000613d36826144e0565b613d408185614510565b9350613d4b836144c0565b8060005b83811015613d7c578151613d638882613cdd565b9750613d6e836144f6565b925050600181019050613d4f565b5085935050505092915050565b6000613d94826144eb565b613d9e8185614521565b9350613da9836144d0565b8060005b83811015613dda578151613dc18882613cf5565b9750613dcc83614503565b925050600181019050613dad565b5085935050505092915050565b613df081614645565b82525050565b613dff81614645565b82525050565b613e0e8161468c565b82525050565b613e1d8161468c565b82525050565b6000613e30601c83614532565b91507f57616c6c65743a20696e73756666696369656e742062616c616e6365000000006000830152602082019050919050565b6000613e70602683614532565b91507f4f776e61626c653a206e6577206f776e657220697320746865207a65726f206160008301527f64647265737300000000000000000000000000000000000000000000000000006020830152604082019050919050565b6000613ed6601c83614532565b91507f436f7374206578646565647320746865204554482062616c616e6365000000006000830152602082019050919050565b6000613f16602683614532565b91507f4465706f7369742062616c616e636520696e20796f757220746f6b656e20636f60008301527f6e747261637400000000000000000000000000000000000000000000000000006020830152604082019050919050565b6000613f7c601b83614532565b91507f57616c6c65743a20546f6b656e20616c726561647920657869737400000000006000830152602082019050919050565b6000613fbc601b83614532565b91507f496e73756666696369656e7420746f6b656e7320746f2073656c6c00000000006000830152602082019050919050565b6000613ffc601b83614532565b91507f57616c6c65743a20746f6b656e20646f65736e277420657869737400000000006000830152602082019050919050565b600061403c601f83614532565b91507f496e73756666696369656e742045544820696e20796f75722077616c6c6574006000830152602082019050919050565b600061407c602083614532565b91507f4f776e61626c653a2063616c6c6572206973206e6f7420746865206f776e65726000830152602082019050919050565b60006140bc601a83614532565b91507f496e737566666963656e7420746f6b656e7320746f2073656c6c0000000000006000830152602082019050919050565b6060820160008201516141056000850182613d0d565b5060208201516141186020850182613de7565b50604082015161412b60408501826141ac565b50505050565b60c08201600082015161414760008501826141ac565b50602082015161415a6020850182613d0d565b50604082015161416d6040850182613e05565b5060608201516141806060850182613de7565b50608082015161419360808501826141ac565b5060a08201516141a660a08501826141ac565b50505050565b6141b581614682565b82525050565b6141c481614682565b82525050565b60006020820190506141df6000830184613d1c565b92915050565b60006060820190506141fa6000830186613d1c565b6142076020830185613d1c565b61421460408301846141bb565b949350505050565b60006060820190506142316000830186613d1c565b61423e6020830185613df6565b61424b60408301846141bb565b949350505050565b60006040820190506142686000830185613d1c565b61427560208301846141bb565b9392505050565b600060208201905081810360008301526142968184613d2b565b905092915050565b600060208201905081810360008301526142b88184613d89565b905092915050565b60006020820190506142d56000830184613df6565b92915050565b60006040820190506142f06000830185613df6565b6142fd6020830184613d1c565b9392505050565b6000602082019050818103600083015261431d81613e23565b9050919050565b6000602082019050818103600083015261433d81613e63565b9050919050565b6000602082019050818103600083015261435d81613ec9565b9050919050565b6000602082019050818103600083015261437d81613f09565b9050919050565b6000602082019050818103600083015261439d81613f6f565b9050919050565b600060208201905081810360008301526143bd81613faf565b9050919050565b600060208201905081810360008301526143dd81613fef565b9050919050565b600060208201905081810360008301526143fd8161402f565b9050919050565b6000602082019050818103600083015261441d8161406f565b9050919050565b6000602082019050818103600083015261443d816140af565b9050919050565b600060208201905061445960008301846141bb565b92915050565b600060c08201905061447460008301896141bb565b6144816020830188613d1c565b61448e6040830187613e14565b61449b6060830186613df6565b6144a860808301856141bb565b6144b560a08301846141bb565b979650505050505050565b6000819050602082019050919050565b6000819050602082019050919050565b600081519050919050565b600081519050919050565b6000602082019050919050565b6000602082019050919050565b600082825260208201905092915050565b600082825260208201905092915050565b600082825260208201905092915050565b600061454e82614682565b915061455983614682565b9250827fffffffffffffffffffffffffffffffffffffffffffffffffffffffffffffffff0382111561458e5761458d614711565b5b828201905092915050565b60006145a482614682565b91506145af83614682565b9250817fffffffffffffffffffffffffffffffffffffffffffffffffffffffffffffffff04831182151516156145e8576145e7614711565b5b828202905092915050565b60006145fe82614682565b915061460983614682565b92508282101561461c5761461b614711565b5b828203905092915050565b600061463282614662565b9050919050565b60008115159050919050565b6000819050919050565b600081905061465d8261476f565b919050565b600073ffffffffffffffffffffffffffffffffffffffff82169050919050565b6000819050919050565b60006146978261464f565b9050919050565b60006146a982614682565b915060008214156146bd576146bc614711565b5b600182039050919050565b60006146d382614682565b91507fffffffffffffffffffffffffffffffffffffffffffffffffffffffffffffffff82141561470657614705614711565b5b600182019050919050565b7f4e487b7100000000000000000000000000000000000000000000000000000000600052601160045260246000fd5b7f4e487b7100000000000000000000000000000000000000000000000000000000600052602160045260246000fd5b600281106147805761477f614740565b5b50565b61478c81614627565b811461479757600080fd5b50565b6147a381614639565b81146147ae57600080fd5b50565b6147ba81614645565b81146147c557600080fd5b50565b600281106147d557600080fd5b50565b6147e181614682565b81146147ec57600080fd5b5056fea26469706673582212200664c7a276a7432e06e1501d3551d3d1c2258c0310500d369b6604edb2d8ea1d64736f6c63430008000033",
  "immutableReferences": {},
  "source": "// SPDX-License-Identifier: MIT\r\npragma solidity >=0.4.22 <0.9.0;\r\nimport './wallet.sol';\r\nimport '../node_modules/@openzeppelin/contracts/utils/Counters.sol';\r\n\r\ncontract Dex is Wallet{\r\n\r\n    using Counters for Counters.Counter; \r\n    \r\n    enum Side{\r\n        BUY,\r\n        SELL\r\n    }\r\n\r\n   struct Order{\r\n       uint id;\r\n       address trader;\r\n       Side side;\r\n       bytes32 ticker;\r\n       uint amount;\r\n       uint price;\r\n   }\r\n   struct MarketBuyOrder{\r\n       address trader;\r\n       bytes32 ticker;\r\n       uint amount;\r\n   }\r\n\r\n   mapping(bytes32 => mapping(uint => Order[]))public orderBook;\r\n   MarketBuyOrder[] public marketOrders;\r\n   Counters.Counter private _counterIds;\r\n\r\n   //getOrderBook(bytes32(\"LINK\"),Side.BUY)\r\n   function getOrderBook(bytes32 _ticker,Side side) public view returns(Order[] memory){\r\n       return orderBook[_ticker][uint(side)];\r\n   }\r\n  \r\n  function getPendingBuyMktOrders() public view returns(MarketBuyOrder[] memory){\r\n      return marketOrders;\r\n  }\r\n   function createLimitOrder(Side side,bytes32 ticker,uint amount, uint price) public{\r\n      if(side == Side.BUY){\r\n          require(balances[_msgSender()][\"ETH\"] >= amount * price,'Cost exdeeds the ETH balance');\r\n      }\r\n      else if(side == Side.SELL){\r\n          require(balances[_msgSender()][ticker] >= amount,'Insufficient tokens to sell');\r\n      }\r\n\r\n        uint256 newCounterId = _counterIds.current();\r\n        Order[] storage orders = orderBook[ticker][uint(side)];\r\n        orders.push(Order(newCounterId,_msgSender(),side,ticker,amount,price));\r\n         \r\n        uint j =  orders.length > 0 ? orders.length-1 : 0;\r\n         if(side == Side.BUY){\r\n            for( ; j > 0 ; j--){\r\n                 if(orders[j].price > orders[j-1].price){\r\n                    Order memory temp = orders[j];\r\n                    orders[j] = orders[j-1];\r\n                    orders[j-1] = temp;\r\n                }\r\n                else{\r\n                    break;\r\n                }\r\n            }\r\n         }\r\n         else if(side == Side.SELL){\r\n            for(; j > 0 ; j--){\r\n                 if(orders[j].price < orders[j-1].price){\r\n                    Order memory temp = orders[j];\r\n                    orders[j] = orders[j-1];\r\n                    orders[j-1] = temp;\r\n                }\r\n                else{\r\n                    break;\r\n                }\r\n            }\r\n            \r\n         }\r\n         _counterIds.increment();\r\n         //handling unsettled market buy orders\r\n         if(marketOrders.length > 0 && orderBook[marketOrders[0].ticker][1].length > 0 ){\r\n            MarketBuyOrder memory temp = marketOrders[0];\r\n            deleteMarketOrder(marketOrders); //for FCFS structure\r\n            createMarketOrder(Side.BUY,temp.ticker,temp.amount,temp.trader); \r\n        }\r\n   }\r\n   \r\n   function settleTrade(Order memory temp, uint amt, address seller, address buyer,bytes32 _ticker) private{\r\n        uint cost = temp.price * amt;\r\n        balances[seller][\"ETH\"] += cost; \r\n        balances[seller][_ticker] -= amt; \r\n        balances[buyer][\"ETH\"] -= cost; \r\n        balances[buyer][_ticker] += amt; \r\n   }\r\n   \r\n   function deleteMarketOrder(MarketBuyOrder[] storage orders) private{\r\n       for(uint j = 0 ; j < orders.length-1 ; j++){\r\n                orders[j] = orders[j+1];\r\n            }\r\n      orders.pop(); \r\n   }\r\n   function deleteFilledOrder(Order[] storage orders) private{\r\n      for(uint j = 0 ; j < orders.length-1 ; j++){\r\n                orders[j] = orders[j+1];\r\n            }\r\n      orders.pop(); \r\n   }\r\n\r\n   function createMarketOrder(Side side, bytes32 ticker, uint amount, address trader) public {\r\n\r\n     if(Side.SELL == side){\r\n        require(amount <= balances[trader][ticker],\"Insufficent tokens to sell\");\r\n        Order[] storage orders = orderBook[ticker][0]; //Buy order book\r\n\r\n        while(amount > 0 && orders.length > 0){\r\n         if(amount >= orders[0].amount){\r\n             amount -= orders[0].amount; \r\n             settleTrade(orders[0],orders[0].amount, trader,orders[0].trader,ticker);\r\n             orders[0].amount = 0;\r\n             deleteFilledOrder(orders);\r\n         }\r\n         else if(amount < orders[0].amount){\r\n             orders[0].amount -= amount;\r\n             settleTrade(orders[0],amount,trader,orders[0].trader,ticker);\r\n             amount = 0;\r\n         }\r\n       }\r\n      }\r\n     else if(Side.BUY == side){\r\n\r\n        Order[] storage orders = orderBook[ticker][1]; //limit order sell book \r\n        \r\n        if(orders.length <= 0){\r\n            marketOrders.push(MarketBuyOrder(trader,ticker,amount));\r\n        }\r\n        else {\r\n            while(amount > 0 && orders.length > 0){\r\n            if(amount >= orders[0].amount){\r\n               require(balances[trader][\"ETH\"] >= orders[0].amount * orders[0].price,\"Insufficient ETH in your wallet\");\r\n               amount -= orders[0].amount;\r\n               settleTrade(orders[0],orders[0].amount, orders[0].trader,trader,ticker);\r\n               orders[0].amount = 0;\r\n               deleteFilledOrder(orders);\r\n            }\r\n            else if(amount < orders[0].amount){\r\n                require(balances[trader][\"ETH\"] >= amount * orders[0].price,\"Insufficient ETH in your wallet\");\r\n                orders[0].amount -= amount;\r\n                settleTrade(orders[0],amount,orders[0].trader,trader,ticker);\r\n                amount = 0;\r\n            }\r\n          } \r\n        }\r\n      }\r\n   }  \r\n}",
  "sourcePath": "D:/BlockChain/Ethereum-201/DEX/contracts/dex.sol",
  "compiler": {
    "name": "solc",
    "version": "0.8.0+commit.c7dfd78e.Emscripten.clang"
  },
  "schemaVersion": "3.4.1",
  "updatedAt": "2021-07-14T12:14:43.449Z",
  "networkType": "ethereum",
  "devdoc": {
    "kind": "dev",
    "methods": {
      "owner()": {
        "details": "Returns the address of the current owner."
      },
      "renounceOwnership()": {
        "details": "Leaves the contract without owner. It will not be possible to call `onlyOwner` functions anymore. Can only be called by the current owner. NOTE: Renouncing ownership will leave the contract without an owner, thereby removing any functionality that is only available to the owner."
      },
      "transferOwnership(address)": {
        "details": "Transfers ownership of the contract to a new account (`newOwner`). Can only be called by the current owner."
      }
    },
    "version": 1
  },
  "userdoc": {
    "kind": "user",
    "methods": {},
    "version": 1
  }
}