{
  "contractName": "Dex",
  "abi": [
    {
      "anonymous": false,
      "inputs": [
        {
          "indexed": true,
          "internalType": "address",
          "name": "previousOwner",
          "type": "address"
        },
        {
          "indexed": true,
          "internalType": "address",
          "name": "newOwner",
          "type": "address"
        }
      ],
      "name": "OwnershipTransferred",
      "type": "event"
    },
    {
      "inputs": [
        {
          "internalType": "bytes32",
          "name": "_ticker",
          "type": "bytes32"
        },
        {
          "internalType": "address",
          "name": "_tickerAddress",
          "type": "address"
        }
      ],
      "name": "addToken",
      "outputs": [],
      "stateMutability": "nonpayable",
      "type": "function"
    },
    {
      "inputs": [
        {
          "internalType": "address",
          "name": "",
          "type": "address"
        },
        {
          "internalType": "bytes32",
          "name": "",
          "type": "bytes32"
        }
      ],
      "name": "balances",
      "outputs": [
        {
          "internalType": "uint256",
          "name": "",
          "type": "uint256"
        }
      ],
      "stateMutability": "view",
      "type": "function",
      "constant": true
    },
    {
      "inputs": [
        {
          "internalType": "uint256",
          "name": "_amount",
          "type": "uint256"
        },
        {
          "internalType": "bytes32",
          "name": "_ticker",
          "type": "bytes32"
        }
      ],
      "name": "deposit",
      "outputs": [],
      "stateMutability": "nonpayable",
      "type": "function"
    },
    {
      "inputs": [],
      "name": "depositETH",
      "outputs": [],
      "stateMutability": "payable",
      "type": "function",
      "payable": true
    },
    {
      "inputs": [
        {
          "internalType": "bytes32",
          "name": "",
          "type": "bytes32"
        },
        {
          "internalType": "uint256",
          "name": "",
          "type": "uint256"
        },
        {
          "internalType": "uint256",
          "name": "",
          "type": "uint256"
        }
      ],
      "name": "orderBook",
      "outputs": [
        {
          "internalType": "uint256",
          "name": "id",
          "type": "uint256"
        },
        {
          "internalType": "address",
          "name": "trader",
          "type": "address"
        },
        {
          "internalType": "enum Dex.Side",
          "name": "side",
          "type": "uint8"
        },
        {
          "internalType": "bytes32",
          "name": "ticker",
          "type": "bytes32"
        },
        {
          "internalType": "uint256",
          "name": "amount",
          "type": "uint256"
        },
        {
          "internalType": "uint256",
          "name": "price",
          "type": "uint256"
        }
      ],
      "stateMutability": "view",
      "type": "function",
      "constant": true
    },
    {
      "inputs": [],
      "name": "owner",
      "outputs": [
        {
          "internalType": "address",
          "name": "",
          "type": "address"
        }
      ],
      "stateMutability": "view",
      "type": "function",
      "constant": true
    },
    {
      "inputs": [],
      "name": "renounceOwnership",
      "outputs": [],
      "stateMutability": "nonpayable",
      "type": "function"
    },
    {
      "inputs": [
        {
          "internalType": "uint256",
          "name": "",
          "type": "uint256"
        }
      ],
      "name": "tickerList",
      "outputs": [
        {
          "internalType": "bytes32",
          "name": "",
          "type": "bytes32"
        }
      ],
      "stateMutability": "view",
      "type": "function",
      "constant": true
    },
    {
      "inputs": [
        {
          "internalType": "bytes32",
          "name": "",
          "type": "bytes32"
        }
      ],
      "name": "tokenMapping",
      "outputs": [
        {
          "internalType": "bytes32",
          "name": "ticker",
          "type": "bytes32"
        },
        {
          "internalType": "address",
          "name": "tokenAddress",
          "type": "address"
        }
      ],
      "stateMutability": "view",
      "type": "function",
      "constant": true
    },
    {
      "inputs": [
        {
          "internalType": "address",
          "name": "newOwner",
          "type": "address"
        }
      ],
      "name": "transferOwnership",
      "outputs": [],
      "stateMutability": "nonpayable",
      "type": "function"
    },
    {
      "inputs": [
        {
          "internalType": "uint256",
          "name": "_amount",
          "type": "uint256"
        },
        {
          "internalType": "bytes32",
          "name": "_ticker",
          "type": "bytes32"
        }
      ],
      "name": "withdraw",
      "outputs": [],
      "stateMutability": "nonpayable",
      "type": "function"
    },
    {
      "inputs": [
        {
          "internalType": "bytes32",
          "name": "_ticker",
          "type": "bytes32"
        },
        {
          "internalType": "enum Dex.Side",
          "name": "side",
          "type": "uint8"
        }
      ],
      "name": "getOrderBook",
      "outputs": [
        {
          "components": [
            {
              "internalType": "uint256",
              "name": "id",
              "type": "uint256"
            },
            {
              "internalType": "address",
              "name": "trader",
              "type": "address"
            },
            {
              "internalType": "enum Dex.Side",
              "name": "side",
              "type": "uint8"
            },
            {
              "internalType": "bytes32",
              "name": "ticker",
              "type": "bytes32"
            },
            {
              "internalType": "uint256",
              "name": "amount",
              "type": "uint256"
            },
            {
              "internalType": "uint256",
              "name": "price",
              "type": "uint256"
            }
          ],
          "internalType": "struct Dex.Order[]",
          "name": "",
          "type": "tuple[]"
        }
      ],
      "stateMutability": "view",
      "type": "function",
      "constant": true
    },
    {
      "inputs": [
        {
          "internalType": "enum Dex.Side",
          "name": "side",
          "type": "uint8"
        },
        {
          "internalType": "bytes32",
          "name": "ticker",
          "type": "bytes32"
        },
        {
          "internalType": "uint256",
          "name": "amount",
          "type": "uint256"
        },
        {
          "internalType": "uint256",
          "name": "price",
          "type": "uint256"
        }
      ],
      "name": "createLimitOrder",
      "outputs": [],
      "stateMutability": "nonpayable",
      "type": "function"
    }
  ],
  "bytecode": "0x60806040523480156200001157600080fd5b5062000032620000266200003860201b60201c565b6200004060201b60201c565b62000104565b600033905090565b60008060009054906101000a900473ffffffffffffffffffffffffffffffffffffffff169050816000806101000a81548173ffffffffffffffffffffffffffffffffffffffff021916908373ffffffffffffffffffffffffffffffffffffffff1602179055508173ffffffffffffffffffffffffffffffffffffffff168173ffffffffffffffffffffffffffffffffffffffff167f8be0079c531659141344cd1fd0a4f28419497f9722a3daafe3b4186f6b6457e060405160405180910390a35050565b612a2480620001146000396000f3fe6080604052600436106100c25760003560e01c80639776aacf1161007f578063c9630cb011610059578063c9630cb01461027e578063cb3764a8146102a7578063f2fde38b146102e4578063f6326fb31461030d576100c2565b80639776aacf146101ef578063a8d2021a14610218578063ba58ea6814610241576100c2565b80630bb431b6146100c75780631f14df6914610109578063667cb4ba146101465780636f3b62f914610184578063715018a6146101ad5780638da5cb5b146101c4575b600080fd5b3480156100d357600080fd5b506100ee60048036038101906100e99190612075565b610317565b604051610100969594939291906126e0565b60405180910390f35b34801561011557600080fd5b50610130600480360381019061012b9190611f6f565b6103aa565b60405161013d91906126c5565b60405180910390f35b34801561015257600080fd5b5061016d60048036038101906101689190611fd4565b6103cf565b60405161017b9291906125bc565b60405180910390f35b34801561019057600080fd5b506101ab60048036038101906101a691906120c4565b610413565b005b3480156101b957600080fd5b506101c2611303565b005b3480156101d057600080fd5b506101d961138b565b6040516101e69190612504565b60405180910390f35b3480156101fb57600080fd5b5061021660048036038101906102119190611ffd565b6113b4565b005b34801561022457600080fd5b5061023f600480360381019061023a9190612179565b611594565b005b34801561024d57600080fd5b5061026860048036038101906102639190612039565b6117fe565b604051610275919061257f565b60405180910390f35b34801561028a57600080fd5b506102a560048036038101906102a09190612179565b6119bf565b005b3480156102b357600080fd5b506102ce60048036038101906102c99190612127565b611c33565b6040516102db91906125a1565b60405180910390f35b3480156102f057600080fd5b5061030b60048036038101906103069190611f46565b611c57565b005b610315611d4f565b005b6004602052826000526040600020602052816000526040600020818154811061033f57600080fd5b906000526020600020906005020160009250925050508060000154908060010160009054906101000a900473ffffffffffffffffffffffffffffffffffffffff16908060010160149054906101000a900460ff16908060020154908060030154908060040154905086565b6003602052816000526040600020602052806000526040600020600091509150505481565b60026020528060005260406000206000915090508060000154908060010160009054906101000a900473ffffffffffffffffffffffffffffffffffffffff16905082565b6000600181111561044d577f4e487b7100000000000000000000000000000000000000000000000000000000600052602160045260246000fd5b846001811115610486577f4e487b7100000000000000000000000000000000000000000000000000000000600052602160045260246000fd5b141561054f57808261049891906127e1565b600360003373ffffffffffffffffffffffffffffffffffffffff1673ffffffffffffffffffffffffffffffffffffffff16815260200190815260200160002060007f4554480000000000000000000000000000000000000000000000000000000000815260200190815260200160002054101561054a576040517f08c379a000000000000000000000000000000000000000000000000000000000815260040161054190612625565b60405180910390fd5b61065c565b600180811115610588577f4e487b7100000000000000000000000000000000000000000000000000000000600052602160045260246000fd5b8460018111156105c1577f4e487b7100000000000000000000000000000000000000000000000000000000600052602160045260246000fd5b141561065b5781600360003373ffffffffffffffffffffffffffffffffffffffff1673ffffffffffffffffffffffffffffffffffffffff168152602001908152602001600020600085815260200190815260200160002054101561065a576040517f08c379a000000000000000000000000000000000000000000000000000000000815260040161065190612665565b60405180910390fd5b5b5b60006106686005611dd8565b905060006004600086815260200190815260200160002060008760018111156106ba577f4e487b7100000000000000000000000000000000000000000000000000000000600052602160045260246000fd5b81526020019081526020016000209050806040518060c001604052808481526020013373ffffffffffffffffffffffffffffffffffffffff168152602001886001811115610731577f4e487b7100000000000000000000000000000000000000000000000000000000600052602160045260246000fd5b81526020018781526020018681526020018581525090806001815401808255809150506001900390600052602060002090600502016000909190919091506000820151816000015560208201518160010160006101000a81548173ffffffffffffffffffffffffffffffffffffffff021916908373ffffffffffffffffffffffffffffffffffffffff16021790555060408201518160010160146101000a81548160ff02191690836001811115610811577f4e487b7100000000000000000000000000000000000000000000000000000000600052602160045260246000fd5b0217905550606082015181600201556080820151816003015560a0820151816004015550506108406005611de6565b600080828054905011610854576000610866565b60018280549050610865919061283b565b5b9050600060018111156108a2577f4e487b7100000000000000000000000000000000000000000000000000000000600052602160045260246000fd5b8760018111156108db577f4e487b7100000000000000000000000000000000000000000000000000000000600052602160045260246000fd5b1415610db3575b6000811115610dae57816001826108f9919061283b565b81548110610930577f4e487b7100000000000000000000000000000000000000000000000000000000600052603260045260246000fd5b90600052602060002090600502016004015482828154811061097b577f4e487b7100000000000000000000000000000000000000000000000000000000600052603260045260246000fd5b9060005260206000209060050201600401541115610d9b5760008282815481106109ce577f4e487b7100000000000000000000000000000000000000000000000000000000600052603260045260246000fd5b90600052602060002090600502016040518060c0016040529081600082015481526020016001820160009054906101000a900473ffffffffffffffffffffffffffffffffffffffff1673ffffffffffffffffffffffffffffffffffffffff1673ffffffffffffffffffffffffffffffffffffffff1681526020016001820160149054906101000a900460ff166001811115610a92577f4e487b7100000000000000000000000000000000000000000000000000000000600052602160045260246000fd5b6001811115610aca577f4e487b7100000000000000000000000000000000000000000000000000000000600052602160045260246000fd5b81526020016002820154815260200160038201548152602001600482015481525050905082600183610afc919061283b565b81548110610b33577f4e487b7100000000000000000000000000000000000000000000000000000000600052603260045260246000fd5b9060005260206000209060050201838381548110610b7a577f4e487b7100000000000000000000000000000000000000000000000000000000600052603260045260246000fd5b9060005260206000209060050201600082015481600001556001820160009054906101000a900473ffffffffffffffffffffffffffffffffffffffff168160010160006101000a81548173ffffffffffffffffffffffffffffffffffffffff021916908373ffffffffffffffffffffffffffffffffffffffff1602179055506001820160149054906101000a900460ff168160010160146101000a81548160ff02191690836001811115610c57577f4e487b7100000000000000000000000000000000000000000000000000000000600052602160045260246000fd5b02179055506002820154816002015560038201548160030155600482015481600401559050508083600184610c8c919061283b565b81548110610cc3577f4e487b7100000000000000000000000000000000000000000000000000000000600052603260045260246000fd5b90600052602060002090600502016000820151816000015560208201518160010160006101000a81548173ffffffffffffffffffffffffffffffffffffffff021916908373ffffffffffffffffffffffffffffffffffffffff16021790555060408201518160010160146101000a81548160ff02191690836001811115610d73577f4e487b7100000000000000000000000000000000000000000000000000000000600052602160045260246000fd5b0217905550606082015181600201556080820151816003015560a08201518160040155905050505b8080610da6906128e6565b9150506108e2565b6112fa565b600180811115610dec577f4e487b7100000000000000000000000000000000000000000000000000000000600052602160045260246000fd5b876001811115610e25577f4e487b7100000000000000000000000000000000000000000000000000000000600052602160045260246000fd5b14156112f9575b60008111156112f85781600182610e43919061283b565b81548110610e7a577f4e487b7100000000000000000000000000000000000000000000000000000000600052603260045260246000fd5b906000526020600020906005020160040154828281548110610ec5577f4e487b7100000000000000000000000000000000000000000000000000000000600052603260045260246000fd5b90600052602060002090600502016004015410156112e5576000828281548110610f18577f4e487b7100000000000000000000000000000000000000000000000000000000600052603260045260246000fd5b90600052602060002090600502016040518060c0016040529081600082015481526020016001820160009054906101000a900473ffffffffffffffffffffffffffffffffffffffff1673ffffffffffffffffffffffffffffffffffffffff1673ffffffffffffffffffffffffffffffffffffffff1681526020016001820160149054906101000a900460ff166001811115610fdc577f4e487b7100000000000000000000000000000000000000000000000000000000600052602160045260246000fd5b6001811115611014577f4e487b7100000000000000000000000000000000000000000000000000000000600052602160045260246000fd5b81526020016002820154815260200160038201548152602001600482015481525050905082600183611046919061283b565b8154811061107d577f4e487b7100000000000000000000000000000000000000000000000000000000600052603260045260246000fd5b90600052602060002090600502018383815481106110c4577f4e487b7100000000000000000000000000000000000000000000000000000000600052603260045260246000fd5b9060005260206000209060050201600082015481600001556001820160009054906101000a900473ffffffffffffffffffffffffffffffffffffffff168160010160006101000a81548173ffffffffffffffffffffffffffffffffffffffff021916908373ffffffffffffffffffffffffffffffffffffffff1602179055506001820160149054906101000a900460ff168160010160146101000a81548160ff021916908360018111156111a1577f4e487b7100000000000000000000000000000000000000000000000000000000600052602160045260246000fd5b021790555060028201548160020155600382015481600301556004820154816004015590505080836001846111d6919061283b565b8154811061120d577f4e487b7100000000000000000000000000000000000000000000000000000000600052603260045260246000fd5b90600052602060002090600502016000820151816000015560208201518160010160006101000a81548173ffffffffffffffffffffffffffffffffffffffff021916908373ffffffffffffffffffffffffffffffffffffffff16021790555060408201518160010160146101000a81548160ff021916908360018111156112bd577f4e487b7100000000000000000000000000000000000000000000000000000000600052602160045260246000fd5b0217905550606082015181600201556080820151816003015560a08201518160040155905050505b80806112f0906128e6565b915050610e2c565b5b5b50505050505050565b61130b611dfc565b73ffffffffffffffffffffffffffffffffffffffff1661132961138b565b73ffffffffffffffffffffffffffffffffffffffff161461137f576040517f08c379a0000000000000000000000000000000000000000000000000000000008152600401611376906126a5565b60405180910390fd5b6113896000611e04565b565b60008060009054906101000a900473ffffffffffffffffffffffffffffffffffffffff16905090565b6113bc611dfc565b73ffffffffffffffffffffffffffffffffffffffff166113da61138b565b73ffffffffffffffffffffffffffffffffffffffff1614611430576040517f08c379a0000000000000000000000000000000000000000000000000000000008152600401611427906126a5565b60405180910390fd5b600073ffffffffffffffffffffffffffffffffffffffff166002600084815260200190815260200160002060010160009054906101000a900473ffffffffffffffffffffffffffffffffffffffff1673ffffffffffffffffffffffffffffffffffffffff16146114d5576040517f08c379a00000000000000000000000000000000000000000000000000000000081526004016114cc90612645565b60405180910390fd5b60405180604001604052808381526020018273ffffffffffffffffffffffffffffffffffffffff16815250600260008481526020019081526020016000206000820151816000015560208201518160010160006101000a81548173ffffffffffffffffffffffffffffffffffffffff021916908373ffffffffffffffffffffffffffffffffffffffff16021790555090505060018290806001815401808255809150506001900390600052602060002001600090919091909150555050565b80600073ffffffffffffffffffffffffffffffffffffffff166002600083815260200190815260200160002060010160009054906101000a900473ffffffffffffffffffffffffffffffffffffffff1673ffffffffffffffffffffffffffffffffffffffff16141561163b576040517f08c379a000000000000000000000000000000000000000000000000000000000815260040161163290612685565b60405180910390fd5b82600360003373ffffffffffffffffffffffffffffffffffffffff1673ffffffffffffffffffffffffffffffffffffffff16815260200190815260200160002060008481526020019081526020016000205410156116ce576040517f08c379a00000000000000000000000000000000000000000000000000000000081526004016116c5906125e5565b60405180910390fd5b82600360003373ffffffffffffffffffffffffffffffffffffffff1673ffffffffffffffffffffffffffffffffffffffff1681526020019081526020016000206000848152602001908152602001600020600082825461172e919061283b565b925050819055506002600083815260200190815260200160002060010160009054906101000a900473ffffffffffffffffffffffffffffffffffffffff1673ffffffffffffffffffffffffffffffffffffffff1663a9059cbb33856040518363ffffffff1660e01b81526004016117a6929190612556565b602060405180830381600087803b1580156117c057600080fd5b505af11580156117d4573d6000803e3d6000fd5b505050506040513d601f19601f820116820180604052508101906117f89190611fab565b50505050565b606060046000848152602001908152602001600020600083600181111561184e577f4e487b7100000000000000000000000000000000000000000000000000000000600052602160045260246000fd5b8152602001908152602001600020805480602002602001604051908101604052809291908181526020016000905b828210156119b357838290600052602060002090600502016040518060c0016040529081600082015481526020016001820160009054906101000a900473ffffffffffffffffffffffffffffffffffffffff1673ffffffffffffffffffffffffffffffffffffffff1673ffffffffffffffffffffffffffffffffffffffff1681526020016001820160149054906101000a900460ff16600181111561194a577f4e487b7100000000000000000000000000000000000000000000000000000000600052602160045260246000fd5b6001811115611982577f4e487b7100000000000000000000000000000000000000000000000000000000600052602160045260246000fd5b815260200160028201548152602001600382015481526020016004820154815250508152602001906001019061187c565b50505050905092915050565b80600073ffffffffffffffffffffffffffffffffffffffff166002600083815260200190815260200160002060010160009054906101000a900473ffffffffffffffffffffffffffffffffffffffff1673ffffffffffffffffffffffffffffffffffffffff161415611a66576040517f08c379a0000000000000000000000000000000000000000000000000000000008152600401611a5d90612685565b60405180910390fd5b60006002600084815260200190815260200160002060010160009054906101000a900473ffffffffffffffffffffffffffffffffffffffff169050838173ffffffffffffffffffffffffffffffffffffffff166370a08231336040518263ffffffff1660e01b8152600401611adb9190612504565b60206040518083038186803b158015611af357600080fd5b505afa158015611b07573d6000803e3d6000fd5b505050506040513d601f19601f82011682018060405250810190611b2b9190612150565b1015611b3657600080fd5b83600360003373ffffffffffffffffffffffffffffffffffffffff1673ffffffffffffffffffffffffffffffffffffffff16815260200190815260200160002060008581526020019081526020016000206000828254611b96919061278b565b925050819055508073ffffffffffffffffffffffffffffffffffffffff166323b872dd3330876040518463ffffffff1660e01b8152600401611bda9392919061251f565b602060405180830381600087803b158015611bf457600080fd5b505af1158015611c08573d6000803e3d6000fd5b505050506040513d601f19601f82011682018060405250810190611c2c9190611fab565b5050505050565b60018181548110611c4357600080fd5b906000526020600020016000915090505481565b611c5f611dfc565b73ffffffffffffffffffffffffffffffffffffffff16611c7d61138b565b73ffffffffffffffffffffffffffffffffffffffff1614611cd3576040517f08c379a0000000000000000000000000000000000000000000000000000000008152600401611cca906126a5565b60405180910390fd5b600073ffffffffffffffffffffffffffffffffffffffff168173ffffffffffffffffffffffffffffffffffffffff161415611d43576040517f08c379a0000000000000000000000000000000000000000000000000000000008152600401611d3a90612605565b60405180910390fd5b611d4c81611e04565b50565b34600360003373ffffffffffffffffffffffffffffffffffffffff1673ffffffffffffffffffffffffffffffffffffffff16815260200190815260200160002060007f455448000000000000000000000000000000000000000000000000000000000081526020019081526020016000206000828254611dcf919061278b565b92505081905550565b600081600001549050919050565b6001816000016000828254019250508190555050565b600033905090565b60008060009054906101000a900473ffffffffffffffffffffffffffffffffffffffff169050816000806101000a81548173ffffffffffffffffffffffffffffffffffffffff021916908373ffffffffffffffffffffffffffffffffffffffff1602179055508173ffffffffffffffffffffffffffffffffffffffff168173ffffffffffffffffffffffffffffffffffffffff167f8be0079c531659141344cd1fd0a4f28419497f9722a3daafe3b4186f6b6457e060405160405180910390a35050565b600081359050611ed781612982565b92915050565b600081519050611eec81612999565b92915050565b600081359050611f01816129b0565b92915050565b600081359050611f16816129c7565b92915050565b600081359050611f2b816129d7565b92915050565b600081519050611f40816129d7565b92915050565b600060208284031215611f5857600080fd5b6000611f6684828501611ec8565b91505092915050565b60008060408385031215611f8257600080fd5b6000611f9085828601611ec8565b9250506020611fa185828601611ef2565b9150509250929050565b600060208284031215611fbd57600080fd5b6000611fcb84828501611edd565b91505092915050565b600060208284031215611fe657600080fd5b6000611ff484828501611ef2565b91505092915050565b6000806040838503121561201057600080fd5b600061201e85828601611ef2565b925050602061202f85828601611ec8565b9150509250929050565b6000806040838503121561204c57600080fd5b600061205a85828601611ef2565b925050602061206b85828601611f07565b9150509250929050565b60008060006060848603121561208a57600080fd5b600061209886828701611ef2565b93505060206120a986828701611f1c565b92505060406120ba86828701611f1c565b9150509250925092565b600080600080608085870312156120da57600080fd5b60006120e887828801611f07565b94505060206120f987828801611ef2565b935050604061210a87828801611f1c565b925050606061211b87828801611f1c565b91505092959194509250565b60006020828403121561213957600080fd5b600061214784828501611f1c565b91505092915050565b60006020828403121561216257600080fd5b600061217084828501611f31565b91505092915050565b6000806040838503121561218c57600080fd5b600061219a85828601611f1c565b92505060206121ab85828601611ef2565b9150509250929050565b60006121c1838361246b565b60c08301905092915050565b6121d68161286f565b82525050565b6121e58161286f565b82525050565b60006121f682612751565b6122008185612769565b935061220b83612741565b8060005b8381101561223c57815161222388826121b5565b975061222e8361275c565b92505060018101905061220f565b5085935050505092915050565b6122528161288d565b82525050565b6122618161288d565b82525050565b612270816128d4565b82525050565b61227f816128d4565b82525050565b6000612292601c8361277a565b91507f57616c6c65743a20696e73756666696369656e742062616c616e6365000000006000830152602082019050919050565b60006122d260268361277a565b91507f4f776e61626c653a206e6577206f776e657220697320746865207a65726f206160008301527f64647265737300000000000000000000000000000000000000000000000000006020830152604082019050919050565b6000612338601c8361277a565b91507f436f7374206578646565647320746865204554482062616c616e6365000000006000830152602082019050919050565b6000612378601b8361277a565b91507f57616c6c65743a20546f6b656e20616c726561647920657869737400000000006000830152602082019050919050565b60006123b8601b8361277a565b91507f496e73756666696369656e7420746f6b656e7320746f2073656c6c00000000006000830152602082019050919050565b60006123f8601b8361277a565b91507f57616c6c65743a20746f6b656e20646f65736e277420657869737400000000006000830152602082019050919050565b600061243860208361277a565b91507f4f776e61626c653a2063616c6c6572206973206e6f7420746865206f776e65726000830152602082019050919050565b60c08201600082015161248160008501826124e6565b50602082015161249460208501826121cd565b5060408201516124a76040850182612267565b5060608201516124ba6060850182612249565b5060808201516124cd60808501826124e6565b5060a08201516124e060a08501826124e6565b50505050565b6124ef816128ca565b82525050565b6124fe816128ca565b82525050565b600060208201905061251960008301846121dc565b92915050565b600060608201905061253460008301866121dc565b61254160208301856121dc565b61254e60408301846124f5565b949350505050565b600060408201905061256b60008301856121dc565b61257860208301846124f5565b9392505050565b6000602082019050818103600083015261259981846121eb565b905092915050565b60006020820190506125b66000830184612258565b92915050565b60006040820190506125d16000830185612258565b6125de60208301846121dc565b9392505050565b600060208201905081810360008301526125fe81612285565b9050919050565b6000602082019050818103600083015261261e816122c5565b9050919050565b6000602082019050818103600083015261263e8161232b565b9050919050565b6000602082019050818103600083015261265e8161236b565b9050919050565b6000602082019050818103600083015261267e816123ab565b9050919050565b6000602082019050818103600083015261269e816123eb565b9050919050565b600060208201905081810360008301526126be8161242b565b9050919050565b60006020820190506126da60008301846124f5565b92915050565b600060c0820190506126f560008301896124f5565b61270260208301886121dc565b61270f6040830187612276565b61271c6060830186612258565b61272960808301856124f5565b61273660a08301846124f5565b979650505050505050565b6000819050602082019050919050565b600081519050919050565b6000602082019050919050565b600082825260208201905092915050565b600082825260208201905092915050565b6000612796826128ca565b91506127a1836128ca565b9250827fffffffffffffffffffffffffffffffffffffffffffffffffffffffffffffffff038211156127d6576127d5612910565b5b828201905092915050565b60006127ec826128ca565b91506127f7836128ca565b9250817fffffffffffffffffffffffffffffffffffffffffffffffffffffffffffffffff04831182151516156128305761282f612910565b5b828202905092915050565b6000612846826128ca565b9150612851836128ca565b92508282101561286457612863612910565b5b828203905092915050565b600061287a826128aa565b9050919050565b60008115159050919050565b6000819050919050565b60008190506128a58261296e565b919050565b600073ffffffffffffffffffffffffffffffffffffffff82169050919050565b6000819050919050565b60006128df82612897565b9050919050565b60006128f1826128ca565b9150600082141561290557612904612910565b5b600182039050919050565b7f4e487b7100000000000000000000000000000000000000000000000000000000600052601160045260246000fd5b7f4e487b7100000000000000000000000000000000000000000000000000000000600052602160045260246000fd5b6002811061297f5761297e61293f565b5b50565b61298b8161286f565b811461299657600080fd5b50565b6129a281612881565b81146129ad57600080fd5b50565b6129b98161288d565b81146129c457600080fd5b50565b600281106129d457600080fd5b50565b6129e0816128ca565b81146129eb57600080fd5b5056fea2646970667358221220a44826e35babf0fc0c120d6cacbfa6dc04319a29aca8353ec3716d3432af67cc64736f6c63430008000033",
  "immutableReferences": {},
  "source": "// SPDX-License-Identifier: MIT\r\npragma solidity >=0.4.22 <0.9.0;\r\nimport './wallet.sol';\r\nimport '../node_modules/@openzeppelin/contracts/utils/Counters.sol';\r\n\r\ncontract Dex is Wallet{\r\n\r\n    using Counters for Counters.Counter; \r\n    \r\n    enum Side{\r\n        BUY,\r\n        SELL\r\n    }\r\n\r\n   struct Order{\r\n       uint id;\r\n       address trader;\r\n       Side side;\r\n       bytes32 ticker;\r\n       uint amount;\r\n       uint price;\r\n   }\r\n   \r\n   mapping(bytes32 => mapping(uint => Order[]))public orderBook;\r\n   Counters.Counter private _counterIds;\r\n\r\n   //getOrderBook(bytes32(\"LINK\"),Side.BUY)\r\n   function getOrderBook(bytes32 _ticker,Side side) public view returns(Order[] memory){\r\n       return orderBook[_ticker][uint(side)];\r\n   }\r\n \r\n   function createLimitOrder(Side side,bytes32 ticker,uint amount, uint price) public{\r\n      if(side == Side.BUY){\r\n          require(balances[msg.sender][\"ETH\"] >= amount * price,'Cost exdeeds the ETH balance');\r\n      }\r\n      else if(side == Side.SELL){\r\n          require(balances[msg.sender][ticker] >= amount,'Insufficient tokens to sell');\r\n      }\r\n\r\n        uint256 newCounterId = _counterIds.current();\r\n        Order[] storage orders = orderBook[ticker][uint(side)];\r\n        orders.push(Order(newCounterId,msg.sender,side,ticker,amount,price));\r\n         _counterIds.increment();\r\n        \r\n        uint j =  orders.length > 0 ? orders.length-1 : 0;\r\n         if(side == Side.BUY){\r\n            for( ; j > 0 ; j--){\r\n                 if(orders[j].price > orders[j-1].price){\r\n                    Order memory temp = orders[j];\r\n                    orders[j] = orders[j-1];\r\n                    orders[j-1] = temp;\r\n                }\r\n            }\r\n         }\r\n         else if(side == Side.SELL){\r\n            for(; j > 0 ; j--){\r\n                 if(orders[j].price < orders[j-1].price){\r\n                    Order memory temp = orders[j];\r\n                    orders[j] = orders[j-1];\r\n                    orders[j-1] = temp;\r\n                }\r\n            }\r\n         }\r\n   }\r\n\r\n    \r\n}",
  "sourcePath": "D:/BlockChain/Ethereum-201/DEX/contracts/dex.sol",
  "compiler": {
    "name": "solc",
    "version": "0.8.0+commit.c7dfd78e.Emscripten.clang"
  },
  "schemaVersion": "3.4.1",
  "updatedAt": "2021-07-07T17:04:16.390Z",
  "networkType": "ethereum",
  "devdoc": {
    "kind": "dev",
    "methods": {
      "owner()": {
        "details": "Returns the address of the current owner."
      },
      "renounceOwnership()": {
        "details": "Leaves the contract without owner. It will not be possible to call `onlyOwner` functions anymore. Can only be called by the current owner. NOTE: Renouncing ownership will leave the contract without an owner, thereby removing any functionality that is only available to the owner."
      },
      "transferOwnership(address)": {
        "details": "Transfers ownership of the contract to a new account (`newOwner`). Can only be called by the current owner."
      }
    },
    "version": 1
  },
  "userdoc": {
    "kind": "user",
    "methods": {},
    "version": 1
  }
}