{
  "contractName": "Dex",
  "abi": [
    {
      "anonymous": false,
      "inputs": [
        {
          "indexed": true,
          "internalType": "address",
          "name": "previousOwner",
          "type": "address"
        },
        {
          "indexed": true,
          "internalType": "address",
          "name": "newOwner",
          "type": "address"
        }
      ],
      "name": "OwnershipTransferred",
      "type": "event"
    },
    {
      "inputs": [
        {
          "internalType": "bytes32",
          "name": "_ticker",
          "type": "bytes32"
        },
        {
          "internalType": "address",
          "name": "_tickerAddress",
          "type": "address"
        }
      ],
      "name": "addToken",
      "outputs": [],
      "stateMutability": "nonpayable",
      "type": "function"
    },
    {
      "inputs": [
        {
          "internalType": "address",
          "name": "",
          "type": "address"
        },
        {
          "internalType": "bytes32",
          "name": "",
          "type": "bytes32"
        }
      ],
      "name": "balances",
      "outputs": [
        {
          "internalType": "uint256",
          "name": "",
          "type": "uint256"
        }
      ],
      "stateMutability": "view",
      "type": "function",
      "constant": true
    },
    {
      "inputs": [
        {
          "internalType": "uint256",
          "name": "_amount",
          "type": "uint256"
        },
        {
          "internalType": "bytes32",
          "name": "_ticker",
          "type": "bytes32"
        }
      ],
      "name": "deposit",
      "outputs": [],
      "stateMutability": "nonpayable",
      "type": "function"
    },
    {
      "inputs": [],
      "name": "depositETH",
      "outputs": [],
      "stateMutability": "payable",
      "type": "function",
      "payable": true
    },
    {
      "inputs": [
        {
          "internalType": "bytes32",
          "name": "",
          "type": "bytes32"
        },
        {
          "internalType": "uint256",
          "name": "",
          "type": "uint256"
        },
        {
          "internalType": "uint256",
          "name": "",
          "type": "uint256"
        }
      ],
      "name": "orderBook",
      "outputs": [
        {
          "internalType": "uint256",
          "name": "id",
          "type": "uint256"
        },
        {
          "internalType": "address",
          "name": "trader",
          "type": "address"
        },
        {
          "internalType": "enum Dex.Side",
          "name": "side",
          "type": "uint8"
        },
        {
          "internalType": "bytes32",
          "name": "ticker",
          "type": "bytes32"
        },
        {
          "internalType": "uint256",
          "name": "amount",
          "type": "uint256"
        },
        {
          "internalType": "uint256",
          "name": "price",
          "type": "uint256"
        },
        {
          "internalType": "bool",
          "name": "filled",
          "type": "bool"
        }
      ],
      "stateMutability": "view",
      "type": "function",
      "constant": true
    },
    {
      "inputs": [],
      "name": "owner",
      "outputs": [
        {
          "internalType": "address",
          "name": "",
          "type": "address"
        }
      ],
      "stateMutability": "view",
      "type": "function",
      "constant": true
    },
    {
      "inputs": [],
      "name": "renounceOwnership",
      "outputs": [],
      "stateMutability": "nonpayable",
      "type": "function"
    },
    {
      "inputs": [
        {
          "internalType": "uint256",
          "name": "",
          "type": "uint256"
        }
      ],
      "name": "tickerList",
      "outputs": [
        {
          "internalType": "bytes32",
          "name": "",
          "type": "bytes32"
        }
      ],
      "stateMutability": "view",
      "type": "function",
      "constant": true
    },
    {
      "inputs": [
        {
          "internalType": "bytes32",
          "name": "",
          "type": "bytes32"
        }
      ],
      "name": "tokenMapping",
      "outputs": [
        {
          "internalType": "bytes32",
          "name": "ticker",
          "type": "bytes32"
        },
        {
          "internalType": "address",
          "name": "tokenAddress",
          "type": "address"
        }
      ],
      "stateMutability": "view",
      "type": "function",
      "constant": true
    },
    {
      "inputs": [
        {
          "internalType": "address",
          "name": "newOwner",
          "type": "address"
        }
      ],
      "name": "transferOwnership",
      "outputs": [],
      "stateMutability": "nonpayable",
      "type": "function"
    },
    {
      "inputs": [
        {
          "internalType": "uint256",
          "name": "_amount",
          "type": "uint256"
        },
        {
          "internalType": "bytes32",
          "name": "_ticker",
          "type": "bytes32"
        }
      ],
      "name": "withdraw",
      "outputs": [],
      "stateMutability": "nonpayable",
      "type": "function"
    },
    {
      "inputs": [
        {
          "internalType": "bytes32",
          "name": "ticker",
          "type": "bytes32"
        }
      ],
      "name": "getBalance",
      "outputs": [
        {
          "internalType": "uint256",
          "name": "",
          "type": "uint256"
        }
      ],
      "stateMutability": "view",
      "type": "function",
      "constant": true
    },
    {
      "inputs": [
        {
          "internalType": "bytes32",
          "name": "_ticker",
          "type": "bytes32"
        },
        {
          "internalType": "enum Dex.Side",
          "name": "side",
          "type": "uint8"
        }
      ],
      "name": "getOrderBook",
      "outputs": [
        {
          "components": [
            {
              "internalType": "uint256",
              "name": "id",
              "type": "uint256"
            },
            {
              "internalType": "address",
              "name": "trader",
              "type": "address"
            },
            {
              "internalType": "enum Dex.Side",
              "name": "side",
              "type": "uint8"
            },
            {
              "internalType": "bytes32",
              "name": "ticker",
              "type": "bytes32"
            },
            {
              "internalType": "uint256",
              "name": "amount",
              "type": "uint256"
            },
            {
              "internalType": "uint256",
              "name": "price",
              "type": "uint256"
            },
            {
              "internalType": "bool",
              "name": "filled",
              "type": "bool"
            }
          ],
          "internalType": "struct Dex.Order[]",
          "name": "",
          "type": "tuple[]"
        }
      ],
      "stateMutability": "view",
      "type": "function",
      "constant": true
    },
    {
      "inputs": [
        {
          "internalType": "enum Dex.Side",
          "name": "side",
          "type": "uint8"
        },
        {
          "internalType": "bytes32",
          "name": "ticker",
          "type": "bytes32"
        },
        {
          "internalType": "uint256",
          "name": "amount",
          "type": "uint256"
        },
        {
          "internalType": "uint256",
          "name": "price",
          "type": "uint256"
        }
      ],
      "name": "createLimitOrder",
      "outputs": [],
      "stateMutability": "nonpayable",
      "type": "function"
    },
    {
      "inputs": [
        {
          "internalType": "enum Dex.Side",
          "name": "side",
          "type": "uint8"
        },
        {
          "internalType": "bytes32",
          "name": "ticker",
          "type": "bytes32"
        },
        {
          "internalType": "uint256",
          "name": "amount",
          "type": "uint256"
        }
      ],
      "name": "createMarketOrder",
      "outputs": [],
      "stateMutability": "nonpayable",
      "type": "function"
    }
  ],
  "bytecode": "0x60806040523480156200001157600080fd5b5062000032620000266200003860201b60201c565b6200004060201b60201c565b62000104565b600033905090565b60008060009054906101000a900473ffffffffffffffffffffffffffffffffffffffff169050816000806101000a81548173ffffffffffffffffffffffffffffffffffffffff021916908373ffffffffffffffffffffffffffffffffffffffff1602179055508173ffffffffffffffffffffffffffffffffffffffff168173ffffffffffffffffffffffffffffffffffffffff167f8be0079c531659141344cd1fd0a4f28419497f9722a3daafe3b4186f6b6457e060405160405180910390a35050565b614bb480620001146000396000f3fe6080604052600436106100e85760003560e01c80639776aacf1161008a578063c9630cb011610059578063c9630cb01461030b578063cb3764a814610334578063f2fde38b14610371578063f6326fb31461039a576100e8565b80639776aacf1461025357806399ec2f1c1461027c578063a8d2021a146102a5578063ba58ea68146102ce576100e8565b80636f3b62f9116100c65780636f3b62f9146101ab578063715018a6146101d45780638da5cb5b146101eb5780638e73946114610216576100e8565b80630bb431b6146100ed5780631f14df6914610130578063667cb4ba1461016d575b600080fd5b3480156100f957600080fd5b50610114600480360381019061010f9190614048565b6103a4565b6040516101279796959493929190614819565b60405180910390f35b34801561013c57600080fd5b5061015760048036038101906101529190613f42565b61044a565b60405161016491906147fe565b60405180910390f35b34801561017957600080fd5b50610194600480360381019061018f9190613fa7565b61046f565b6040516101a29291906146b5565b60405180910390f35b3480156101b757600080fd5b506101d260048036038101906101cd91906140e6565b6104b3565b005b3480156101e057600080fd5b506101e96114ae565b005b3480156101f757600080fd5b50610200611536565b60405161020d91906145fd565b60405180910390f35b34801561022257600080fd5b5061023d60048036038101906102389190613fa7565b61155f565b60405161024a91906147fe565b60405180910390f35b34801561025f57600080fd5b5061027a60048036038101906102759190613fd0565b6115b9565b005b34801561028857600080fd5b506102a3600480360381019061029e9190614097565b611799565b005b3480156102b157600080fd5b506102cc60048036038101906102c7919061419b565b613516565b005b3480156102da57600080fd5b506102f560048036038101906102f0919061400c565b613780565b6040516103029190614678565b60405180910390f35b34801561031757600080fd5b50610332600480360381019061032d919061419b565b61395c565b005b34801561034057600080fd5b5061035b60048036038101906103569190614149565b613c06565b604051610368919061469a565b60405180910390f35b34801561037d57600080fd5b5061039860048036038101906103939190613f19565b613c2a565b005b6103a2613d22565b005b600460205282600052604060002060205281600052604060002081815481106103cc57600080fd5b906000526020600020906006020160009250925050508060000154908060010160009054906101000a900473ffffffffffffffffffffffffffffffffffffffff16908060010160149054906101000a900460ff16908060020154908060030154908060040154908060050160009054906101000a900460ff16905087565b6003602052816000526040600020602052806000526040600020600091509150505481565b60026020528060005260406000206000915090508060000154908060010160009054906101000a900473ffffffffffffffffffffffffffffffffffffffff16905082565b600060018111156104ed577f4e487b7100000000000000000000000000000000000000000000000000000000600052602160045260246000fd5b846001811115610526577f4e487b7100000000000000000000000000000000000000000000000000000000600052602160045260246000fd5b14156105ef5780826105389190614928565b600360003373ffffffffffffffffffffffffffffffffffffffff1673ffffffffffffffffffffffffffffffffffffffff16815260200190815260200160002060007f455448000000000000000000000000000000000000000000000000000000000081526020019081526020016000205410156105ea576040517f08c379a00000000000000000000000000000000000000000000000000000000081526004016105e19061471e565b60405180910390fd5b6106fc565b600180811115610628577f4e487b7100000000000000000000000000000000000000000000000000000000600052602160045260246000fd5b846001811115610661577f4e487b7100000000000000000000000000000000000000000000000000000000600052602160045260246000fd5b14156106fb5781600360003373ffffffffffffffffffffffffffffffffffffffff1673ffffffffffffffffffffffffffffffffffffffff16815260200190815260200160002060008581526020019081526020016000205410156106fa576040517f08c379a00000000000000000000000000000000000000000000000000000000081526004016106f19061477e565b60405180910390fd5b5b5b60006107086005613dab565b9050600060046000868152602001908152602001600020600087600181111561075a577f4e487b7100000000000000000000000000000000000000000000000000000000600052602160045260246000fd5b81526020019081526020016000209050806040518060e001604052808481526020013373ffffffffffffffffffffffffffffffffffffffff1681526020018860018111156107d1577f4e487b7100000000000000000000000000000000000000000000000000000000600052602160045260246000fd5b81526020018781526020018681526020018581526020016000151581525090806001815401808255809150506001900390600052602060002090600602016000909190919091506000820151816000015560208201518160010160006101000a81548173ffffffffffffffffffffffffffffffffffffffff021916908373ffffffffffffffffffffffffffffffffffffffff16021790555060408201518160010160146101000a81548160ff021916908360018111156108ba577f4e487b7100000000000000000000000000000000000000000000000000000000600052602160045260246000fd5b0217905550606082015181600201556080820151816003015560a0820151816004015560c08201518160050160006101000a81548160ff0219169083151502179055505050600080828054905011610913576000610925565b600182805490506109249190614982565b5b905060006001811115610961577f4e487b7100000000000000000000000000000000000000000000000000000000600052602160045260246000fd5b87600181111561099a577f4e487b7100000000000000000000000000000000000000000000000000000000600052602160045260246000fd5b1415610ee3575b6000811115610ede57816001826109b89190614982565b815481106109ef577f4e487b7100000000000000000000000000000000000000000000000000000000600052603260045260246000fd5b906000526020600020906006020160040154828281548110610a3a577f4e487b7100000000000000000000000000000000000000000000000000000000600052603260045260246000fd5b9060005260206000209060060201600401541115610ec6576000828281548110610a8d577f4e487b7100000000000000000000000000000000000000000000000000000000600052603260045260246000fd5b90600052602060002090600602016040518060e0016040529081600082015481526020016001820160009054906101000a900473ffffffffffffffffffffffffffffffffffffffff1673ffffffffffffffffffffffffffffffffffffffff1673ffffffffffffffffffffffffffffffffffffffff1681526020016001820160149054906101000a900460ff166001811115610b51577f4e487b7100000000000000000000000000000000000000000000000000000000600052602160045260246000fd5b6001811115610b89577f4e487b7100000000000000000000000000000000000000000000000000000000600052602160045260246000fd5b81526020016002820154815260200160038201548152602001600482015481526020016005820160009054906101000a900460ff161515151581525050905082600183610bd69190614982565b81548110610c0d577f4e487b7100000000000000000000000000000000000000000000000000000000600052603260045260246000fd5b9060005260206000209060060201838381548110610c54577f4e487b7100000000000000000000000000000000000000000000000000000000600052603260045260246000fd5b9060005260206000209060060201600082015481600001556001820160009054906101000a900473ffffffffffffffffffffffffffffffffffffffff168160010160006101000a81548173ffffffffffffffffffffffffffffffffffffffff021916908373ffffffffffffffffffffffffffffffffffffffff1602179055506001820160149054906101000a900460ff168160010160146101000a81548160ff02191690836001811115610d31577f4e487b7100000000000000000000000000000000000000000000000000000000600052602160045260246000fd5b02179055506002820154816002015560038201548160030155600482015481600401556005820160009054906101000a900460ff168160050160006101000a81548160ff0219169083151502179055509050508083600184610d939190614982565b81548110610dca577f4e487b7100000000000000000000000000000000000000000000000000000000600052603260045260246000fd5b90600052602060002090600602016000820151816000015560208201518160010160006101000a81548173ffffffffffffffffffffffffffffffffffffffff021916908373ffffffffffffffffffffffffffffffffffffffff16021790555060408201518160010160146101000a81548160ff02191690836001811115610e7a577f4e487b7100000000000000000000000000000000000000000000000000000000600052602160045260246000fd5b0217905550606082015181600201556080820151816003015560a0820151816004015560c08201518160050160006101000a81548160ff02191690831515021790555090505050610ecb565b610ede565b8080610ed690614a2d565b9150506109a1565b61149b565b600180811115610f1c577f4e487b7100000000000000000000000000000000000000000000000000000000600052602160045260246000fd5b876001811115610f55577f4e487b7100000000000000000000000000000000000000000000000000000000600052602160045260246000fd5b141561149a575b60008111156114995781600182610f739190614982565b81548110610faa577f4e487b7100000000000000000000000000000000000000000000000000000000600052603260045260246000fd5b906000526020600020906006020160040154828281548110610ff5577f4e487b7100000000000000000000000000000000000000000000000000000000600052603260045260246000fd5b9060005260206000209060060201600401541015611481576000828281548110611048577f4e487b7100000000000000000000000000000000000000000000000000000000600052603260045260246000fd5b90600052602060002090600602016040518060e0016040529081600082015481526020016001820160009054906101000a900473ffffffffffffffffffffffffffffffffffffffff1673ffffffffffffffffffffffffffffffffffffffff1673ffffffffffffffffffffffffffffffffffffffff1681526020016001820160149054906101000a900460ff16600181111561110c577f4e487b7100000000000000000000000000000000000000000000000000000000600052602160045260246000fd5b6001811115611144577f4e487b7100000000000000000000000000000000000000000000000000000000600052602160045260246000fd5b81526020016002820154815260200160038201548152602001600482015481526020016005820160009054906101000a900460ff1615151515815250509050826001836111919190614982565b815481106111c8577f4e487b7100000000000000000000000000000000000000000000000000000000600052603260045260246000fd5b906000526020600020906006020183838154811061120f577f4e487b7100000000000000000000000000000000000000000000000000000000600052603260045260246000fd5b9060005260206000209060060201600082015481600001556001820160009054906101000a900473ffffffffffffffffffffffffffffffffffffffff168160010160006101000a81548173ffffffffffffffffffffffffffffffffffffffff021916908373ffffffffffffffffffffffffffffffffffffffff1602179055506001820160149054906101000a900460ff168160010160146101000a81548160ff021916908360018111156112ec577f4e487b7100000000000000000000000000000000000000000000000000000000600052602160045260246000fd5b02179055506002820154816002015560038201548160030155600482015481600401556005820160009054906101000a900460ff168160050160006101000a81548160ff021916908315150217905550905050808360018461134e9190614982565b81548110611385577f4e487b7100000000000000000000000000000000000000000000000000000000600052603260045260246000fd5b90600052602060002090600602016000820151816000015560208201518160010160006101000a81548173ffffffffffffffffffffffffffffffffffffffff021916908373ffffffffffffffffffffffffffffffffffffffff16021790555060408201518160010160146101000a81548160ff02191690836001811115611435577f4e487b7100000000000000000000000000000000000000000000000000000000600052602160045260246000fd5b0217905550606082015181600201556080820151816003015560a0820151816004015560c08201518160050160006101000a81548160ff02191690831515021790555090505050611486565b611499565b808061149190614a2d565b915050610f5c565b5b5b6114a56005613db9565b50505050505050565b6114b6613dcf565b73ffffffffffffffffffffffffffffffffffffffff166114d4611536565b73ffffffffffffffffffffffffffffffffffffffff161461152a576040517f08c379a0000000000000000000000000000000000000000000000000000000008152600401611521906147be565b60405180910390fd5b6115346000613dd7565b565b60008060009054906101000a900473ffffffffffffffffffffffffffffffffffffffff16905090565b6000600360003373ffffffffffffffffffffffffffffffffffffffff1673ffffffffffffffffffffffffffffffffffffffff1681526020019081526020016000206000838152602001908152602001600020549050919050565b6115c1613dcf565b73ffffffffffffffffffffffffffffffffffffffff166115df611536565b73ffffffffffffffffffffffffffffffffffffffff1614611635576040517f08c379a000000000000000000000000000000000000000000000000000000000815260040161162c906147be565b60405180910390fd5b600073ffffffffffffffffffffffffffffffffffffffff166002600084815260200190815260200160002060010160009054906101000a900473ffffffffffffffffffffffffffffffffffffffff1673ffffffffffffffffffffffffffffffffffffffff16146116da576040517f08c379a00000000000000000000000000000000000000000000000000000000081526004016116d19061475e565b60405180910390fd5b60405180604001604052808381526020018273ffffffffffffffffffffffffffffffffffffffff16815250600260008481526020019081526020016000206000820151816000015560208201518160010160006101000a81548173ffffffffffffffffffffffffffffffffffffffff021916908373ffffffffffffffffffffffffffffffffffffffff16021790555090505060018290806001815401808255809150506001900390600052602060002001600090919091909150555050565b8260018111156117d2577f4e487b7100000000000000000000000000000000000000000000000000000000600052602160045260246000fd5b60018081111561180b577f4e487b7100000000000000000000000000000000000000000000000000000000600052602160045260246000fd5b14156125e757600360003373ffffffffffffffffffffffffffffffffffffffff1673ffffffffffffffffffffffffffffffffffffffff1681526020019081526020016000206000838152602001908152602001600020548111156118a4576040517f08c379a000000000000000000000000000000000000000000000000000000000815260040161189b906147de565b60405180910390fd5b600060046000848152602001908152602001600020600080815260200190815260200160002090505b6000821180156118e1575060008180549050115b156125e15780600081548110611920577f4e487b7100000000000000000000000000000000000000000000000000000000600052603260045260246000fd5b90600052602060002090600602016003015482106120bf57600081600081548110611974577f4e487b7100000000000000000000000000000000000000000000000000000000600052603260045260246000fd5b90600052602060002090600602016040518060e0016040529081600082015481526020016001820160009054906101000a900473ffffffffffffffffffffffffffffffffffffffff1673ffffffffffffffffffffffffffffffffffffffff1673ffffffffffffffffffffffffffffffffffffffff1681526020016001820160149054906101000a900460ff166001811115611a38577f4e487b7100000000000000000000000000000000000000000000000000000000600052602160045260246000fd5b6001811115611a70577f4e487b7100000000000000000000000000000000000000000000000000000000600052602160045260246000fd5b81526020016002820154815260200160038201548152602001600482015481526020016005820160009054906101000a900460ff1615151515815250509050806080015183611abf9190614982565b925080608001518160a00151611ad59190614928565b600360003373ffffffffffffffffffffffffffffffffffffffff1673ffffffffffffffffffffffffffffffffffffffff16815260200190815260200160002060007f455448000000000000000000000000000000000000000000000000000000000081526020019081526020016000206000828254611b5491906148d2565b925050819055508060800151600360003373ffffffffffffffffffffffffffffffffffffffff1673ffffffffffffffffffffffffffffffffffffffff16815260200190815260200160002060008681526020019081526020016000206000828254611bbf9190614982565b9250508190555080608001518160a00151611bda9190614928565b60036000836020015173ffffffffffffffffffffffffffffffffffffffff1673ffffffffffffffffffffffffffffffffffffffff16815260200190815260200160002060007f455448000000000000000000000000000000000000000000000000000000000081526020019081526020016000206000828254611c5d9190614982565b92505081905550806080015160036000836020015173ffffffffffffffffffffffffffffffffffffffff1673ffffffffffffffffffffffffffffffffffffffff16815260200190815260200160002060008681526020019081526020016000206000828254611ccc91906148d2565b9250508190555060008160800181815250508082600081548110611d19577f4e487b7100000000000000000000000000000000000000000000000000000000600052603260045260246000fd5b90600052602060002090600602016000820151816000015560208201518160010160006101000a81548173ffffffffffffffffffffffffffffffffffffffff021916908373ffffffffffffffffffffffffffffffffffffffff16021790555060408201518160010160146101000a81548160ff02191690836001811115611dc9577f4e487b7100000000000000000000000000000000000000000000000000000000600052602160045260246000fd5b0217905550606082015181600201556080820151816003015560a0820151816004015560c08201518160050160006101000a81548160ff02191690831515021790555090505060005b60018380549050611e239190614982565b811015611ff95782600182611e3891906148d2565b81548110611e6f577f4e487b7100000000000000000000000000000000000000000000000000000000600052603260045260246000fd5b9060005260206000209060060201838281548110611eb6577f4e487b7100000000000000000000000000000000000000000000000000000000600052603260045260246000fd5b9060005260206000209060060201600082015481600001556001820160009054906101000a900473ffffffffffffffffffffffffffffffffffffffff168160010160006101000a81548173ffffffffffffffffffffffffffffffffffffffff021916908373ffffffffffffffffffffffffffffffffffffffff1602179055506001820160149054906101000a900460ff168160010160146101000a81548160ff02191690836001811115611f93577f4e487b7100000000000000000000000000000000000000000000000000000000600052602160045260246000fd5b02179055506002820154816002015560038201548160030155600482015481600401556005820160009054906101000a900460ff168160050160006101000a81548160ff0219169083151502179055509050508080611ff190614a57565b915050611e12565b5081805480612031577f4e487b7100000000000000000000000000000000000000000000000000000000600052603160045260246000fd5b60019003818190600052602060002090600602016000808201600090556001820160006101000a81549073ffffffffffffffffffffffffffffffffffffffff02191690556001820160146101000a81549060ff02191690556002820160009055600382016000905560048201600090556005820160006101000a81549060ff021916905550509055506125dc565b806000815481106120f9577f4e487b7100000000000000000000000000000000000000000000000000000000600052603260045260246000fd5b9060005260206000209060060201600301548210156125db5760008160008154811061214e577f4e487b7100000000000000000000000000000000000000000000000000000000600052603260045260246000fd5b90600052602060002090600602016040518060e0016040529081600082015481526020016001820160009054906101000a900473ffffffffffffffffffffffffffffffffffffffff1673ffffffffffffffffffffffffffffffffffffffff1673ffffffffffffffffffffffffffffffffffffffff1681526020016001820160149054906101000a900460ff166001811115612212577f4e487b7100000000000000000000000000000000000000000000000000000000600052602160045260246000fd5b600181111561224a577f4e487b7100000000000000000000000000000000000000000000000000000000600052602160045260246000fd5b81526020016002820154815260200160038201548152602001600482015481526020016005820160009054906101000a900460ff1615151515815250509050828160800181815161229b9190614982565b91508181525050828160a001516122b29190614928565b600360003373ffffffffffffffffffffffffffffffffffffffff1673ffffffffffffffffffffffffffffffffffffffff16815260200190815260200160002060007f45544800000000000000000000000000000000000000000000000000000000008152602001908152602001600020600082825461233191906148d2565b9250508190555082600360003373ffffffffffffffffffffffffffffffffffffffff1673ffffffffffffffffffffffffffffffffffffffff168152602001908152602001600020600086815260200190815260200160002060008282546123989190614982565b92505081905550828160a001516123af9190614928565b60036000836020015173ffffffffffffffffffffffffffffffffffffffff1673ffffffffffffffffffffffffffffffffffffffff16815260200190815260200160002060007f4554480000000000000000000000000000000000000000000000000000000000815260200190815260200160002060008282546124329190614982565b925050819055508260036000836020015173ffffffffffffffffffffffffffffffffffffffff1673ffffffffffffffffffffffffffffffffffffffff1681526020019081526020016000206000868152602001908152602001600020600082825461249d91906148d2565b925050819055506000925080826000815481106124e3577f4e487b7100000000000000000000000000000000000000000000000000000000600052603260045260246000fd5b90600052602060002090600602016000820151816000015560208201518160010160006101000a81548173ffffffffffffffffffffffffffffffffffffffff021916908373ffffffffffffffffffffffffffffffffffffffff16021790555060408201518160010160146101000a81548160ff02191690836001811115612593577f4e487b7100000000000000000000000000000000000000000000000000000000600052602160045260246000fd5b0217905550606082015181600201556080820151816003015560a0820151816004015560c08201518160050160006101000a81548160ff021916908315150217905550905050505b5b6118cd565b50613511565b826001811115612620577f4e487b7100000000000000000000000000000000000000000000000000000000600052602160045260246000fd5b6000600181111561265a577f4e487b7100000000000000000000000000000000000000000000000000000000600052602160045260246000fd5b14156135105760006004600084815260200190815260200160002060006001815260200190815260200160002090505b60008211801561269e575060008180549050115b1561350e5760008181815481106126de577f4e487b7100000000000000000000000000000000000000000000000000000000600052603260045260246000fd5b906000526020600020906006020160030154828281548110612729577f4e487b7100000000000000000000000000000000000000000000000000000000600052603260045260246000fd5b9060005260206000209060060201600401546127459190614928565b600360003373ffffffffffffffffffffffffffffffffffffffff1673ffffffffffffffffffffffffffffffffffffffff16815260200190815260200160002060007f4554480000000000000000000000000000000000000000000000000000000000815260200190815260200160002054116127c057600080fd5b816000815481106127fa577f4e487b7100000000000000000000000000000000000000000000000000000000600052603260045260246000fd5b9060005260206000209060060201600301548310612d005760008260008154811061284e577f4e487b7100000000000000000000000000000000000000000000000000000000600052603260045260246000fd5b90600052602060002090600602016040518060e0016040529081600082015481526020016001820160009054906101000a900473ffffffffffffffffffffffffffffffffffffffff1673ffffffffffffffffffffffffffffffffffffffff1673ffffffffffffffffffffffffffffffffffffffff1681526020016001820160149054906101000a900460ff166001811115612912577f4e487b7100000000000000000000000000000000000000000000000000000000600052602160045260246000fd5b600181111561294a577f4e487b7100000000000000000000000000000000000000000000000000000000600052602160045260246000fd5b81526020016002820154815260200160038201548152602001600482015481526020016005820160009054906101000a900460ff16151515158152505090508060800151846129999190614982565b935060018160c00190151590811515815250508060800151600360003373ffffffffffffffffffffffffffffffffffffffff1673ffffffffffffffffffffffffffffffffffffffff16815260200190815260200160002060008781526020019081526020016000206000828254612a1091906148d2565b9250508190555080608001518160a00151612a2b9190614928565b600360003373ffffffffffffffffffffffffffffffffffffffff1673ffffffffffffffffffffffffffffffffffffffff16815260200190815260200160002060007f455448000000000000000000000000000000000000000000000000000000000081526020019081526020016000206000828254612aaa9190614982565b92505081905550806080015160036000836020015173ffffffffffffffffffffffffffffffffffffffff1673ffffffffffffffffffffffffffffffffffffffff16815260200190815260200160002060008781526020019081526020016000206000828254612b199190614982565b9250508190555080608001518160a00151612b349190614928565b60036000836020015173ffffffffffffffffffffffffffffffffffffffff1673ffffffffffffffffffffffffffffffffffffffff16815260200190815260200160002060007f455448000000000000000000000000000000000000000000000000000000000081526020019081526020016000206000828254612bb791906148d2565b9250508190555060008160800181815250508083600081548110612c04577f4e487b7100000000000000000000000000000000000000000000000000000000600052603260045260246000fd5b90600052602060002090600602016000820151816000015560208201518160010160006101000a81548173ffffffffffffffffffffffffffffffffffffffff021916908373ffffffffffffffffffffffffffffffffffffffff16021790555060408201518160010160146101000a81548160ff02191690836001811115612cb4577f4e487b7100000000000000000000000000000000000000000000000000000000600052602160045260246000fd5b0217905550606082015181600201556080820151816003015560a0820151816004015560c08201518160050160006101000a81548160ff0219169083151502179055509050505061321d565b81600081548110612d3a577f4e487b7100000000000000000000000000000000000000000000000000000000600052603260045260246000fd5b90600052602060002090600602016003015483101561321c57600082600081548110612d8f577f4e487b7100000000000000000000000000000000000000000000000000000000600052603260045260246000fd5b90600052602060002090600602016040518060e0016040529081600082015481526020016001820160009054906101000a900473ffffffffffffffffffffffffffffffffffffffff1673ffffffffffffffffffffffffffffffffffffffff1673ffffffffffffffffffffffffffffffffffffffff1681526020016001820160149054906101000a900460ff166001811115612e53577f4e487b7100000000000000000000000000000000000000000000000000000000600052602160045260246000fd5b6001811115612e8b577f4e487b7100000000000000000000000000000000000000000000000000000000600052602160045260246000fd5b81526020016002820154815260200160038201548152602001600482015481526020016005820160009054906101000a900460ff16151515158152505090508381608001818151612edc9190614982565b9150818152505083600360003373ffffffffffffffffffffffffffffffffffffffff1673ffffffffffffffffffffffffffffffffffffffff16815260200190815260200160002060008781526020019081526020016000206000828254612f4391906148d2565b92505081905550838160a00151612f5a9190614928565b600360003373ffffffffffffffffffffffffffffffffffffffff1673ffffffffffffffffffffffffffffffffffffffff16815260200190815260200160002060007f455448000000000000000000000000000000000000000000000000000000000081526020019081526020016000206000828254612fd99190614982565b925050819055508360036000836020015173ffffffffffffffffffffffffffffffffffffffff1673ffffffffffffffffffffffffffffffffffffffff168152602001908152602001600020600087815260200190815260200160002060008282546130449190614982565b92505081905550838160a0015161305b9190614928565b60036000836020015173ffffffffffffffffffffffffffffffffffffffff1673ffffffffffffffffffffffffffffffffffffffff16815260200190815260200160002060007f4554480000000000000000000000000000000000000000000000000000000000815260200190815260200160002060008282546130de91906148d2565b92505081905550600093508083600081548110613124577f4e487b7100000000000000000000000000000000000000000000000000000000600052603260045260246000fd5b90600052602060002090600602016000820151816000015560208201518160010160006101000a81548173ffffffffffffffffffffffffffffffffffffffff021916908373ffffffffffffffffffffffffffffffffffffffff16021790555060408201518160010160146101000a81548160ff021916908360018111156131d4577f4e487b7100000000000000000000000000000000000000000000000000000000600052602160045260246000fd5b0217905550606082015181600201556080820151816003015560a0820151816004015560c08201518160050160006101000a81548160ff021916908315150217905550905050505b5b818181548110613256577f4e487b7100000000000000000000000000000000000000000000000000000000600052603260045260246000fd5b906000526020600020906006020160050160009054906101000a900460ff16156134fa57816001838054905061328c9190614982565b815481106132c3577f4e487b7100000000000000000000000000000000000000000000000000000000600052603260045260246000fd5b906000526020600020906006020182828154811061330a577f4e487b7100000000000000000000000000000000000000000000000000000000600052603260045260246000fd5b9060005260206000209060060201600082015481600001556001820160009054906101000a900473ffffffffffffffffffffffffffffffffffffffff168160010160006101000a81548173ffffffffffffffffffffffffffffffffffffffff021916908373ffffffffffffffffffffffffffffffffffffffff1602179055506001820160149054906101000a900460ff168160010160146101000a81548160ff021916908360018111156133e7577f4e487b7100000000000000000000000000000000000000000000000000000000600052602160045260246000fd5b02179055506002820154816002015560038201548160030155600482015481600401556005820160009054906101000a900460ff168160050160006101000a81548160ff02191690831515021790555090505081805480613471577f4e487b7100000000000000000000000000000000000000000000000000000000600052603160045260246000fd5b60019003818190600052602060002090600602016000808201600090556001820160006101000a81549073ffffffffffffffffffffffffffffffffffffffff02191690556001820160146101000a81549060ff02191690556002820160009055600382016000905560048201600090556005820160006101000a81549060ff0219169055505090555b808061350590614a57565b9150505061268a565b505b5b505050565b80600073ffffffffffffffffffffffffffffffffffffffff166002600083815260200190815260200160002060010160009054906101000a900473ffffffffffffffffffffffffffffffffffffffff1673ffffffffffffffffffffffffffffffffffffffff1614156135bd576040517f08c379a00000000000000000000000000000000000000000000000000000000081526004016135b49061479e565b60405180910390fd5b82600360003373ffffffffffffffffffffffffffffffffffffffff1673ffffffffffffffffffffffffffffffffffffffff1681526020019081526020016000206000848152602001908152602001600020541015613650576040517f08c379a0000000000000000000000000000000000000000000000000000000008152600401613647906146de565b60405180910390fd5b82600360003373ffffffffffffffffffffffffffffffffffffffff1673ffffffffffffffffffffffffffffffffffffffff168152602001908152602001600020600084815260200190815260200160002060008282546136b09190614982565b925050819055506002600083815260200190815260200160002060010160009054906101000a900473ffffffffffffffffffffffffffffffffffffffff1673ffffffffffffffffffffffffffffffffffffffff1663a9059cbb33856040518363ffffffff1660e01b815260040161372892919061464f565b602060405180830381600087803b15801561374257600080fd5b505af1158015613756573d6000803e3d6000fd5b505050506040513d601f19601f8201168201806040525081019061377a9190613f7e565b50505050565b60606004600084815260200190815260200160002060008360018111156137d0577f4e487b7100000000000000000000000000000000000000000000000000000000600052602160045260246000fd5b8152602001908152602001600020805480602002602001604051908101604052809291908181526020016000905b8282101561395057838290600052602060002090600602016040518060e0016040529081600082015481526020016001820160009054906101000a900473ffffffffffffffffffffffffffffffffffffffff1673ffffffffffffffffffffffffffffffffffffffff1673ffffffffffffffffffffffffffffffffffffffff1681526020016001820160149054906101000a900460ff1660018111156138cc577f4e487b7100000000000000000000000000000000000000000000000000000000600052602160045260246000fd5b6001811115613904577f4e487b7100000000000000000000000000000000000000000000000000000000600052602160045260246000fd5b81526020016002820154815260200160038201548152602001600482015481526020016005820160009054906101000a900460ff161515151581525050815260200190600101906137fe565b50505050905092915050565b80600073ffffffffffffffffffffffffffffffffffffffff166002600083815260200190815260200160002060010160009054906101000a900473ffffffffffffffffffffffffffffffffffffffff1673ffffffffffffffffffffffffffffffffffffffff161415613a03576040517f08c379a00000000000000000000000000000000000000000000000000000000081526004016139fa9061479e565b60405180910390fd5b60006002600084815260200190815260200160002060010160009054906101000a900473ffffffffffffffffffffffffffffffffffffffff169050838173ffffffffffffffffffffffffffffffffffffffff166370a08231336040518263ffffffff1660e01b8152600401613a7891906145fd565b60206040518083038186803b158015613a9057600080fd5b505afa158015613aa4573d6000803e3d6000fd5b505050506040513d601f19601f82011682018060405250810190613ac89190614172565b1015613b09576040517f08c379a0000000000000000000000000000000000000000000000000000000008152600401613b009061473e565b60405180910390fd5b83600360003373ffffffffffffffffffffffffffffffffffffffff1673ffffffffffffffffffffffffffffffffffffffff16815260200190815260200160002060008581526020019081526020016000206000828254613b6991906148d2565b925050819055508073ffffffffffffffffffffffffffffffffffffffff166323b872dd3330876040518463ffffffff1660e01b8152600401613bad93929190614618565b602060405180830381600087803b158015613bc757600080fd5b505af1158015613bdb573d6000803e3d6000fd5b505050506040513d601f19601f82011682018060405250810190613bff9190613f7e565b5050505050565b60018181548110613c1657600080fd5b906000526020600020016000915090505481565b613c32613dcf565b73ffffffffffffffffffffffffffffffffffffffff16613c50611536565b73ffffffffffffffffffffffffffffffffffffffff1614613ca6576040517f08c379a0000000000000000000000000000000000000000000000000000000008152600401613c9d906147be565b60405180910390fd5b600073ffffffffffffffffffffffffffffffffffffffff168173ffffffffffffffffffffffffffffffffffffffff161415613d16576040517f08c379a0000000000000000000000000000000000000000000000000000000008152600401613d0d906146fe565b60405180910390fd5b613d1f81613dd7565b50565b34600360003373ffffffffffffffffffffffffffffffffffffffff1673ffffffffffffffffffffffffffffffffffffffff16815260200190815260200160002060007f455448000000000000000000000000000000000000000000000000000000000081526020019081526020016000206000828254613da291906148d2565b92505081905550565b600081600001549050919050565b6001816000016000828254019250508190555050565b600033905090565b60008060009054906101000a900473ffffffffffffffffffffffffffffffffffffffff169050816000806101000a81548173ffffffffffffffffffffffffffffffffffffffff021916908373ffffffffffffffffffffffffffffffffffffffff1602179055508173ffffffffffffffffffffffffffffffffffffffff168173ffffffffffffffffffffffffffffffffffffffff167f8be0079c531659141344cd1fd0a4f28419497f9722a3daafe3b4186f6b6457e060405160405180910390a35050565b600081359050613eaa81614b12565b92915050565b600081519050613ebf81614b29565b92915050565b600081359050613ed481614b40565b92915050565b600081359050613ee981614b57565b92915050565b600081359050613efe81614b67565b92915050565b600081519050613f1381614b67565b92915050565b600060208284031215613f2b57600080fd5b6000613f3984828501613e9b565b91505092915050565b60008060408385031215613f5557600080fd5b6000613f6385828601613e9b565b9250506020613f7485828601613ec5565b9150509250929050565b600060208284031215613f9057600080fd5b6000613f9e84828501613eb0565b91505092915050565b600060208284031215613fb957600080fd5b6000613fc784828501613ec5565b91505092915050565b60008060408385031215613fe357600080fd5b6000613ff185828601613ec5565b925050602061400285828601613e9b565b9150509250929050565b6000806040838503121561401f57600080fd5b600061402d85828601613ec5565b925050602061403e85828601613eda565b9150509250929050565b60008060006060848603121561405d57600080fd5b600061406b86828701613ec5565b935050602061407c86828701613eef565b925050604061408d86828701613eef565b9150509250925092565b6000806000606084860312156140ac57600080fd5b60006140ba86828701613eda565b93505060206140cb86828701613ec5565b92505060406140dc86828701613eef565b9150509250925092565b600080600080608085870312156140fc57600080fd5b600061410a87828801613eda565b945050602061411b87828801613ec5565b935050604061412c87828801613eef565b925050606061413d87828801613eef565b91505092959194509250565b60006020828403121561415b57600080fd5b600061416984828501613eef565b91505092915050565b60006020828403121561418457600080fd5b600061419284828501613f04565b91505092915050565b600080604083850312156141ae57600080fd5b60006141bc85828601613eef565b92505060206141cd85828601613ec5565b9150509250929050565b60006141e38383614551565b60e08301905092915050565b6141f8816149b6565b82525050565b614207816149b6565b82525050565b600061421882614898565b61422281856148b0565b935061422d83614888565b8060005b8381101561425e57815161424588826141d7565b9750614250836148a3565b925050600181019050614231565b5085935050505092915050565b614274816149c8565b82525050565b614283816149c8565b82525050565b614292816149d4565b82525050565b6142a1816149d4565b82525050565b6142b081614a1b565b82525050565b6142bf81614a1b565b82525050565b60006142d2601c836148c1565b91507f57616c6c65743a20696e73756666696369656e742062616c616e6365000000006000830152602082019050919050565b60006143126026836148c1565b91507f4f776e61626c653a206e6577206f776e657220697320746865207a65726f206160008301527f64647265737300000000000000000000000000000000000000000000000000006020830152604082019050919050565b6000614378601c836148c1565b91507f436f7374206578646565647320746865204554482062616c616e6365000000006000830152602082019050919050565b60006143b86026836148c1565b91507f4465706f7369742062616c616e636520696e20796f757220746f6b656e20636f60008301527f6e747261637400000000000000000000000000000000000000000000000000006020830152604082019050919050565b600061441e601b836148c1565b91507f57616c6c65743a20546f6b656e20616c726561647920657869737400000000006000830152602082019050919050565b600061445e601b836148c1565b91507f496e73756666696369656e7420746f6b656e7320746f2073656c6c00000000006000830152602082019050919050565b600061449e601b836148c1565b91507f57616c6c65743a20746f6b656e20646f65736e277420657869737400000000006000830152602082019050919050565b60006144de6020836148c1565b91507f4f776e61626c653a2063616c6c6572206973206e6f7420746865206f776e65726000830152602082019050919050565b600061451e601a836148c1565b91507f496e737566666963656e7420746f6b656e7320746f2073656c6c0000000000006000830152602082019050919050565b60e08201600082015161456760008501826145df565b50602082015161457a60208501826141ef565b50604082015161458d60408501826142a7565b5060608201516145a06060850182614289565b5060808201516145b360808501826145df565b5060a08201516145c660a08501826145df565b5060c08201516145d960c085018261426b565b50505050565b6145e881614a11565b82525050565b6145f781614a11565b82525050565b600060208201905061461260008301846141fe565b92915050565b600060608201905061462d60008301866141fe565b61463a60208301856141fe565b61464760408301846145ee565b949350505050565b600060408201905061466460008301856141fe565b61467160208301846145ee565b9392505050565b60006020820190508181036000830152614692818461420d565b905092915050565b60006020820190506146af6000830184614298565b92915050565b60006040820190506146ca6000830185614298565b6146d760208301846141fe565b9392505050565b600060208201905081810360008301526146f7816142c5565b9050919050565b6000602082019050818103600083015261471781614305565b9050919050565b600060208201905081810360008301526147378161436b565b9050919050565b60006020820190508181036000830152614757816143ab565b9050919050565b6000602082019050818103600083015261477781614411565b9050919050565b6000602082019050818103600083015261479781614451565b9050919050565b600060208201905081810360008301526147b781614491565b9050919050565b600060208201905081810360008301526147d7816144d1565b9050919050565b600060208201905081810360008301526147f781614511565b9050919050565b600060208201905061481360008301846145ee565b92915050565b600060e08201905061482e600083018a6145ee565b61483b60208301896141fe565b61484860408301886142b6565b6148556060830187614298565b61486260808301866145ee565b61486f60a08301856145ee565b61487c60c083018461427a565b98975050505050505050565b6000819050602082019050919050565b600081519050919050565b6000602082019050919050565b600082825260208201905092915050565b600082825260208201905092915050565b60006148dd82614a11565b91506148e883614a11565b9250827fffffffffffffffffffffffffffffffffffffffffffffffffffffffffffffffff0382111561491d5761491c614aa0565b5b828201905092915050565b600061493382614a11565b915061493e83614a11565b9250817fffffffffffffffffffffffffffffffffffffffffffffffffffffffffffffffff048311821515161561497757614976614aa0565b5b828202905092915050565b600061498d82614a11565b915061499883614a11565b9250828210156149ab576149aa614aa0565b5b828203905092915050565b60006149c1826149f1565b9050919050565b60008115159050919050565b6000819050919050565b60008190506149ec82614afe565b919050565b600073ffffffffffffffffffffffffffffffffffffffff82169050919050565b6000819050919050565b6000614a26826149de565b9050919050565b6000614a3882614a11565b91506000821415614a4c57614a4b614aa0565b5b600182039050919050565b6000614a6282614a11565b91507fffffffffffffffffffffffffffffffffffffffffffffffffffffffffffffffff821415614a9557614a94614aa0565b5b600182019050919050565b7f4e487b7100000000000000000000000000000000000000000000000000000000600052601160045260246000fd5b7f4e487b7100000000000000000000000000000000000000000000000000000000600052602160045260246000fd5b60028110614b0f57614b0e614acf565b5b50565b614b1b816149b6565b8114614b2657600080fd5b50565b614b32816149c8565b8114614b3d57600080fd5b50565b614b49816149d4565b8114614b5457600080fd5b50565b60028110614b6457600080fd5b50565b614b7081614a11565b8114614b7b57600080fd5b5056fea2646970667358221220dfd627a4bfb747f64ce5041af8a74ec8c286a1fea633f8f386e45b1f161f121964736f6c63430008000033",
  "immutableReferences": {},
  "source": "// SPDX-License-Identifier: MIT\r\npragma solidity >=0.4.22 <0.9.0;\r\nimport './wallet.sol';\r\nimport '../node_modules/@openzeppelin/contracts/utils/Counters.sol';\r\n\r\ncontract Dex is Wallet{\r\n\r\n    using Counters for Counters.Counter; \r\n    \r\n    enum Side{\r\n        BUY,\r\n        SELL\r\n    }\r\n\r\n   struct Order{\r\n       uint id;\r\n       address trader;\r\n       Side side;\r\n       bytes32 ticker;\r\n       uint amount;\r\n       uint price;\r\n       bool filled;\r\n   }\r\n\r\n   function getBalance(bytes32 ticker) public view returns (uint256) {\r\n       return balances[msg.sender][ticker];\r\n   }\r\n   \r\n   mapping(bytes32 => mapping(uint => Order[]))public orderBook;\r\n   Counters.Counter private _counterIds;\r\n\r\n   //getOrderBook(bytes32(\"LINK\"),Side.BUY)\r\n   function getOrderBook(bytes32 _ticker,Side side) public view returns(Order[] memory){\r\n       return orderBook[_ticker][uint(side)];\r\n   }\r\n \r\n   function createLimitOrder(Side side,bytes32 ticker,uint amount, uint price) public{\r\n      if(side == Side.BUY){\r\n          require(balances[msg.sender][\"ETH\"] >= amount * price,'Cost exdeeds the ETH balance');\r\n      }\r\n      else if(side == Side.SELL){\r\n          require(balances[msg.sender][ticker] >= amount,'Insufficient tokens to sell');\r\n      }\r\n\r\n        uint256 newCounterId = _counterIds.current();\r\n        Order[] storage orders = orderBook[ticker][uint(side)];\r\n        orders.push(Order(newCounterId,msg.sender,side,ticker,amount,price, false));\r\n         \r\n        uint j =  orders.length > 0 ? orders.length-1 : 0;\r\n         if(side == Side.BUY){\r\n            for( ; j > 0 ; j--){\r\n                 if(orders[j].price > orders[j-1].price){\r\n                    Order memory temp = orders[j];\r\n                    orders[j] = orders[j-1];\r\n                    orders[j-1] = temp;\r\n                }\r\n                else{\r\n                    break;\r\n                }\r\n            }\r\n         }\r\n         else if(side == Side.SELL){\r\n            for(; j > 0 ; j--){\r\n                 if(orders[j].price < orders[j-1].price){\r\n                    Order memory temp = orders[j];\r\n                    orders[j] = orders[j-1];\r\n                    orders[j-1] = temp;\r\n                }\r\n                else{\r\n                    break;\r\n                }\r\n            }\r\n         }\r\n         _counterIds.increment();\r\n   }\r\n\r\n   function createMarketOrder(Side side, bytes32 ticker, uint amount) public {\r\n    \r\n    if(Side.SELL == side){\r\n        require(amount <= balances[msg.sender][ticker],\"Insufficent tokens to sell\");\r\n        Order[] storage orders = orderBook[ticker][0]; //Buy order book\r\n\r\n        while(amount > 0 && orders.length > 0){\r\n         if(amount >= orders[0].amount){\r\n             //updating the amount for seller\r\n             Order memory temp = orders[0];\r\n             amount -= temp.amount; //left amount\r\n             balances[msg.sender][\"ETH\"] += (temp.price * temp.amount); // depositing eth in the account of seller\r\n             balances[msg.sender][ticker] -= temp.amount; // withdrawing tickers from the account of seller\r\n             balances[temp.trader][\"ETH\"] -= (temp.price * temp.amount); // reducing eth from the acccount of buyer\r\n             balances[temp.trader][ticker] += temp.amount; //adding ticker to the account of buyer\r\n             temp.amount = 0;\r\n             orders[0] = temp;\r\n             //deleting the fulfilled order from buy order book by shifting rows to the front\r\n             for(uint j = 0 ; j < orders.length-1 ; j++){\r\n                 orders[j] = orders[j+1];\r\n             }\r\n             orders.pop(); // removing the last duplicate row\r\n          \r\n         }\r\n         else if(amount < orders[0].amount){\r\n             Order memory temp = orders[0];\r\n             temp.amount -= amount;\r\n             balances[msg.sender][\"ETH\"] += temp.price * amount;\r\n             balances[msg.sender][ticker] -= amount; //should become 0\r\n             balances[temp.trader][\"ETH\"] -= temp.price * amount;\r\n             balances[temp.trader][ticker] += amount;\r\n             amount = 0;\r\n             orders[0] = temp;\r\n         }\r\n     }\r\n    }\r\n    else if(Side.BUY == side){\r\n        //make sure that buyer has enough eth to buy tokens\r\n         Order[] storage orders = orderBook[ticker][1]; //limit order sell book to get maximum selling price\r\n        // if(orders.length > 0){\r\n        //     require(balances[msg.sender][\"ETH\"] >= amount * orders[orders.length-1].price,\"Insufficient ETH to buy\");\r\n        // }\r\n        // else{\r\n        //     require(balances[msg.sender][\"ETH\"] >= 100000,\"Should keep your wallet heavy\");\r\n        // }\r\n        while(amount > 0 && orders.length > 0){\r\n            uint i = 0;\r\n            require(balances[msg.sender][\"ETH\"] > orders[i].price * orders[i].amount);\r\n \r\n            if(amount >= orders[0].amount){\r\n               Order memory temp = orders[0];\r\n               amount -= temp.amount;\r\n               temp.filled = true;\r\n               balances[msg.sender][ticker] += temp.amount ;//buyer\r\n               balances[msg.sender][\"ETH\"] -= temp.price * temp.amount; // buyer\r\n               balances[temp.trader][ticker] -= temp.amount; // seller\r\n               balances[temp.trader][\"ETH\"] += temp.price * temp.amount; //seller\r\n               temp.amount = 0;\r\n               orders[0] = temp;\r\n\r\n               //deleting the fulfilled order from sell order book by shifting rows to the front\r\n                // for(uint j = 0 ; j < orders.length-1 ; j++){\r\n                //     orders[j] = orders[j+1];\r\n                // }\r\n                // orders.pop(); // removing the last duplicate row\r\n            }\r\n            else if(amount < orders[0].amount){\r\n                Order memory temp = orders[0];\r\n                temp.amount -= amount;\r\n                balances[msg.sender][ticker] += amount ;//buyer\r\n                balances[msg.sender][\"ETH\"] -= temp.price * amount; // buyer\r\n                balances[temp.trader][ticker] -= amount; // seller\r\n                balances[temp.trader][\"ETH\"] += temp.price * amount; //seller\r\n                amount = 0;\r\n                orders[0] = temp;\r\n            }\r\n\r\n            if (orders[i].filled) {\r\n                orders[i] = orders[orders.length - 1];\r\n                orders.pop();\r\n            }\r\n            i++;\r\n        } \r\n    }\r\n\r\n   }\r\n\r\n    \r\n}",
  "sourcePath": "C:/Users/evanMcGraneTest/Documents/tanuDex/DEX-1/contracts/dex.sol",
  "compiler": {
    "name": "solc",
    "version": "0.8.0+commit.c7dfd78e.Emscripten.clang"
  },
  "schemaVersion": "3.3.4",
  "updatedAt": "2021-07-11T09:33:13.935Z",
  "networkType": "ethereum",
  "devdoc": {
    "kind": "dev",
    "methods": {
      "owner()": {
        "details": "Returns the address of the current owner."
      },
      "renounceOwnership()": {
        "details": "Leaves the contract without owner. It will not be possible to call `onlyOwner` functions anymore. Can only be called by the current owner. NOTE: Renouncing ownership will leave the contract without an owner, thereby removing any functionality that is only available to the owner."
      },
      "transferOwnership(address)": {
        "details": "Transfers ownership of the contract to a new account (`newOwner`). Can only be called by the current owner."
      }
    },
    "version": 1
  },
  "userdoc": {
    "kind": "user",
    "methods": {},
    "version": 1
  }
}