{
  "contractName": "Dex",
  "abi": [
    {
      "anonymous": false,
      "inputs": [
        {
          "indexed": true,
          "internalType": "address",
          "name": "previousOwner",
          "type": "address"
        },
        {
          "indexed": true,
          "internalType": "address",
          "name": "newOwner",
          "type": "address"
        }
      ],
      "name": "OwnershipTransferred",
      "type": "event"
    },
    {
      "inputs": [
        {
          "internalType": "bytes32",
          "name": "_ticker",
          "type": "bytes32"
        },
        {
          "internalType": "address",
          "name": "_tickerAddress",
          "type": "address"
        }
      ],
      "name": "addToken",
      "outputs": [],
      "stateMutability": "nonpayable",
      "type": "function"
    },
    {
      "inputs": [
        {
          "internalType": "address",
          "name": "",
          "type": "address"
        },
        {
          "internalType": "bytes32",
          "name": "",
          "type": "bytes32"
        }
      ],
      "name": "balances",
      "outputs": [
        {
          "internalType": "uint256",
          "name": "",
          "type": "uint256"
        }
      ],
      "stateMutability": "view",
      "type": "function"
    },
    {
      "inputs": [
        {
          "internalType": "uint256",
          "name": "_amount",
          "type": "uint256"
        },
        {
          "internalType": "bytes32",
          "name": "_ticker",
          "type": "bytes32"
        }
      ],
      "name": "deposit",
      "outputs": [],
      "stateMutability": "nonpayable",
      "type": "function"
    },
    {
      "inputs": [],
      "name": "depositETH",
      "outputs": [],
      "stateMutability": "payable",
      "type": "function"
    },
    {
      "inputs": [
        {
          "internalType": "bytes32",
          "name": "",
          "type": "bytes32"
        },
        {
          "internalType": "uint256",
          "name": "",
          "type": "uint256"
        },
        {
          "internalType": "uint256",
          "name": "",
          "type": "uint256"
        }
      ],
      "name": "marketOrderBook",
      "outputs": [
        {
          "internalType": "uint256",
          "name": "id",
          "type": "uint256"
        },
        {
          "internalType": "address",
          "name": "trader",
          "type": "address"
        },
        {
          "internalType": "enum Dex.Side",
          "name": "side",
          "type": "uint8"
        },
        {
          "internalType": "bytes32",
          "name": "ticker",
          "type": "bytes32"
        },
        {
          "internalType": "uint256",
          "name": "amount",
          "type": "uint256"
        },
        {
          "internalType": "bool",
          "name": "filled",
          "type": "bool"
        }
      ],
      "stateMutability": "view",
      "type": "function"
    },
    {
      "inputs": [
        {
          "internalType": "bytes32",
          "name": "",
          "type": "bytes32"
        },
        {
          "internalType": "uint256",
          "name": "",
          "type": "uint256"
        },
        {
          "internalType": "uint256",
          "name": "",
          "type": "uint256"
        }
      ],
      "name": "orderBook",
      "outputs": [
        {
          "internalType": "uint256",
          "name": "id",
          "type": "uint256"
        },
        {
          "internalType": "address",
          "name": "trader",
          "type": "address"
        },
        {
          "internalType": "enum Dex.Side",
          "name": "side",
          "type": "uint8"
        },
        {
          "internalType": "bytes32",
          "name": "ticker",
          "type": "bytes32"
        },
        {
          "internalType": "uint256",
          "name": "amount",
          "type": "uint256"
        },
        {
          "internalType": "uint256",
          "name": "price",
          "type": "uint256"
        },
        {
          "internalType": "bool",
          "name": "filled",
          "type": "bool"
        }
      ],
      "stateMutability": "view",
      "type": "function"
    },
    {
      "inputs": [],
      "name": "owner",
      "outputs": [
        {
          "internalType": "address",
          "name": "",
          "type": "address"
        }
      ],
      "stateMutability": "view",
      "type": "function"
    },
    {
      "inputs": [],
      "name": "renounceOwnership",
      "outputs": [],
      "stateMutability": "nonpayable",
      "type": "function"
    },
    {
      "inputs": [
        {
          "internalType": "uint256",
          "name": "",
          "type": "uint256"
        }
      ],
      "name": "tickerList",
      "outputs": [
        {
          "internalType": "bytes32",
          "name": "",
          "type": "bytes32"
        }
      ],
      "stateMutability": "view",
      "type": "function"
    },
    {
      "inputs": [
        {
          "internalType": "bytes32",
          "name": "",
          "type": "bytes32"
        }
      ],
      "name": "tokenMapping",
      "outputs": [
        {
          "internalType": "bytes32",
          "name": "ticker",
          "type": "bytes32"
        },
        {
          "internalType": "address",
          "name": "tokenAddress",
          "type": "address"
        }
      ],
      "stateMutability": "view",
      "type": "function"
    },
    {
      "inputs": [
        {
          "internalType": "address",
          "name": "newOwner",
          "type": "address"
        }
      ],
      "name": "transferOwnership",
      "outputs": [],
      "stateMutability": "nonpayable",
      "type": "function"
    },
    {
      "inputs": [
        {
          "internalType": "uint256",
          "name": "_amount",
          "type": "uint256"
        },
        {
          "internalType": "bytes32",
          "name": "_ticker",
          "type": "bytes32"
        }
      ],
      "name": "withdraw",
      "outputs": [],
      "stateMutability": "nonpayable",
      "type": "function"
    },
    {
      "inputs": [
        {
          "internalType": "bytes32",
          "name": "ticker",
          "type": "bytes32"
        }
      ],
      "name": "getBalance",
      "outputs": [
        {
          "internalType": "uint256",
          "name": "",
          "type": "uint256"
        }
      ],
      "stateMutability": "view",
      "type": "function"
    },
    {
      "inputs": [
        {
          "internalType": "bytes32",
          "name": "_ticker",
          "type": "bytes32"
        },
        {
          "internalType": "enum Dex.Side",
          "name": "side",
          "type": "uint8"
        }
      ],
      "name": "getOrderBook",
      "outputs": [
        {
          "components": [
            {
              "internalType": "uint256",
              "name": "id",
              "type": "uint256"
            },
            {
              "internalType": "address",
              "name": "trader",
              "type": "address"
            },
            {
              "internalType": "enum Dex.Side",
              "name": "side",
              "type": "uint8"
            },
            {
              "internalType": "bytes32",
              "name": "ticker",
              "type": "bytes32"
            },
            {
              "internalType": "uint256",
              "name": "amount",
              "type": "uint256"
            },
            {
              "internalType": "uint256",
              "name": "price",
              "type": "uint256"
            },
            {
              "internalType": "bool",
              "name": "filled",
              "type": "bool"
            }
          ],
          "internalType": "struct Dex.Order[]",
          "name": "",
          "type": "tuple[]"
        }
      ],
      "stateMutability": "view",
      "type": "function"
    },
    {
      "inputs": [
        {
          "internalType": "bytes32",
          "name": "_ticker",
          "type": "bytes32"
        },
        {
          "internalType": "enum Dex.Side",
          "name": "side",
          "type": "uint8"
        }
      ],
      "name": "getMarketOrderBook",
      "outputs": [
        {
          "components": [
            {
              "internalType": "uint256",
              "name": "id",
              "type": "uint256"
            },
            {
              "internalType": "address",
              "name": "trader",
              "type": "address"
            },
            {
              "internalType": "enum Dex.Side",
              "name": "side",
              "type": "uint8"
            },
            {
              "internalType": "bytes32",
              "name": "ticker",
              "type": "bytes32"
            },
            {
              "internalType": "uint256",
              "name": "amount",
              "type": "uint256"
            },
            {
              "internalType": "bool",
              "name": "filled",
              "type": "bool"
            }
          ],
          "internalType": "struct Dex.marketOrder[]",
          "name": "",
          "type": "tuple[]"
        }
      ],
      "stateMutability": "view",
      "type": "function"
    },
    {
      "inputs": [
        {
          "internalType": "enum Dex.Side",
          "name": "side",
          "type": "uint8"
        },
        {
          "internalType": "bytes32",
          "name": "ticker",
          "type": "bytes32"
        },
        {
          "internalType": "uint256",
          "name": "amount",
          "type": "uint256"
        },
        {
          "internalType": "uint256",
          "name": "price",
          "type": "uint256"
        }
      ],
      "name": "createLimitOrder",
      "outputs": [],
      "stateMutability": "nonpayable",
      "type": "function"
    },
    {
      "inputs": [
        {
          "internalType": "enum Dex.Side",
          "name": "side",
          "type": "uint8"
        },
        {
          "internalType": "bytes32",
          "name": "ticker",
          "type": "bytes32"
        },
        {
          "internalType": "uint256",
          "name": "amount",
          "type": "uint256"
        }
      ],
      "name": "createMarketOrder",
      "outputs": [],
      "stateMutability": "nonpayable",
      "type": "function"
    }
  ],
  "bytecode": "0x60806040523480156200001157600080fd5b5062000032620000266200003860201b60201c565b6200004060201b60201c565b62000104565b600033905090565b60008060009054906101000a900473ffffffffffffffffffffffffffffffffffffffff169050816000806101000a81548173ffffffffffffffffffffffffffffffffffffffff021916908373ffffffffffffffffffffffffffffffffffffffff1602179055508173ffffffffffffffffffffffffffffffffffffffff168173ffffffffffffffffffffffffffffffffffffffff167f8be0079c531659141344cd1fd0a4f28419497f9722a3daafe3b4186f6b6457e060405160405180910390a35050565b614e0480620001146000396000f3fe6080604052600436106100fe5760003560e01c80638e73946111610095578063ba58ea6811610064578063ba58ea6814610363578063c9630cb0146103a0578063cb3764a8146103c9578063f2fde38b14610406578063f6326fb31461042f576100fe565b80638e739461146102ab5780639776aacf146102e857806399ec2f1c14610311578063a8d2021a1461033a576100fe565b8063667cb4ba116100d1578063667cb4ba146102025780636f3b62f914610240578063715018a6146102695780638da5cb5b14610280576100fe565b80630bb431b6146101035780631f14df691461014657806337b038391461018357806359fcdbd6146101c0575b600080fd5b34801561010f57600080fd5b5061012a6004803603810190610125919061408b565b610439565b60405161013d9796959493929190614a30565b60405180910390f35b34801561015257600080fd5b5061016d60048036038101906101689190613f85565b6104df565b60405161017a91906149b4565b60405180910390f35b34801561018f57600080fd5b506101aa60048036038101906101a5919061404f565b610504565b6040516101b7919061480e565b60405180910390f35b3480156101cc57600080fd5b506101e760048036038101906101e2919061408b565b6106d6565b6040516101f9969594939291906149cf565b60405180910390f35b34801561020e57600080fd5b5061022960048036038101906102249190613fea565b610776565b60405161023792919061484b565b60405180910390f35b34801561024c57600080fd5b5061026760048036038101906102629190614129565b6107ba565b005b34801561027557600080fd5b5061027e6117ec565b005b34801561028c57600080fd5b50610295611874565b6040516102a29190614771565b60405180910390f35b3480156102b757600080fd5b506102d260048036038101906102cd9190613fea565b61189d565b6040516102df91906149b4565b60405180910390f35b3480156102f457600080fd5b5061030f600480360381019061030a9190614013565b6118f7565b005b34801561031d57600080fd5b50610338600480360381019061033391906140da565b611ad7565b005b34801561034657600080fd5b50610361600480360381019061035c91906141de565b612088565b005b34801561036f57600080fd5b5061038a6004803603810190610385919061404f565b612307565b60405161039791906147ec565b60405180910390f35b3480156103ac57600080fd5b506103c760048036038101906103c291906141de565b6124e3565b005b3480156103d557600080fd5b506103f060048036038101906103eb919061418c565b6127a2565b6040516103fd9190614830565b60405180910390f35b34801561041257600080fd5b5061042d60048036038101906104289190613f5c565b6127c6565b005b6104376128be565b005b6004602052826000526040600020602052816000526040600020818154811061046157600080fd5b906000526020600020906006020160009250925050508060000154908060010160009054906101000a900473ffffffffffffffffffffffffffffffffffffffff16908060010160149054906101000a900460ff16908060020154908060030154908060040154908060050160009054906101000a900460ff16905087565b6003602052816000526040600020602052806000526040600020600091509150505481565b6060600560008481526020019081526020016000206000836001811115610554577f4e487b7100000000000000000000000000000000000000000000000000000000600052602160045260246000fd5b8152602001908152602001600020805480602002602001604051908101604052809291908181526020016000905b828210156106ca57838290600052602060002090600502016040518060c0016040529081600082015481526020016001820160009054906101000a900473ffffffffffffffffffffffffffffffffffffffff1673ffffffffffffffffffffffffffffffffffffffff1673ffffffffffffffffffffffffffffffffffffffff1681526020016001820160149054906101000a900460ff166001811115610650577f4e487b7100000000000000000000000000000000000000000000000000000000600052602160045260246000fd5b6001811115610688577f4e487b7100000000000000000000000000000000000000000000000000000000600052602160045260246000fd5b815260200160028201548152602001600382015481526020016004820160009054906101000a900460ff16151515158152505081526020019060010190610582565b50505050905092915050565b600560205282600052604060002060205281600052604060002081815481106106fe57600080fd5b906000526020600020906005020160009250925050508060000154908060010160009054906101000a900473ffffffffffffffffffffffffffffffffffffffff16908060010160149054906101000a900460ff16908060020154908060030154908060040160009054906101000a900460ff16905086565b60026020528060005260406000206000915090508060000154908060010160009054906101000a900473ffffffffffffffffffffffffffffffffffffffff16905082565b600060018111156107f4577f4e487b7100000000000000000000000000000000000000000000000000000000600052602160045260246000fd5b84600181111561082d577f4e487b7100000000000000000000000000000000000000000000000000000000600052602160045260246000fd5b14156108ae57808261083f9190614b78565b6108687f455448000000000000000000000000000000000000000000000000000000000061189d565b10156108a9576040517f08c379a00000000000000000000000000000000000000000000000000000000081526004016108a0906148d4565b60405180910390fd5b610973565b6001808111156108e7577f4e487b7100000000000000000000000000000000000000000000000000000000600052602160045260246000fd5b846001811115610920577f4e487b7100000000000000000000000000000000000000000000000000000000600052602160045260246000fd5b141561097257816109308461189d565b1015610971576040517f08c379a000000000000000000000000000000000000000000000000000000000815260040161096890614934565b60405180910390fd5b5b5b600061097f600661294e565b905060006004600086815260200190815260200160002060008760018111156109d1577f4e487b7100000000000000000000000000000000000000000000000000000000600052602160045260246000fd5b81526020019081526020016000209050806040518060e001604052808481526020013373ffffffffffffffffffffffffffffffffffffffff168152602001886001811115610a48577f4e487b7100000000000000000000000000000000000000000000000000000000600052602160045260246000fd5b81526020018781526020018681526020018581526020016000151581525090806001815401808255809150506001900390600052602060002090600602016000909190919091506000820151816000015560208201518160010160006101000a81548173ffffffffffffffffffffffffffffffffffffffff021916908373ffffffffffffffffffffffffffffffffffffffff16021790555060408201518160010160146101000a81548160ff02191690836001811115610b31577f4e487b7100000000000000000000000000000000000000000000000000000000600052602160045260246000fd5b0217905550606082015181600201556080820151816003015560a0820151816004015560c08201518160050160006101000a81548160ff0219169083151502179055505050600080828054905011610b8a576000610b9c565b60018280549050610b9b9190614bd2565b5b905060006001811115610bd8577f4e487b7100000000000000000000000000000000000000000000000000000000600052602160045260246000fd5b876001811115610c11577f4e487b7100000000000000000000000000000000000000000000000000000000600052602160045260246000fd5b14156111bf575b60008111156111555781600182610c2f9190614bd2565b81548110610c66577f4e487b7100000000000000000000000000000000000000000000000000000000600052603260045260246000fd5b906000526020600020906006020160040154828281548110610cb1577f4e487b7100000000000000000000000000000000000000000000000000000000600052603260045260246000fd5b906000526020600020906006020160040154111561113d576000828281548110610d04577f4e487b7100000000000000000000000000000000000000000000000000000000600052603260045260246000fd5b90600052602060002090600602016040518060e0016040529081600082015481526020016001820160009054906101000a900473ffffffffffffffffffffffffffffffffffffffff1673ffffffffffffffffffffffffffffffffffffffff1673ffffffffffffffffffffffffffffffffffffffff1681526020016001820160149054906101000a900460ff166001811115610dc8577f4e487b7100000000000000000000000000000000000000000000000000000000600052602160045260246000fd5b6001811115610e00577f4e487b7100000000000000000000000000000000000000000000000000000000600052602160045260246000fd5b81526020016002820154815260200160038201548152602001600482015481526020016005820160009054906101000a900460ff161515151581525050905082600183610e4d9190614bd2565b81548110610e84577f4e487b7100000000000000000000000000000000000000000000000000000000600052603260045260246000fd5b9060005260206000209060060201838381548110610ecb577f4e487b7100000000000000000000000000000000000000000000000000000000600052603260045260246000fd5b9060005260206000209060060201600082015481600001556001820160009054906101000a900473ffffffffffffffffffffffffffffffffffffffff168160010160006101000a81548173ffffffffffffffffffffffffffffffffffffffff021916908373ffffffffffffffffffffffffffffffffffffffff1602179055506001820160149054906101000a900460ff168160010160146101000a81548160ff02191690836001811115610fa8577f4e487b7100000000000000000000000000000000000000000000000000000000600052602160045260246000fd5b02179055506002820154816002015560038201548160030155600482015481600401556005820160009054906101000a900460ff168160050160006101000a81548160ff021916908315150217905550905050808360018461100a9190614bd2565b81548110611041577f4e487b7100000000000000000000000000000000000000000000000000000000600052603260045260246000fd5b90600052602060002090600602016000820151816000015560208201518160010160006101000a81548173ffffffffffffffffffffffffffffffffffffffff021916908373ffffffffffffffffffffffffffffffffffffffff16021790555060408201518160010160146101000a81548160ff021916908360018111156110f1577f4e487b7100000000000000000000000000000000000000000000000000000000600052602160045260246000fd5b0217905550606082015181600201556080820151816003015560a0820151816004015560c08201518160050160006101000a81548160ff02191690831515021790555090505050611142565b611155565b808061114d90614c7d565b915050610c18565b6000600560008881526020019081526020016000206000600181526020019081526020016000208054905011156111ba576111b98260056000898152602001908152602001600020600060018152602001908152602001600020886001600061295c565b5b6117d9565b6001808111156111f8577f4e487b7100000000000000000000000000000000000000000000000000000000600052602160045260246000fd5b876001811115611231577f4e487b7100000000000000000000000000000000000000000000000000000000600052602160045260246000fd5b14156117d8575b6000811115611775578160018261124f9190614bd2565b81548110611286577f4e487b7100000000000000000000000000000000000000000000000000000000600052603260045260246000fd5b9060005260206000209060060201600401548282815481106112d1577f4e487b7100000000000000000000000000000000000000000000000000000000600052603260045260246000fd5b906000526020600020906006020160040154101561175d576000828281548110611324577f4e487b7100000000000000000000000000000000000000000000000000000000600052603260045260246000fd5b90600052602060002090600602016040518060e0016040529081600082015481526020016001820160009054906101000a900473ffffffffffffffffffffffffffffffffffffffff1673ffffffffffffffffffffffffffffffffffffffff1673ffffffffffffffffffffffffffffffffffffffff1681526020016001820160149054906101000a900460ff1660018111156113e8577f4e487b7100000000000000000000000000000000000000000000000000000000600052602160045260246000fd5b6001811115611420577f4e487b7100000000000000000000000000000000000000000000000000000000600052602160045260246000fd5b81526020016002820154815260200160038201548152602001600482015481526020016005820160009054906101000a900460ff16151515158152505090508260018361146d9190614bd2565b815481106114a4577f4e487b7100000000000000000000000000000000000000000000000000000000600052603260045260246000fd5b90600052602060002090600602018383815481106114eb577f4e487b7100000000000000000000000000000000000000000000000000000000600052603260045260246000fd5b9060005260206000209060060201600082015481600001556001820160009054906101000a900473ffffffffffffffffffffffffffffffffffffffff168160010160006101000a81548173ffffffffffffffffffffffffffffffffffffffff021916908373ffffffffffffffffffffffffffffffffffffffff1602179055506001820160149054906101000a900460ff168160010160146101000a81548160ff021916908360018111156115c8577f4e487b7100000000000000000000000000000000000000000000000000000000600052602160045260246000fd5b02179055506002820154816002015560038201548160030155600482015481600401556005820160009054906101000a900460ff168160050160006101000a81548160ff021916908315150217905550905050808360018461162a9190614bd2565b81548110611661577f4e487b7100000000000000000000000000000000000000000000000000000000600052603260045260246000fd5b90600052602060002090600602016000820151816000015560208201518160010160006101000a81548173ffffffffffffffffffffffffffffffffffffffff021916908373ffffffffffffffffffffffffffffffffffffffff16021790555060408201518160010160146101000a81548160ff02191690836001811115611711577f4e487b7100000000000000000000000000000000000000000000000000000000600052602160045260246000fd5b0217905550606082015181600201556080820151816003015560a0820151816004015560c08201518160050160006101000a81548160ff02191690831515021790555090505050611762565b611775565b808061176d90614c7d565b915050611238565b60006005600088815260200190815260200160002060008081526020019081526020016000208054905011156117d7576117d6826005600089815260200190815260200160002060008081526020019081526020016000208860008061295c565b5b5b5b6117e360066135f0565b50505050505050565b6117f4613606565b73ffffffffffffffffffffffffffffffffffffffff16611812611874565b73ffffffffffffffffffffffffffffffffffffffff1614611868576040517f08c379a000000000000000000000000000000000000000000000000000000000815260040161185f90614974565b60405180910390fd5b611872600061360e565b565b60008060009054906101000a900473ffffffffffffffffffffffffffffffffffffffff16905090565b6000600360003373ffffffffffffffffffffffffffffffffffffffff1673ffffffffffffffffffffffffffffffffffffffff1681526020019081526020016000206000838152602001908152602001600020549050919050565b6118ff613606565b73ffffffffffffffffffffffffffffffffffffffff1661191d611874565b73ffffffffffffffffffffffffffffffffffffffff1614611973576040517f08c379a000000000000000000000000000000000000000000000000000000000815260040161196a90614974565b60405180910390fd5b600073ffffffffffffffffffffffffffffffffffffffff166002600084815260200190815260200160002060010160009054906101000a900473ffffffffffffffffffffffffffffffffffffffff1673ffffffffffffffffffffffffffffffffffffffff1614611a18576040517f08c379a0000000000000000000000000000000000000000000000000000000008152600401611a0f90614914565b60405180910390fd5b60405180604001604052808381526020018273ffffffffffffffffffffffffffffffffffffffff16815250600260008481526020019081526020016000206000820151816000015560208201518160010160006101000a81548173ffffffffffffffffffffffffffffffffffffffff021916908373ffffffffffffffffffffffffffffffffffffffff16021790555090505060018290806001815401808255809150506001900390600052602060002001600090919091909150555050565b826001811115611b10577f4e487b7100000000000000000000000000000000000000000000000000000000600052602160045260246000fd5b600180811115611b49577f4e487b7100000000000000000000000000000000000000000000000000000000600052602160045260246000fd5b1415611db057611b588261189d565b811115611b9a576040517f08c379a0000000000000000000000000000000000000000000000000000000008152600401611b9190614994565b60405180910390fd5b6000611ba6600761294e565b9050600060056000858152602001908152602001600020600060018152602001908152602001600020905060006004600086815260200190815260200160002060008081526020019081526020016000209050600081805490501415611d9a57816040518060c001604052808581526020013373ffffffffffffffffffffffffffffffffffffffff168152602001886001811115611c6d577f4e487b7100000000000000000000000000000000000000000000000000000000600052602160045260246000fd5b81526020018781526020018681526020016000151581525090806001815401808255809150506001900390600052602060002090600502016000909190919091506000820151816000015560208201518160010160006101000a81548173ffffffffffffffffffffffffffffffffffffffff021916908373ffffffffffffffffffffffffffffffffffffffff16021790555060408201518160010160146101000a81548160ff02191690836001811115611d50577f4e487b7100000000000000000000000000000000000000000000000000000000600052602160045260246000fd5b0217905550606082015181600201556080820151816003015560a08201518160040160006101000a81548160ff0219169083151502179055505050611d9560076135f0565b611da8565b611da7818387898861295c565b5b505050612083565b826001811115611de9577f4e487b7100000000000000000000000000000000000000000000000000000000600052602160045260246000fd5b60006001811115611e23577f4e487b7100000000000000000000000000000000000000000000000000000000600052602160045260246000fd5b1415612082576000611e35600761294e565b905060006005600085815260200190815260200160002060008081526020019081526020016000209050600060046000868152602001908152602001600020600060018152602001908152602001600020905060008180549050141561202957816040518060c001604052808581526020013373ffffffffffffffffffffffffffffffffffffffff168152602001886001811115611efc577f4e487b7100000000000000000000000000000000000000000000000000000000600052602160045260246000fd5b81526020018781526020018681526020016000151581525090806001815401808255809150506001900390600052602060002090600502016000909190919091506000820151816000015560208201518160010160006101000a81548173ffffffffffffffffffffffffffffffffffffffff021916908373ffffffffffffffffffffffffffffffffffffffff16021790555060408201518160010160146101000a81548160ff02191690836001811115611fdf577f4e487b7100000000000000000000000000000000000000000000000000000000600052602160045260246000fd5b0217905550606082015181600201556080820151816003015560a08201518160040160006101000a81548160ff021916908315150217905550505061202460076135f0565b61207e565b61207d6004600087815260200190815260200160002060006001815260200190815260200160002060056000888152602001908152602001600020600080815260200190815260200160002087898861295c565b5b5050505b5b505050565b80600073ffffffffffffffffffffffffffffffffffffffff166002600083815260200190815260200160002060010160009054906101000a900473ffffffffffffffffffffffffffffffffffffffff1673ffffffffffffffffffffffffffffffffffffffff16141561212f576040517f08c379a000000000000000000000000000000000000000000000000000000000815260040161212690614954565b60405180910390fd5b826003600061213c613606565b73ffffffffffffffffffffffffffffffffffffffff1673ffffffffffffffffffffffffffffffffffffffff16815260200190815260200160002060008481526020019081526020016000205410156121c9576040517f08c379a00000000000000000000000000000000000000000000000000000000081526004016121c090614894565b60405180910390fd5b82600360006121d6613606565b73ffffffffffffffffffffffffffffffffffffffff1673ffffffffffffffffffffffffffffffffffffffff168152602001908152602001600020600084815260200190815260200160002060008282546122309190614bd2565b925050819055506002600083815260200190815260200160002060010160009054906101000a900473ffffffffffffffffffffffffffffffffffffffff1673ffffffffffffffffffffffffffffffffffffffff1663a9059cbb612291613606565b856040518363ffffffff1660e01b81526004016122af9291906147c3565b602060405180830381600087803b1580156122c957600080fd5b505af11580156122dd573d6000803e3d6000fd5b505050506040513d601f19601f820116820180604052508101906123019190613fc1565b50505050565b6060600460008481526020019081526020016000206000836001811115612357577f4e487b7100000000000000000000000000000000000000000000000000000000600052602160045260246000fd5b8152602001908152602001600020805480602002602001604051908101604052809291908181526020016000905b828210156124d757838290600052602060002090600602016040518060e0016040529081600082015481526020016001820160009054906101000a900473ffffffffffffffffffffffffffffffffffffffff1673ffffffffffffffffffffffffffffffffffffffff1673ffffffffffffffffffffffffffffffffffffffff1681526020016001820160149054906101000a900460ff166001811115612453577f4e487b7100000000000000000000000000000000000000000000000000000000600052602160045260246000fd5b600181111561248b577f4e487b7100000000000000000000000000000000000000000000000000000000600052602160045260246000fd5b81526020016002820154815260200160038201548152602001600482015481526020016005820160009054906101000a900460ff16151515158152505081526020019060010190612385565b50505050905092915050565b80600073ffffffffffffffffffffffffffffffffffffffff166002600083815260200190815260200160002060010160009054906101000a900473ffffffffffffffffffffffffffffffffffffffff1673ffffffffffffffffffffffffffffffffffffffff16141561258a576040517f08c379a000000000000000000000000000000000000000000000000000000000815260040161258190614954565b60405180910390fd5b60006002600084815260200190815260200160002060010160009054906101000a900473ffffffffffffffffffffffffffffffffffffffff169050838173ffffffffffffffffffffffffffffffffffffffff166370a082316125ea613606565b6040518263ffffffff1660e01b81526004016126069190614771565b60206040518083038186803b15801561261e57600080fd5b505afa158015612632573d6000803e3d6000fd5b505050506040513d601f19601f8201168201806040525081019061265691906141b5565b1015612697576040517f08c379a000000000000000000000000000000000000000000000000000000000815260040161268e906148f4565b60405180910390fd5b83600360006126a4613606565b73ffffffffffffffffffffffffffffffffffffffff1673ffffffffffffffffffffffffffffffffffffffff168152602001908152602001600020600085815260200190815260200160002060008282546126fe9190614b22565b925050819055508073ffffffffffffffffffffffffffffffffffffffff166323b872dd612729613606565b30876040518463ffffffff1660e01b81526004016127499392919061478c565b602060405180830381600087803b15801561276357600080fd5b505af1158015612777573d6000803e3d6000fd5b505050506040513d601f19601f8201168201806040525081019061279b9190613fc1565b5050505050565b600181815481106127b257600080fd5b906000526020600020016000915090505481565b6127ce613606565b73ffffffffffffffffffffffffffffffffffffffff166127ec611874565b73ffffffffffffffffffffffffffffffffffffffff1614612842576040517f08c379a000000000000000000000000000000000000000000000000000000000815260040161283990614974565b60405180910390fd5b600073ffffffffffffffffffffffffffffffffffffffff168173ffffffffffffffffffffffffffffffffffffffff1614156128b2576040517f08c379a00000000000000000000000000000000000000000000000000000000081526004016128a9906148b4565b60405180910390fd5b6128bb8161360e565b50565b34600360006128cb613606565b73ffffffffffffffffffffffffffffffffffffffff1673ffffffffffffffffffffffffffffffffffffffff16815260200190815260200160002060007f4554480000000000000000000000000000000000000000000000000000000000815260200190815260200160002060008282546129459190614b22565b92505081905550565b600081600001549050919050565b5b60008580549050118015612980575060008480549050118061297f5750600081115b5b156133cc5760008060009050600086805490501115612a5a57856000815481106129d3577f4e487b7100000000000000000000000000000000000000000000000000000000600052603260045260246000fd5b906000526020600020906005020160010160009054906101000a900473ffffffffffffffffffffffffffffffffffffffff16915085600081548110612a41577f4e487b7100000000000000000000000000000000000000000000000000000000600052603260045260246000fd5b9060005260206000209060050201600301549250612a5e565b3391505b60006001811115612a98577f4e487b7100000000000000000000000000000000000000000000000000000000600052602160045260246000fd5b846001811115612ad1577f4e487b7100000000000000000000000000000000000000000000000000000000600052602160045260246000fd5b1415612c2b5786600081548110612b11577f4e487b7100000000000000000000000000000000000000000000000000000000600052603260045260246000fd5b90600052602060002090600602016003015487600081548110612b5d577f4e487b7100000000000000000000000000000000000000000000000000000000600052603260045260246000fd5b906000526020600020906006020160040154612b799190614b78565b600360008473ffffffffffffffffffffffffffffffffffffffff1673ffffffffffffffffffffffffffffffffffffffff16815260200190815260200160002060007f455448000000000000000000000000000000000000000000000000000000000081526020019081526020016000205411612c2a576040517f08c379a0000000000000000000000000000000000000000000000000000000008152600401612c2190614874565b60405180910390fd5b5b86600081548110612c65577f4e487b7100000000000000000000000000000000000000000000000000000000600052603260045260246000fd5b9060005260206000209060060201600301548310612dde5786600081548110612cb7577f4e487b7100000000000000000000000000000000000000000000000000000000600052603260045260246000fd5b90600052602060002090600602016003015483612cd49190614bd2565b9250600187600081548110612d12577f4e487b7100000000000000000000000000000000000000000000000000000000600052603260045260246000fd5b906000526020600020906006020160050160006101000a81548160ff02191690831515021790555086600081548110612d74577f4e487b7100000000000000000000000000000000000000000000000000000000600052603260045260246000fd5b9060005260206000209060060201600301549050600087600081548110612dc4577f4e487b7100000000000000000000000000000000000000000000000000000000600052603260045260246000fd5b906000526020600020906006020160030181905550612e9c565b86600081548110612e18577f4e487b7100000000000000000000000000000000000000000000000000000000600052603260045260246000fd5b906000526020600020906006020160030154831015612e9b578287600081548110612e6c577f4e487b7100000000000000000000000000000000000000000000000000000000600052603260045260246000fd5b90600052602060002090600602016003016000828254612e8c9190614bd2565b92505081905550829050600092505b5b60006001811115612ed6577f4e487b7100000000000000000000000000000000000000000000000000000000600052602160045260246000fd5b846001811115612f0f577f4e487b7100000000000000000000000000000000000000000000000000000000600052602160045260246000fd5b1415613104576130ff87600081548110612f52577f4e487b7100000000000000000000000000000000000000000000000000000000600052603260045260246000fd5b90600052602060002090600602016040518060e0016040529081600082015481526020016001820160009054906101000a900473ffffffffffffffffffffffffffffffffffffffff1673ffffffffffffffffffffffffffffffffffffffff1673ffffffffffffffffffffffffffffffffffffffff1681526020016001820160149054906101000a900460ff166001811115613016577f4e487b7100000000000000000000000000000000000000000000000000000000600052602160045260246000fd5b600181111561304e577f4e487b7100000000000000000000000000000000000000000000000000000000600052602160045260246000fd5b81526020016002820154815260200160038201548152602001600482015481526020016005820160009054906101000a900460ff16151515158152505082896000815481106130c6577f4e487b7100000000000000000000000000000000000000000000000000000000600052603260045260246000fd5b906000526020600020906006020160010160009054906101000a900473ffffffffffffffffffffffffffffffffffffffff1685896136d2565b6132ef565b6132ee87600081548110613141577f4e487b7100000000000000000000000000000000000000000000000000000000600052603260045260246000fd5b90600052602060002090600602016040518060e0016040529081600082015481526020016001820160009054906101000a900473ffffffffffffffffffffffffffffffffffffffff1673ffffffffffffffffffffffffffffffffffffffff1673ffffffffffffffffffffffffffffffffffffffff1681526020016001820160149054906101000a900460ff166001811115613205577f4e487b7100000000000000000000000000000000000000000000000000000000600052602160045260246000fd5b600181111561323d577f4e487b7100000000000000000000000000000000000000000000000000000000600052602160045260246000fd5b81526020016002820154815260200160038201548152602001600482015481526020016005820160009054906101000a900460ff16151515158152505082848a6000815481106132b6577f4e487b7100000000000000000000000000000000000000000000000000000000600052603260045260246000fd5b906000526020600020906006020160010160009054906101000a900473ffffffffffffffffffffffffffffffffffffffff16896136d2565b5b6000868054905011156133bb578286600081548110613337577f4e487b7100000000000000000000000000000000000000000000000000000000600052603260045260246000fd5b90600052602060002090600502016003018190555060008314156133ba57600186600081548110613391577f4e487b7100000000000000000000000000000000000000000000000000000000600052603260045260246000fd5b906000526020600020906005020160040160006101000a81548160ff0219169083151502179055505b5b6133c587876138ca565b505061295d565b600084805490501480156133e05750600081115b80156133f0575060008580549050145b156135e957600560008481526020019081526020016000206000836001811115613443577f4e487b7100000000000000000000000000000000000000000000000000000000600052602160045260246000fd5b81526020019081526020016000206040518060c00160405280613466600761294e565b81526020013373ffffffffffffffffffffffffffffffffffffffff1681526020018460018111156134c0577f4e487b7100000000000000000000000000000000000000000000000000000000600052602160045260246000fd5b81526020018581526020018381526020016000151581525090806001815401808255809150506001900390600052602060002090600502016000909190919091506000820151816000015560208201518160010160006101000a81548173ffffffffffffffffffffffffffffffffffffffff021916908373ffffffffffffffffffffffffffffffffffffffff16021790555060408201518160010160146101000a81548160ff021916908360018111156135a3577f4e487b7100000000000000000000000000000000000000000000000000000000600052602160045260246000fd5b0217905550606082015181600201556080820151816003015560a08201518160040160006101000a81548160ff02191690831515021790555050506135e860076135f0565b5b5050505050565b6001816000016000828254019250508190555050565b600033905090565b60008060009054906101000a900473ffffffffffffffffffffffffffffffffffffffff169050816000806101000a81548173ffffffffffffffffffffffffffffffffffffffff021916908373ffffffffffffffffffffffffffffffffffffffff1602179055508173ffffffffffffffffffffffffffffffffffffffff168173ffffffffffffffffffffffffffffffffffffffff167f8be0079c531659141344cd1fd0a4f28419497f9722a3daafe3b4186f6b6457e060405160405180910390a35050565b6000848660a001516136e49190614b78565b905080600360008673ffffffffffffffffffffffffffffffffffffffff1673ffffffffffffffffffffffffffffffffffffffff16815260200190815260200160002060007f4554480000000000000000000000000000000000000000000000000000000000815260200190815260200160002060008282546137669190614b22565b9250508190555084600360008673ffffffffffffffffffffffffffffffffffffffff1673ffffffffffffffffffffffffffffffffffffffff168152602001908152602001600020600084815260200190815260200160002060008282546137cd9190614bd2565b9250508190555080600360008573ffffffffffffffffffffffffffffffffffffffff1673ffffffffffffffffffffffffffffffffffffffff16815260200190815260200160002060007f4554480000000000000000000000000000000000000000000000000000000000815260200190815260200160002060008282546138549190614bd2565b9250508190555084600360008573ffffffffffffffffffffffffffffffffffffffff1673ffffffffffffffffffffffffffffffffffffffff168152602001908152602001600020600084815260200190815260200160002060008282546138bb9190614b22565b92505081905550505050505050565b81600081548110613904577f4e487b7100000000000000000000000000000000000000000000000000000000600052603260045260246000fd5b906000526020600020906006020160050160009054906101000a900460ff1615613bd35760005b6001838054905061393c9190614bd2565b811015613b1257826001826139519190614b22565b81548110613988577f4e487b7100000000000000000000000000000000000000000000000000000000600052603260045260246000fd5b90600052602060002090600602018382815481106139cf577f4e487b7100000000000000000000000000000000000000000000000000000000600052603260045260246000fd5b9060005260206000209060060201600082015481600001556001820160009054906101000a900473ffffffffffffffffffffffffffffffffffffffff168160010160006101000a81548173ffffffffffffffffffffffffffffffffffffffff021916908373ffffffffffffffffffffffffffffffffffffffff1602179055506001820160149054906101000a900460ff168160010160146101000a81548160ff02191690836001811115613aac577f4e487b7100000000000000000000000000000000000000000000000000000000600052602160045260246000fd5b02179055506002820154816002015560038201548160030155600482015481600401556005820160009054906101000a900460ff168160050160006101000a81548160ff0219169083151502179055509050508080613b0a90614ca7565b91505061392b565b5081805480613b4a577f4e487b7100000000000000000000000000000000000000000000000000000000600052603160045260246000fd5b60019003818190600052602060002090600602016000808201600090556001820160006101000a81549073ffffffffffffffffffffffffffffffffffffffff02191690556001820160146101000a81549060ff02191690556002820160009055600382016000905560048201600090556005820160006101000a81549060ff0219169055505090555b60008180549050118015613c3c575080600081548110613c1c577f4e487b7100000000000000000000000000000000000000000000000000000000600052603260045260246000fd5b906000526020600020906005020160040160009054906101000a900460ff165b15613eda5760005b60018280549050613c559190614bd2565b811015613e215781600182613c6a9190614b22565b81548110613ca1577f4e487b7100000000000000000000000000000000000000000000000000000000600052603260045260246000fd5b9060005260206000209060050201828281548110613ce8577f4e487b7100000000000000000000000000000000000000000000000000000000600052603260045260246000fd5b9060005260206000209060050201600082015481600001556001820160009054906101000a900473ffffffffffffffffffffffffffffffffffffffff168160010160006101000a81548173ffffffffffffffffffffffffffffffffffffffff021916908373ffffffffffffffffffffffffffffffffffffffff1602179055506001820160149054906101000a900460ff168160010160146101000a81548160ff02191690836001811115613dc5577f4e487b7100000000000000000000000000000000000000000000000000000000600052602160045260246000fd5b021790555060028201548160020155600382015481600301556004820160009054906101000a900460ff168160040160006101000a81548160ff0219169083151502179055509050508080613e1990614ca7565b915050613c44565b5080805480613e59577f4e487b7100000000000000000000000000000000000000000000000000000000600052603160045260246000fd5b60019003818190600052602060002090600502016000808201600090556001820160006101000a81549073ffffffffffffffffffffffffffffffffffffffff02191690556001820160146101000a81549060ff0219169055600282016000905560038201600090556004820160006101000a81549060ff0219169055505090555b5050565b600081359050613eed81614d62565b92915050565b600081519050613f0281614d79565b92915050565b600081359050613f1781614d90565b92915050565b600081359050613f2c81614da7565b92915050565b600081359050613f4181614db7565b92915050565b600081519050613f5681614db7565b92915050565b600060208284031215613f6e57600080fd5b6000613f7c84828501613ede565b91505092915050565b60008060408385031215613f9857600080fd5b6000613fa685828601613ede565b9250506020613fb785828601613f08565b9150509250929050565b600060208284031215613fd357600080fd5b6000613fe184828501613ef3565b91505092915050565b600060208284031215613ffc57600080fd5b600061400a84828501613f08565b91505092915050565b6000806040838503121561402657600080fd5b600061403485828601613f08565b925050602061404585828601613ede565b9150509250929050565b6000806040838503121561406257600080fd5b600061407085828601613f08565b925050602061408185828601613f1d565b9150509250929050565b6000806000606084860312156140a057600080fd5b60006140ae86828701613f08565b93505060206140bf86828701613f32565b92505060406140d086828701613f32565b9150509250925092565b6000806000606084860312156140ef57600080fd5b60006140fd86828701613f1d565b935050602061410e86828701613f08565b925050604061411f86828701613f32565b9150509250925092565b6000806000806080858703121561413f57600080fd5b600061414d87828801613f1d565b945050602061415e87828801613f08565b935050604061416f87828801613f32565b925050606061418087828801613f32565b91505092959194509250565b60006020828403121561419e57600080fd5b60006141ac84828501613f32565b91505092915050565b6000602082840312156141c757600080fd5b60006141d584828501613f47565b91505092915050565b600080604083850312156141f157600080fd5b60006141ff85828601613f32565b925050602061421085828601613f08565b9150509250929050565b6000614226838361464a565b60e08301905092915050565b600061423e83836146d8565b60c08301905092915050565b61425381614c06565b82525050565b61426281614c06565b82525050565b600061427382614abf565b61427d8185614aef565b935061428883614a9f565b8060005b838110156142b95781516142a0888261421a565b97506142ab83614ad5565b92505060018101905061428c565b5085935050505092915050565b60006142d182614aca565b6142db8185614b00565b93506142e683614aaf565b8060005b838110156143175781516142fe8882614232565b975061430983614ae2565b9250506001810190506142ea565b5085935050505092915050565b61432d81614c18565b82525050565b61433c81614c18565b82525050565b61434b81614c24565b82525050565b61435a81614c24565b82525050565b61436981614c6b565b82525050565b61437881614c6b565b82525050565b600061438b601083614b11565b91507f496e73756666696369656e7420455448000000000000000000000000000000006000830152602082019050919050565b60006143cb601c83614b11565b91507f57616c6c65743a20696e73756666696369656e742062616c616e6365000000006000830152602082019050919050565b600061440b602683614b11565b91507f4f776e61626c653a206e6577206f776e657220697320746865207a65726f206160008301527f64647265737300000000000000000000000000000000000000000000000000006020830152604082019050919050565b6000614471601c83614b11565b91507f436f7374206578646565647320746865204554482062616c616e6365000000006000830152602082019050919050565b60006144b1602683614b11565b91507f4465706f7369742062616c616e636520696e20796f757220746f6b656e20636f60008301527f6e747261637400000000000000000000000000000000000000000000000000006020830152604082019050919050565b6000614517601b83614b11565b91507f57616c6c65743a20546f6b656e20616c726561647920657869737400000000006000830152602082019050919050565b6000614557601b83614b11565b91507f496e73756666696369656e7420746f6b656e7320746f2073656c6c00000000006000830152602082019050919050565b6000614597601b83614b11565b91507f57616c6c65743a20746f6b656e20646f65736e277420657869737400000000006000830152602082019050919050565b60006145d7602083614b11565b91507f4f776e61626c653a2063616c6c6572206973206e6f7420746865206f776e65726000830152602082019050919050565b6000614617601a83614b11565b91507f496e737566666963656e7420746f6b656e7320746f2073656c6c0000000000006000830152602082019050919050565b60e0820160008201516146606000850182614753565b506020820151614673602085018261424a565b5060408201516146866040850182614360565b5060608201516146996060850182614342565b5060808201516146ac6080850182614753565b5060a08201516146bf60a0850182614753565b5060c08201516146d260c0850182614324565b50505050565b60c0820160008201516146ee6000850182614753565b506020820151614701602085018261424a565b5060408201516147146040850182614360565b5060608201516147276060850182614342565b50608082015161473a6080850182614753565b5060a082015161474d60a0850182614324565b50505050565b61475c81614c61565b82525050565b61476b81614c61565b82525050565b60006020820190506147866000830184614259565b92915050565b60006060820190506147a16000830186614259565b6147ae6020830185614259565b6147bb6040830184614762565b949350505050565b60006040820190506147d86000830185614259565b6147e56020830184614762565b9392505050565b600060208201905081810360008301526148068184614268565b905092915050565b6000602082019050818103600083015261482881846142c6565b905092915050565b60006020820190506148456000830184614351565b92915050565b60006040820190506148606000830185614351565b61486d6020830184614259565b9392505050565b6000602082019050818103600083015261488d8161437e565b9050919050565b600060208201905081810360008301526148ad816143be565b9050919050565b600060208201905081810360008301526148cd816143fe565b9050919050565b600060208201905081810360008301526148ed81614464565b9050919050565b6000602082019050818103600083015261490d816144a4565b9050919050565b6000602082019050818103600083015261492d8161450a565b9050919050565b6000602082019050818103600083015261494d8161454a565b9050919050565b6000602082019050818103600083015261496d8161458a565b9050919050565b6000602082019050818103600083015261498d816145ca565b9050919050565b600060208201905081810360008301526149ad8161460a565b9050919050565b60006020820190506149c96000830184614762565b92915050565b600060c0820190506149e46000830189614762565b6149f16020830188614259565b6149fe604083018761436f565b614a0b6060830186614351565b614a186080830185614762565b614a2560a0830184614333565b979650505050505050565b600060e082019050614a45600083018a614762565b614a526020830189614259565b614a5f604083018861436f565b614a6c6060830187614351565b614a796080830186614762565b614a8660a0830185614762565b614a9360c0830184614333565b98975050505050505050565b6000819050602082019050919050565b6000819050602082019050919050565b600081519050919050565b600081519050919050565b6000602082019050919050565b6000602082019050919050565b600082825260208201905092915050565b600082825260208201905092915050565b600082825260208201905092915050565b6000614b2d82614c61565b9150614b3883614c61565b9250827fffffffffffffffffffffffffffffffffffffffffffffffffffffffffffffffff03821115614b6d57614b6c614cf0565b5b828201905092915050565b6000614b8382614c61565b9150614b8e83614c61565b9250817fffffffffffffffffffffffffffffffffffffffffffffffffffffffffffffffff0483118215151615614bc757614bc6614cf0565b5b828202905092915050565b6000614bdd82614c61565b9150614be883614c61565b925082821015614bfb57614bfa614cf0565b5b828203905092915050565b6000614c1182614c41565b9050919050565b60008115159050919050565b6000819050919050565b6000819050614c3c82614d4e565b919050565b600073ffffffffffffffffffffffffffffffffffffffff82169050919050565b6000819050919050565b6000614c7682614c2e565b9050919050565b6000614c8882614c61565b91506000821415614c9c57614c9b614cf0565b5b600182039050919050565b6000614cb282614c61565b91507fffffffffffffffffffffffffffffffffffffffffffffffffffffffffffffffff821415614ce557614ce4614cf0565b5b600182019050919050565b7f4e487b7100000000000000000000000000000000000000000000000000000000600052601160045260246000fd5b7f4e487b7100000000000000000000000000000000000000000000000000000000600052602160045260246000fd5b60028110614d5f57614d5e614d1f565b5b50565b614d6b81614c06565b8114614d7657600080fd5b50565b614d8281614c18565b8114614d8d57600080fd5b50565b614d9981614c24565b8114614da457600080fd5b50565b60028110614db457600080fd5b50565b614dc081614c61565b8114614dcb57600080fd5b5056fea264697066735822122079ec4bdb8979d037181d2945d4ffe655609ddc36d96b937889658d0a2be76c3264736f6c63430008000033",
  "immutableReferences": {},
  "source": "// SPDX-License-Identifier: MIT\r\n\r\npragma solidity >=0.4.22 <0.9.0;\r\nimport '../contracts/wallet.sol';\r\nimport '@openzeppelin/contracts/utils/Counters.sol';\r\n\r\n\r\ncontract Dex is MyWallet{\r\n\r\n    using Counters for Counters.Counter; \r\n    \r\n    enum Side{\r\n        BUY,\r\n        SELL\r\n    }\r\n\r\n   struct Order{\r\n       uint id;\r\n       address trader;\r\n       Side side;\r\n       bytes32 ticker;\r\n       uint amount;\r\n       uint price;\r\n       bool filled;\r\n   }\r\n\r\n    struct marketOrder{\r\n       uint id;\r\n       address trader;\r\n       Side side;\r\n       bytes32 ticker;\r\n       uint amount;\r\n       bool filled;\r\n   }\r\n\r\n\r\n   mapping(bytes32 => mapping(uint => Order[]))public orderBook;\r\n   mapping(bytes32 => mapping(uint => marketOrder[]))public marketOrderBook;\r\n   Counters.Counter private _counterIds;\r\n   Counters.Counter private _marketIds;\r\n\r\n   function getBalance(bytes32 ticker) public view returns (uint256) {\r\n       return balances[msg.sender][ticker];\r\n   }\r\n  \r\n   function getOrderBook(bytes32 _ticker,Side side) public view returns(Order[] memory){\r\n       return orderBook[_ticker][uint(side)];\r\n   }\r\n\r\n   function getMarketOrderBook(bytes32 _ticker,Side side) public view returns(marketOrder[] memory){\r\n       return marketOrderBook[_ticker][uint(side)];\r\n   }\r\n \r\n   function createLimitOrder(Side side,bytes32 ticker,uint amount, uint price) public{\r\n        if(side == Side.BUY){\r\n            require(getBalance(\"ETH\") >= amount * price,'Cost exdeeds the ETH balance');\r\n        }\r\n        else if(side == Side.SELL){\r\n            require(getBalance(ticker) >= amount,'Insufficient tokens to sell');\r\n        }\r\n\r\n        uint256 newCounterId = _counterIds.current();\r\n        Order[] storage orders = orderBook[ticker][uint(side)];\r\n        orders.push(Order(newCounterId,msg.sender,side,ticker,amount,price, false));\r\n         \r\n        uint j =  orders.length > 0 ? orders.length-1 : 0;\r\n         if(side == Side.BUY){\r\n            for( ; j > 0 ; j--){\r\n                 if(orders[j].price > orders[j-1].price){\r\n                    Order memory temp = orders[j];\r\n                    orders[j] = orders[j-1];\r\n                    orders[j-1] = temp;\r\n                }\r\n                else{\r\n                    break;\r\n                }\r\n            }\r\n            if(marketOrderBook[ticker][1].length > 0){\r\n              settleOrder(orders, marketOrderBook[ticker][1], ticker, Side.SELL,0);\r\n            }\r\n            \r\n         }\r\n         else if(side == Side.SELL){\r\n            for(; j > 0 ; j--){\r\n                 if(orders[j].price < orders[j-1].price){\r\n                    Order memory temp = orders[j];\r\n                    orders[j] = orders[j-1];\r\n                    orders[j-1] = temp;\r\n                }\r\n                else{\r\n                    break;\r\n                }\r\n            }\r\n            if(marketOrderBook[ticker][0].length > 0){\r\n              settleOrder(orders, marketOrderBook[ticker][0], ticker, Side.BUY,0);\r\n            }\r\n            \r\n         }\r\n          _counterIds.increment();\r\n    }\r\n \r\n   \r\n   function createMarketOrder(Side side, bytes32 ticker, uint amount) public {\r\n    \r\n        if(Side.SELL == side){\r\n            require(amount <= getBalance(ticker),\"Insufficent tokens to sell\");\r\n        \r\n            uint newCounterId = _marketIds.current();\r\n            marketOrder[] storage marketOrders = marketOrderBook[ticker][1];\r\n            Order[] storage orders = orderBook[ticker][0];\r\n            if(orders.length == 0){\r\n              marketOrders.push(marketOrder(newCounterId,msg.sender,side,ticker,amount, false));\r\n              _marketIds.increment();\r\n            }\r\n            else{\r\n              settleOrder(orders, marketOrders, ticker, side,amount);\r\n            }\r\n            \r\n        }\r\n        else if(Side.BUY == side){\r\n            \r\n            uint newCounterId = _marketIds.current();\r\n            marketOrder[] storage marketOrders = marketOrderBook[ticker][0];\r\n            Order[] storage orders = orderBook[ticker][1]; \r\n            if(orders.length == 0){\r\n               marketOrders.push(marketOrder(newCounterId,msg.sender,side,ticker,amount, false));\r\n               _marketIds.increment();\r\n            }\r\n            else{\r\n              settleOrder(orderBook[ticker][1], marketOrderBook[ticker][0], ticker, side,amount);\r\n            }\r\n        }\r\n         \r\n   }\r\n\r\n   function settleOrder(Order[] storage orders, marketOrder[] storage marketOrders, bytes32 ticker, Side side,uint amount) private {\r\n            \r\n       while(orders.length > 0 && (marketOrders.length > 0 || amount > 0)){\r\n           address trader;\r\n           uint expectedAmount = 0;\r\n           if(marketOrders.length > 0){\r\n               trader = marketOrders[0].trader;\r\n               amount = marketOrders[0].amount;\r\n           }\r\n           else{\r\n               trader = msg.sender;\r\n           }\r\n           if (side == Side.BUY) {\r\n                require(balances[trader][\"ETH\"] > orders[0].price * orders[0].amount,\"Insufficient ETH\");\r\n            }\r\n           \r\n            if (amount >= orders[0].amount) {\r\n                amount -= orders[0].amount;\r\n                orders[0].filled = true;\r\n                expectedAmount = orders[0].amount;\r\n                orders[0].amount = 0;\r\n            }\r\n         \r\n            else if(amount < orders[0].amount){\r\n                orders[0].amount -= amount;\r\n                expectedAmount = amount;\r\n                amount = 0;\r\n            }\r\n            \r\n            if (side == Side.BUY) {\r\n                settleTrade(orders[0], expectedAmount, orders[0].trader, trader, ticker);\r\n            }\r\n            else {\r\n                settleTrade(orders[0], expectedAmount, trader, orders[0].trader, ticker);\r\n            }\r\n            \r\n            if(marketOrders.length > 0){\r\n                marketOrders[0].amount = amount;\r\n                if(amount == 0){\r\n                  marketOrders[0].filled = true;\r\n                }\r\n            }\r\n            deleteOrders(orders, marketOrders);\r\n        }\r\n        if(marketOrders.length == 0 && amount > 0 && orders.length == 0 ){\r\n           marketOrderBook[ticker][uint256(side)].push(marketOrder(_marketIds.current(),msg.sender,side,ticker,amount, false));\r\n           _marketIds.increment();\r\n        }\r\n    }\r\n\r\n   function deleteOrders(Order[] storage orders, marketOrder[] storage marketOrders) private {\r\n\r\n    if (orders[0].filled) {\r\n            \r\n        for (uint j = 0; j < orders.length-1; j++){\r\n            orders[j] = orders[j+1];\r\n        }    \r\n        orders.pop();\r\n    }\r\n\r\n    if(marketOrders.length > 0 && marketOrders[0].filled){\r\n       for (uint j = 0; j < marketOrders.length-1; j++){\r\n            marketOrders[j] = marketOrders[j+1];\r\n        }    \r\n            marketOrders.pop();\r\n    }\r\n   }\r\n\r\n   function settleTrade(Order memory temp, uint amt, address seller, address buyer,bytes32 _ticker) private{\r\n        uint cost = temp.price * amt;\r\n        balances[seller][\"ETH\"] += cost; \r\n        balances[seller][_ticker] -= amt; \r\n        balances[buyer][\"ETH\"] -= cost; \r\n        balances[buyer][_ticker] += amt; \r\n   }\r\n  \r\n}",
  "sourcePath": "D:/BlockChain/Ethereum-201/DEX/contracts/dex.sol",
  "compiler": {
    "name": "solc",
    "version": "0.8.0+commit.c7dfd78e.Emscripten.clang"
  },
  "schemaVersion": "3.4.1",
  "updatedAt": "2021-07-16T20:19:41.978Z",
  "devdoc": {
    "kind": "dev",
    "methods": {
      "owner()": {
        "details": "Returns the address of the current owner."
      },
      "renounceOwnership()": {
        "details": "Leaves the contract without owner. It will not be possible to call `onlyOwner` functions anymore. Can only be called by the current owner. NOTE: Renouncing ownership will leave the contract without an owner, thereby removing any functionality that is only available to the owner."
      },
      "transferOwnership(address)": {
        "details": "Transfers ownership of the contract to a new account (`newOwner`). Can only be called by the current owner."
      }
    },
    "version": 1
  },
  "userdoc": {
    "kind": "user",
    "methods": {},
    "version": 1
  }
}