{
  "contractName": "Dex",
  "abi": [
    {
      "anonymous": false,
      "inputs": [
        {
          "indexed": true,
          "internalType": "address",
          "name": "previousOwner",
          "type": "address"
        },
        {
          "indexed": true,
          "internalType": "address",
          "name": "newOwner",
          "type": "address"
        }
      ],
      "name": "OwnershipTransferred",
      "type": "event"
    },
    {
      "inputs": [
        {
          "internalType": "bytes32",
          "name": "_ticker",
          "type": "bytes32"
        },
        {
          "internalType": "address",
          "name": "_tickerAddress",
          "type": "address"
        }
      ],
      "name": "addToken",
      "outputs": [],
      "stateMutability": "nonpayable",
      "type": "function"
    },
    {
      "inputs": [
        {
          "internalType": "address",
          "name": "",
          "type": "address"
        },
        {
          "internalType": "bytes32",
          "name": "",
          "type": "bytes32"
        }
      ],
      "name": "balances",
      "outputs": [
        {
          "internalType": "uint256",
          "name": "",
          "type": "uint256"
        }
      ],
      "stateMutability": "view",
      "type": "function",
      "constant": true
    },
    {
      "inputs": [
        {
          "internalType": "uint256",
          "name": "_amount",
          "type": "uint256"
        },
        {
          "internalType": "bytes32",
          "name": "_ticker",
          "type": "bytes32"
        }
      ],
      "name": "deposit",
      "outputs": [],
      "stateMutability": "nonpayable",
      "type": "function"
    },
    {
      "inputs": [],
      "name": "depositETH",
      "outputs": [],
      "stateMutability": "payable",
      "type": "function",
      "payable": true
    },
    {
      "inputs": [
        {
          "internalType": "bytes32",
          "name": "",
          "type": "bytes32"
        },
        {
          "internalType": "uint256",
          "name": "",
          "type": "uint256"
        },
        {
          "internalType": "uint256",
          "name": "",
          "type": "uint256"
        }
      ],
      "name": "orderBook",
      "outputs": [
        {
          "internalType": "uint256",
          "name": "id",
          "type": "uint256"
        },
        {
          "internalType": "address",
          "name": "trader",
          "type": "address"
        },
        {
          "internalType": "enum Dex.Side",
          "name": "side",
          "type": "uint8"
        },
        {
          "internalType": "bytes32",
          "name": "ticker",
          "type": "bytes32"
        },
        {
          "internalType": "uint256",
          "name": "amount",
          "type": "uint256"
        },
        {
          "internalType": "uint256",
          "name": "price",
          "type": "uint256"
        }
      ],
      "stateMutability": "view",
      "type": "function",
      "constant": true
    },
    {
      "inputs": [],
      "name": "owner",
      "outputs": [
        {
          "internalType": "address",
          "name": "",
          "type": "address"
        }
      ],
      "stateMutability": "view",
      "type": "function",
      "constant": true
    },
    {
      "inputs": [],
      "name": "renounceOwnership",
      "outputs": [],
      "stateMutability": "nonpayable",
      "type": "function"
    },
    {
      "inputs": [
        {
          "internalType": "uint256",
          "name": "",
          "type": "uint256"
        }
      ],
      "name": "tickerList",
      "outputs": [
        {
          "internalType": "bytes32",
          "name": "",
          "type": "bytes32"
        }
      ],
      "stateMutability": "view",
      "type": "function",
      "constant": true
    },
    {
      "inputs": [
        {
          "internalType": "bytes32",
          "name": "",
          "type": "bytes32"
        }
      ],
      "name": "tokenMapping",
      "outputs": [
        {
          "internalType": "bytes32",
          "name": "ticker",
          "type": "bytes32"
        },
        {
          "internalType": "address",
          "name": "tokenAddress",
          "type": "address"
        }
      ],
      "stateMutability": "view",
      "type": "function",
      "constant": true
    },
    {
      "inputs": [
        {
          "internalType": "address",
          "name": "newOwner",
          "type": "address"
        }
      ],
      "name": "transferOwnership",
      "outputs": [],
      "stateMutability": "nonpayable",
      "type": "function"
    },
    {
      "inputs": [
        {
          "internalType": "uint256",
          "name": "_amount",
          "type": "uint256"
        },
        {
          "internalType": "bytes32",
          "name": "_ticker",
          "type": "bytes32"
        }
      ],
      "name": "withdraw",
      "outputs": [],
      "stateMutability": "nonpayable",
      "type": "function"
    },
    {
      "inputs": [
        {
          "internalType": "bytes32",
          "name": "_ticker",
          "type": "bytes32"
        },
        {
          "internalType": "enum Dex.Side",
          "name": "side",
          "type": "uint8"
        }
      ],
      "name": "getOrderBook",
      "outputs": [
        {
          "components": [
            {
              "internalType": "uint256",
              "name": "id",
              "type": "uint256"
            },
            {
              "internalType": "address",
              "name": "trader",
              "type": "address"
            },
            {
              "internalType": "enum Dex.Side",
              "name": "side",
              "type": "uint8"
            },
            {
              "internalType": "bytes32",
              "name": "ticker",
              "type": "bytes32"
            },
            {
              "internalType": "uint256",
              "name": "amount",
              "type": "uint256"
            },
            {
              "internalType": "uint256",
              "name": "price",
              "type": "uint256"
            }
          ],
          "internalType": "struct Dex.Order[]",
          "name": "",
          "type": "tuple[]"
        }
      ],
      "stateMutability": "view",
      "type": "function",
      "constant": true
    },
    {
      "inputs": [
        {
          "internalType": "enum Dex.Side",
          "name": "side",
          "type": "uint8"
        },
        {
          "internalType": "bytes32",
          "name": "ticker",
          "type": "bytes32"
        },
        {
          "internalType": "uint256",
          "name": "amount",
          "type": "uint256"
        },
        {
          "internalType": "uint256",
          "name": "price",
          "type": "uint256"
        }
      ],
      "name": "createLimitOrder",
      "outputs": [],
      "stateMutability": "nonpayable",
      "type": "function"
    },
    {
      "inputs": [
        {
          "internalType": "enum Dex.Side",
          "name": "side",
          "type": "uint8"
        },
        {
          "internalType": "bytes32",
          "name": "ticker",
          "type": "bytes32"
        },
        {
          "internalType": "uint256",
          "name": "amount",
          "type": "uint256"
        }
      ],
      "name": "createMarketOrder",
      "outputs": [],
      "stateMutability": "nonpayable",
      "type": "function"
    }
  ],
  "bytecode": "0x60806040523480156200001157600080fd5b5062000032620000266200003860201b60201c565b6200004060201b60201c565b62000104565b600033905090565b60008060009054906101000a900473ffffffffffffffffffffffffffffffffffffffff169050816000806101000a81548173ffffffffffffffffffffffffffffffffffffffff021916908373ffffffffffffffffffffffffffffffffffffffff1602179055508173ffffffffffffffffffffffffffffffffffffffff168173ffffffffffffffffffffffffffffffffffffffff167f8be0079c531659141344cd1fd0a4f28419497f9722a3daafe3b4186f6b6457e060405160405180910390a35050565b61497f80620001146000396000f3fe6080604052600436106100dd5760003560e01c806399ec2f1c1161007f578063c9630cb011610059578063c9630cb0146102c2578063cb3764a8146102eb578063f2fde38b14610328578063f6326fb314610351576100dd565b806399ec2f1c14610233578063a8d2021a1461025c578063ba58ea6814610285576100dd565b80636f3b62f9116100bb5780636f3b62f91461019f578063715018a6146101c85780638da5cb5b146101df5780639776aacf1461020a576100dd565b80630bb431b6146100e25780631f14df6914610124578063667cb4ba14610161575b600080fd5b3480156100ee57600080fd5b5061010960048036038101906101049190613d92565b61035b565b60405161011b969594939291906145f2565b60405180910390f35b34801561013057600080fd5b5061014b60048036038101906101469190613c8c565b6103ee565b60405161015891906145d7565b60405180910390f35b34801561016d57600080fd5b5061018860048036038101906101839190613cf1565b610413565b60405161019692919061444e565b60405180910390f35b3480156101ab57600080fd5b506101c660048036038101906101c19190613e30565b610457565b005b3480156101d457600080fd5b506101dd611359565b005b3480156101eb57600080fd5b506101f46113e1565b6040516102019190614396565b60405180910390f35b34801561021657600080fd5b50610231600480360381019061022c9190613d1a565b61140a565b005b34801561023f57600080fd5b5061025a60048036038101906102559190613de1565b6115ea565b005b34801561026857600080fd5b50610283600480360381019061027e9190613ee5565b61327b565b005b34801561029157600080fd5b506102ac60048036038101906102a79190613d56565b6134e5565b6040516102b99190614411565b60405180910390f35b3480156102ce57600080fd5b506102e960048036038101906102e49190613ee5565b6136a6565b005b3480156102f757600080fd5b50610312600480360381019061030d9190613e93565b613950565b60405161031f9190614433565b60405180910390f35b34801561033457600080fd5b5061034f600480360381019061034a9190613c63565b613974565b005b610359613a6c565b005b6004602052826000526040600020602052816000526040600020818154811061038357600080fd5b906000526020600020906005020160009250925050508060000154908060010160009054906101000a900473ffffffffffffffffffffffffffffffffffffffff16908060010160149054906101000a900460ff16908060020154908060030154908060040154905086565b6003602052816000526040600020602052806000526040600020600091509150505481565b60026020528060005260406000206000915090508060000154908060010160009054906101000a900473ffffffffffffffffffffffffffffffffffffffff16905082565b60006001811115610491577f4e487b7100000000000000000000000000000000000000000000000000000000600052602160045260246000fd5b8460018111156104ca577f4e487b7100000000000000000000000000000000000000000000000000000000600052602160045260246000fd5b14156105935780826104dc91906146f3565b600360003373ffffffffffffffffffffffffffffffffffffffff1673ffffffffffffffffffffffffffffffffffffffff16815260200190815260200160002060007f4554480000000000000000000000000000000000000000000000000000000000815260200190815260200160002054101561058e576040517f08c379a0000000000000000000000000000000000000000000000000000000008152600401610585906144d7565b60405180910390fd5b6106a0565b6001808111156105cc577f4e487b7100000000000000000000000000000000000000000000000000000000600052602160045260246000fd5b846001811115610605577f4e487b7100000000000000000000000000000000000000000000000000000000600052602160045260246000fd5b141561069f5781600360003373ffffffffffffffffffffffffffffffffffffffff1673ffffffffffffffffffffffffffffffffffffffff168152602001908152602001600020600085815260200190815260200160002054101561069e576040517f08c379a000000000000000000000000000000000000000000000000000000000815260040161069590614537565b60405180910390fd5b5b5b60006106ac6005613af5565b905060006004600086815260200190815260200160002060008760018111156106fe577f4e487b7100000000000000000000000000000000000000000000000000000000600052602160045260246000fd5b81526020019081526020016000209050806040518060c001604052808481526020013373ffffffffffffffffffffffffffffffffffffffff168152602001886001811115610775577f4e487b7100000000000000000000000000000000000000000000000000000000600052602160045260246000fd5b81526020018781526020018681526020018581525090806001815401808255809150506001900390600052602060002090600502016000909190919091506000820151816000015560208201518160010160006101000a81548173ffffffffffffffffffffffffffffffffffffffff021916908373ffffffffffffffffffffffffffffffffffffffff16021790555060408201518160010160146101000a81548160ff02191690836001811115610855577f4e487b7100000000000000000000000000000000000000000000000000000000600052602160045260246000fd5b0217905550606082015181600201556080820151816003015560a08201518160040155505060008082805490501161088e5760006108a0565b6001828054905061089f919061474d565b5b9050600060018111156108dc577f4e487b7100000000000000000000000000000000000000000000000000000000600052602160045260246000fd5b876001811115610915577f4e487b7100000000000000000000000000000000000000000000000000000000600052602160045260246000fd5b1415610df6575b6000811115610df15781600182610933919061474d565b8154811061096a577f4e487b7100000000000000000000000000000000000000000000000000000000600052603260045260246000fd5b9060005260206000209060050201600401548282815481106109b5577f4e487b7100000000000000000000000000000000000000000000000000000000600052603260045260246000fd5b9060005260206000209060050201600401541115610dd9576000828281548110610a08577f4e487b7100000000000000000000000000000000000000000000000000000000600052603260045260246000fd5b90600052602060002090600502016040518060c0016040529081600082015481526020016001820160009054906101000a900473ffffffffffffffffffffffffffffffffffffffff1673ffffffffffffffffffffffffffffffffffffffff1673ffffffffffffffffffffffffffffffffffffffff1681526020016001820160149054906101000a900460ff166001811115610acc577f4e487b7100000000000000000000000000000000000000000000000000000000600052602160045260246000fd5b6001811115610b04577f4e487b7100000000000000000000000000000000000000000000000000000000600052602160045260246000fd5b81526020016002820154815260200160038201548152602001600482015481525050905082600183610b36919061474d565b81548110610b6d577f4e487b7100000000000000000000000000000000000000000000000000000000600052603260045260246000fd5b9060005260206000209060050201838381548110610bb4577f4e487b7100000000000000000000000000000000000000000000000000000000600052603260045260246000fd5b9060005260206000209060050201600082015481600001556001820160009054906101000a900473ffffffffffffffffffffffffffffffffffffffff168160010160006101000a81548173ffffffffffffffffffffffffffffffffffffffff021916908373ffffffffffffffffffffffffffffffffffffffff1602179055506001820160149054906101000a900460ff168160010160146101000a81548160ff02191690836001811115610c91577f4e487b7100000000000000000000000000000000000000000000000000000000600052602160045260246000fd5b02179055506002820154816002015560038201548160030155600482015481600401559050508083600184610cc6919061474d565b81548110610cfd577f4e487b7100000000000000000000000000000000000000000000000000000000600052603260045260246000fd5b90600052602060002090600502016000820151816000015560208201518160010160006101000a81548173ffffffffffffffffffffffffffffffffffffffff021916908373ffffffffffffffffffffffffffffffffffffffff16021790555060408201518160010160146101000a81548160ff02191690836001811115610dad577f4e487b7100000000000000000000000000000000000000000000000000000000600052602160045260246000fd5b0217905550606082015181600201556080820151816003015560a0820151816004015590505050610dde565b610df1565b8080610de9906147f8565b91505061091c565b611346565b600180811115610e2f577f4e487b7100000000000000000000000000000000000000000000000000000000600052602160045260246000fd5b876001811115610e68577f4e487b7100000000000000000000000000000000000000000000000000000000600052602160045260246000fd5b1415611345575b60008111156113445781600182610e86919061474d565b81548110610ebd577f4e487b7100000000000000000000000000000000000000000000000000000000600052603260045260246000fd5b906000526020600020906005020160040154828281548110610f08577f4e487b7100000000000000000000000000000000000000000000000000000000600052603260045260246000fd5b906000526020600020906005020160040154101561132c576000828281548110610f5b577f4e487b7100000000000000000000000000000000000000000000000000000000600052603260045260246000fd5b90600052602060002090600502016040518060c0016040529081600082015481526020016001820160009054906101000a900473ffffffffffffffffffffffffffffffffffffffff1673ffffffffffffffffffffffffffffffffffffffff1673ffffffffffffffffffffffffffffffffffffffff1681526020016001820160149054906101000a900460ff16600181111561101f577f4e487b7100000000000000000000000000000000000000000000000000000000600052602160045260246000fd5b6001811115611057577f4e487b7100000000000000000000000000000000000000000000000000000000600052602160045260246000fd5b81526020016002820154815260200160038201548152602001600482015481525050905082600183611089919061474d565b815481106110c0577f4e487b7100000000000000000000000000000000000000000000000000000000600052603260045260246000fd5b9060005260206000209060050201838381548110611107577f4e487b7100000000000000000000000000000000000000000000000000000000600052603260045260246000fd5b9060005260206000209060050201600082015481600001556001820160009054906101000a900473ffffffffffffffffffffffffffffffffffffffff168160010160006101000a81548173ffffffffffffffffffffffffffffffffffffffff021916908373ffffffffffffffffffffffffffffffffffffffff1602179055506001820160149054906101000a900460ff168160010160146101000a81548160ff021916908360018111156111e4577f4e487b7100000000000000000000000000000000000000000000000000000000600052602160045260246000fd5b02179055506002820154816002015560038201548160030155600482015481600401559050508083600184611219919061474d565b81548110611250577f4e487b7100000000000000000000000000000000000000000000000000000000600052603260045260246000fd5b90600052602060002090600502016000820151816000015560208201518160010160006101000a81548173ffffffffffffffffffffffffffffffffffffffff021916908373ffffffffffffffffffffffffffffffffffffffff16021790555060408201518160010160146101000a81548160ff02191690836001811115611300577f4e487b7100000000000000000000000000000000000000000000000000000000600052602160045260246000fd5b0217905550606082015181600201556080820151816003015560a0820151816004015590505050611331565b611344565b808061133c906147f8565b915050610e6f565b5b5b6113506005613b03565b50505050505050565b611361613b19565b73ffffffffffffffffffffffffffffffffffffffff1661137f6113e1565b73ffffffffffffffffffffffffffffffffffffffff16146113d5576040517f08c379a00000000000000000000000000000000000000000000000000000000081526004016113cc90614597565b60405180910390fd5b6113df6000613b21565b565b60008060009054906101000a900473ffffffffffffffffffffffffffffffffffffffff16905090565b611412613b19565b73ffffffffffffffffffffffffffffffffffffffff166114306113e1565b73ffffffffffffffffffffffffffffffffffffffff1614611486576040517f08c379a000000000000000000000000000000000000000000000000000000000815260040161147d90614597565b60405180910390fd5b600073ffffffffffffffffffffffffffffffffffffffff166002600084815260200190815260200160002060010160009054906101000a900473ffffffffffffffffffffffffffffffffffffffff1673ffffffffffffffffffffffffffffffffffffffff161461152b576040517f08c379a000000000000000000000000000000000000000000000000000000000815260040161152290614517565b60405180910390fd5b60405180604001604052808381526020018273ffffffffffffffffffffffffffffffffffffffff16815250600260008481526020019081526020016000206000820151816000015560208201518160010160006101000a81548173ffffffffffffffffffffffffffffffffffffffff021916908373ffffffffffffffffffffffffffffffffffffffff16021790555090505060018290806001815401808255809150506001900390600052602060002001600090919091909150555050565b826001811115611623577f4e487b7100000000000000000000000000000000000000000000000000000000600052602160045260246000fd5b60018081111561165c577f4e487b7100000000000000000000000000000000000000000000000000000000600052602160045260246000fd5b141561238c57600360003373ffffffffffffffffffffffffffffffffffffffff1673ffffffffffffffffffffffffffffffffffffffff1681526020019081526020016000206000838152602001908152602001600020548111156116f5576040517f08c379a00000000000000000000000000000000000000000000000000000000081526004016116ec906145b7565b60405180910390fd5b6000600460008481526020019081526020016000206000808152602001908152602001600020905060005b600083118015611734575060008280549050115b1561238557818181548110611772577f4e487b7100000000000000000000000000000000000000000000000000000000600052603260045260246000fd5b9060005260206000209060050201600301548310611ea15760008282815481106117c5577f4e487b7100000000000000000000000000000000000000000000000000000000600052603260045260246000fd5b90600052602060002090600502016040518060c0016040529081600082015481526020016001820160009054906101000a900473ffffffffffffffffffffffffffffffffffffffff1673ffffffffffffffffffffffffffffffffffffffff1673ffffffffffffffffffffffffffffffffffffffff1681526020016001820160149054906101000a900460ff166001811115611889577f4e487b7100000000000000000000000000000000000000000000000000000000600052602160045260246000fd5b60018111156118c1577f4e487b7100000000000000000000000000000000000000000000000000000000600052602160045260246000fd5b8152602001600282015481526020016003820154815260200160048201548152505090508060800151846118f5919061474d565b935080608001518160a0015161190b91906146f3565b600360003373ffffffffffffffffffffffffffffffffffffffff1673ffffffffffffffffffffffffffffffffffffffff16815260200190815260200160002060007f45544800000000000000000000000000000000000000000000000000000000008152602001908152602001600020600082825461198a919061469d565b925050819055508060800151600360003373ffffffffffffffffffffffffffffffffffffffff1673ffffffffffffffffffffffffffffffffffffffff168152602001908152602001600020600087815260200190815260200160002060008282546119f5919061474d565b9250508190555080608001518160a00151611a1091906146f3565b60036000836020015173ffffffffffffffffffffffffffffffffffffffff1673ffffffffffffffffffffffffffffffffffffffff16815260200190815260200160002060007f455448000000000000000000000000000000000000000000000000000000000081526020019081526020016000206000828254611a93919061474d565b92505081905550806080015160036000836020015173ffffffffffffffffffffffffffffffffffffffff1673ffffffffffffffffffffffffffffffffffffffff16815260200190815260200160002060008781526020019081526020016000206000828254611b02919061469d565b92505081905550600081608001818152505080838381548110611b4e577f4e487b7100000000000000000000000000000000000000000000000000000000600052603260045260246000fd5b90600052602060002090600502016000820151816000015560208201518160010160006101000a81548173ffffffffffffffffffffffffffffffffffffffff021916908373ffffffffffffffffffffffffffffffffffffffff16021790555060408201518160010160146101000a81548160ff02191690836001811115611bfe577f4e487b7100000000000000000000000000000000000000000000000000000000600052602160045260246000fd5b0217905550606082015181600201556080820151816003015560a0820151816004015590505060005b60018480549050611c38919061474d565b811015611de15783600182611c4d919061469d565b81548110611c84577f4e487b7100000000000000000000000000000000000000000000000000000000600052603260045260246000fd5b9060005260206000209060050201848281548110611ccb577f4e487b7100000000000000000000000000000000000000000000000000000000600052603260045260246000fd5b9060005260206000209060050201600082015481600001556001820160009054906101000a900473ffffffffffffffffffffffffffffffffffffffff168160010160006101000a81548173ffffffffffffffffffffffffffffffffffffffff021916908373ffffffffffffffffffffffffffffffffffffffff1602179055506001820160149054906101000a900460ff168160010160146101000a81548160ff02191690836001811115611da8577f4e487b7100000000000000000000000000000000000000000000000000000000600052602160045260246000fd5b02179055506002820154816002015560038201548160030155600482015481600401559050508080611dd990614822565b915050611c27565b5082805480611e19577f4e487b7100000000000000000000000000000000000000000000000000000000600052603160045260246000fd5b60019003818190600052602060002090600502016000808201600090556001820160006101000a81549073ffffffffffffffffffffffffffffffffffffffff02191690556001820160146101000a81549060ff0219169055600282016000905560038201600090556004820160009055505090558180611e9890614822565b92505050612380565b818181548110611eda577f4e487b7100000000000000000000000000000000000000000000000000000000600052603260045260246000fd5b90600052602060002090600502016003015483101561237f576000828281548110611f2e577f4e487b7100000000000000000000000000000000000000000000000000000000600052603260045260246000fd5b90600052602060002090600502016040518060c0016040529081600082015481526020016001820160009054906101000a900473ffffffffffffffffffffffffffffffffffffffff1673ffffffffffffffffffffffffffffffffffffffff1673ffffffffffffffffffffffffffffffffffffffff1681526020016001820160149054906101000a900460ff166001811115611ff2577f4e487b7100000000000000000000000000000000000000000000000000000000600052602160045260246000fd5b600181111561202a577f4e487b7100000000000000000000000000000000000000000000000000000000600052602160045260246000fd5b8152602001600282015481526020016003820154815260200160048201548152505090508381608001818151612060919061474d565b91508181525050838160a0015161207791906146f3565b600360003373ffffffffffffffffffffffffffffffffffffffff1673ffffffffffffffffffffffffffffffffffffffff16815260200190815260200160002060007f4554480000000000000000000000000000000000000000000000000000000000815260200190815260200160002060008282546120f6919061469d565b9250508190555083600360003373ffffffffffffffffffffffffffffffffffffffff1673ffffffffffffffffffffffffffffffffffffffff1681526020019081526020016000206000878152602001908152602001600020600082825461215d919061474d565b92505081905550838160a0015161217491906146f3565b60036000836020015173ffffffffffffffffffffffffffffffffffffffff1673ffffffffffffffffffffffffffffffffffffffff16815260200190815260200160002060007f4554480000000000000000000000000000000000000000000000000000000000815260200190815260200160002060008282546121f7919061474d565b925050819055508360036000836020015173ffffffffffffffffffffffffffffffffffffffff1673ffffffffffffffffffffffffffffffffffffffff16815260200190815260200160002060008781526020019081526020016000206000828254612262919061469d565b9250508190555060009350808383815481106122a7577f4e487b7100000000000000000000000000000000000000000000000000000000600052603260045260246000fd5b90600052602060002090600502016000820151816000015560208201518160010160006101000a81548173ffffffffffffffffffffffffffffffffffffffff021916908373ffffffffffffffffffffffffffffffffffffffff16021790555060408201518160010160146101000a81548160ff02191690836001811115612357577f4e487b7100000000000000000000000000000000000000000000000000000000600052602160045260246000fd5b0217905550606082015181600201556080820151816003015560a08201518160040155905050505b5b611720565b5050613276565b8260018111156123c5577f4e487b7100000000000000000000000000000000000000000000000000000000600052602160045260246000fd5b600060018111156123ff577f4e487b7100000000000000000000000000000000000000000000000000000000600052602160045260246000fd5b141561327557600060046000848152602001908152602001600020600060018152602001908152602001600020905060008180549050111561255457806001828054905061244d919061474d565b81548110612484577f4e487b7100000000000000000000000000000000000000000000000000000000600052603260045260246000fd5b906000526020600020906005020160040154826124a191906146f3565b600360003373ffffffffffffffffffffffffffffffffffffffff1673ffffffffffffffffffffffffffffffffffffffff16815260200190815260200160002060007f45544800000000000000000000000000000000000000000000000000000000008152602001908152602001600020541015612553576040517f08c379a000000000000000000000000000000000000000000000000000000000815260040161254a90614477565b60405180910390fd5b5b620186a0600360003373ffffffffffffffffffffffffffffffffffffffff1673ffffffffffffffffffffffffffffffffffffffff16815260200190815260200160002060007f4554480000000000000000000000000000000000000000000000000000000000815260200190815260200160002054101561260a576040517f08c379a000000000000000000000000000000000000000000000000000000000815260040161260190614577565b60405180910390fd5b60005b600083118015612621575060008280549050115b156132725781818154811061265f577f4e487b7100000000000000000000000000000000000000000000000000000000600052603260045260246000fd5b9060005260206000209060050201600301548310612d8e5760008282815481106126b2577f4e487b7100000000000000000000000000000000000000000000000000000000600052603260045260246000fd5b90600052602060002090600502016040518060c0016040529081600082015481526020016001820160009054906101000a900473ffffffffffffffffffffffffffffffffffffffff1673ffffffffffffffffffffffffffffffffffffffff1673ffffffffffffffffffffffffffffffffffffffff1681526020016001820160149054906101000a900460ff166001811115612776577f4e487b7100000000000000000000000000000000000000000000000000000000600052602160045260246000fd5b60018111156127ae577f4e487b7100000000000000000000000000000000000000000000000000000000600052602160045260246000fd5b8152602001600282015481526020016003820154815260200160048201548152505090508060800151846127e2919061474d565b93508060800151600360003373ffffffffffffffffffffffffffffffffffffffff1673ffffffffffffffffffffffffffffffffffffffff16815260200190815260200160002060008781526020019081526020016000206000828254612848919061469d565b9250508190555080608001518160a0015161286391906146f3565b600360003373ffffffffffffffffffffffffffffffffffffffff1673ffffffffffffffffffffffffffffffffffffffff16815260200190815260200160002060007f4554480000000000000000000000000000000000000000000000000000000000815260200190815260200160002060008282546128e2919061474d565b92505081905550806080015160036000836020015173ffffffffffffffffffffffffffffffffffffffff1673ffffffffffffffffffffffffffffffffffffffff16815260200190815260200160002060008781526020019081526020016000206000828254612951919061474d565b9250508190555080608001518160a0015161296c91906146f3565b60036000836020015173ffffffffffffffffffffffffffffffffffffffff1673ffffffffffffffffffffffffffffffffffffffff16815260200190815260200160002060007f4554480000000000000000000000000000000000000000000000000000000000815260200190815260200160002060008282546129ef919061469d565b92505081905550600081608001818152505080838381548110612a3b577f4e487b7100000000000000000000000000000000000000000000000000000000600052603260045260246000fd5b90600052602060002090600502016000820151816000015560208201518160010160006101000a81548173ffffffffffffffffffffffffffffffffffffffff021916908373ffffffffffffffffffffffffffffffffffffffff16021790555060408201518160010160146101000a81548160ff02191690836001811115612aeb577f4e487b7100000000000000000000000000000000000000000000000000000000600052602160045260246000fd5b0217905550606082015181600201556080820151816003015560a0820151816004015590505060005b60018480549050612b25919061474d565b811015612cce5783600182612b3a919061469d565b81548110612b71577f4e487b7100000000000000000000000000000000000000000000000000000000600052603260045260246000fd5b9060005260206000209060050201848281548110612bb8577f4e487b7100000000000000000000000000000000000000000000000000000000600052603260045260246000fd5b9060005260206000209060050201600082015481600001556001820160009054906101000a900473ffffffffffffffffffffffffffffffffffffffff168160010160006101000a81548173ffffffffffffffffffffffffffffffffffffffff021916908373ffffffffffffffffffffffffffffffffffffffff1602179055506001820160149054906101000a900460ff168160010160146101000a81548160ff02191690836001811115612c95577f4e487b7100000000000000000000000000000000000000000000000000000000600052602160045260246000fd5b02179055506002820154816002015560038201548160030155600482015481600401559050508080612cc690614822565b915050612b14565b5082805480612d06577f4e487b7100000000000000000000000000000000000000000000000000000000600052603160045260246000fd5b60019003818190600052602060002090600502016000808201600090556001820160006101000a81549073ffffffffffffffffffffffffffffffffffffffff02191690556001820160146101000a81549060ff0219169055600282016000905560038201600090556004820160009055505090558180612d8590614822565b9250505061326d565b818181548110612dc7577f4e487b7100000000000000000000000000000000000000000000000000000000600052603260045260246000fd5b90600052602060002090600502016003015483101561326c576000828281548110612e1b577f4e487b7100000000000000000000000000000000000000000000000000000000600052603260045260246000fd5b90600052602060002090600502016040518060c0016040529081600082015481526020016001820160009054906101000a900473ffffffffffffffffffffffffffffffffffffffff1673ffffffffffffffffffffffffffffffffffffffff1673ffffffffffffffffffffffffffffffffffffffff1681526020016001820160149054906101000a900460ff166001811115612edf577f4e487b7100000000000000000000000000000000000000000000000000000000600052602160045260246000fd5b6001811115612f17577f4e487b7100000000000000000000000000000000000000000000000000000000600052602160045260246000fd5b8152602001600282015481526020016003820154815260200160048201548152505090508381608001818151612f4d919061474d565b9150818152505083600360003373ffffffffffffffffffffffffffffffffffffffff1673ffffffffffffffffffffffffffffffffffffffff16815260200190815260200160002060008781526020019081526020016000206000828254612fb4919061469d565b92505081905550838160a00151612fcb91906146f3565b600360003373ffffffffffffffffffffffffffffffffffffffff1673ffffffffffffffffffffffffffffffffffffffff16815260200190815260200160002060007f45544800000000000000000000000000000000000000000000000000000000008152602001908152602001600020600082825461304a919061474d565b925050819055508360036000836020015173ffffffffffffffffffffffffffffffffffffffff1673ffffffffffffffffffffffffffffffffffffffff168152602001908152602001600020600087815260200190815260200160002060008282546130b5919061474d565b92505081905550838160a001516130cc91906146f3565b60036000836020015173ffffffffffffffffffffffffffffffffffffffff1673ffffffffffffffffffffffffffffffffffffffff16815260200190815260200160002060007f45544800000000000000000000000000000000000000000000000000000000008152602001908152602001600020600082825461314f919061469d565b925050819055506000935080838381548110613194577f4e487b7100000000000000000000000000000000000000000000000000000000600052603260045260246000fd5b90600052602060002090600502016000820151816000015560208201518160010160006101000a81548173ffffffffffffffffffffffffffffffffffffffff021916908373ffffffffffffffffffffffffffffffffffffffff16021790555060408201518160010160146101000a81548160ff02191690836001811115613244577f4e487b7100000000000000000000000000000000000000000000000000000000600052602160045260246000fd5b0217905550606082015181600201556080820151816003015560a08201518160040155905050505b5b61260d565b50505b5b505050565b80600073ffffffffffffffffffffffffffffffffffffffff166002600083815260200190815260200160002060010160009054906101000a900473ffffffffffffffffffffffffffffffffffffffff1673ffffffffffffffffffffffffffffffffffffffff161415613322576040517f08c379a000000000000000000000000000000000000000000000000000000000815260040161331990614557565b60405180910390fd5b82600360003373ffffffffffffffffffffffffffffffffffffffff1673ffffffffffffffffffffffffffffffffffffffff16815260200190815260200160002060008481526020019081526020016000205410156133b5576040517f08c379a00000000000000000000000000000000000000000000000000000000081526004016133ac90614497565b60405180910390fd5b82600360003373ffffffffffffffffffffffffffffffffffffffff1673ffffffffffffffffffffffffffffffffffffffff16815260200190815260200160002060008481526020019081526020016000206000828254613415919061474d565b925050819055506002600083815260200190815260200160002060010160009054906101000a900473ffffffffffffffffffffffffffffffffffffffff1673ffffffffffffffffffffffffffffffffffffffff1663a9059cbb33856040518363ffffffff1660e01b815260040161348d9291906143e8565b602060405180830381600087803b1580156134a757600080fd5b505af11580156134bb573d6000803e3d6000fd5b505050506040513d601f19601f820116820180604052508101906134df9190613cc8565b50505050565b6060600460008481526020019081526020016000206000836001811115613535577f4e487b7100000000000000000000000000000000000000000000000000000000600052602160045260246000fd5b8152602001908152602001600020805480602002602001604051908101604052809291908181526020016000905b8282101561369a57838290600052602060002090600502016040518060c0016040529081600082015481526020016001820160009054906101000a900473ffffffffffffffffffffffffffffffffffffffff1673ffffffffffffffffffffffffffffffffffffffff1673ffffffffffffffffffffffffffffffffffffffff1681526020016001820160149054906101000a900460ff166001811115613631577f4e487b7100000000000000000000000000000000000000000000000000000000600052602160045260246000fd5b6001811115613669577f4e487b7100000000000000000000000000000000000000000000000000000000600052602160045260246000fd5b8152602001600282015481526020016003820154815260200160048201548152505081526020019060010190613563565b50505050905092915050565b80600073ffffffffffffffffffffffffffffffffffffffff166002600083815260200190815260200160002060010160009054906101000a900473ffffffffffffffffffffffffffffffffffffffff1673ffffffffffffffffffffffffffffffffffffffff16141561374d576040517f08c379a000000000000000000000000000000000000000000000000000000000815260040161374490614557565b60405180910390fd5b60006002600084815260200190815260200160002060010160009054906101000a900473ffffffffffffffffffffffffffffffffffffffff169050838173ffffffffffffffffffffffffffffffffffffffff166370a08231336040518263ffffffff1660e01b81526004016137c29190614396565b60206040518083038186803b1580156137da57600080fd5b505afa1580156137ee573d6000803e3d6000fd5b505050506040513d601f19601f820116820180604052508101906138129190613ebc565b1015613853576040517f08c379a000000000000000000000000000000000000000000000000000000000815260040161384a906144f7565b60405180910390fd5b83600360003373ffffffffffffffffffffffffffffffffffffffff1673ffffffffffffffffffffffffffffffffffffffff168152602001908152602001600020600085815260200190815260200160002060008282546138b3919061469d565b925050819055508073ffffffffffffffffffffffffffffffffffffffff166323b872dd3330876040518463ffffffff1660e01b81526004016138f7939291906143b1565b602060405180830381600087803b15801561391157600080fd5b505af1158015613925573d6000803e3d6000fd5b505050506040513d601f19601f820116820180604052508101906139499190613cc8565b5050505050565b6001818154811061396057600080fd5b906000526020600020016000915090505481565b61397c613b19565b73ffffffffffffffffffffffffffffffffffffffff1661399a6113e1565b73ffffffffffffffffffffffffffffffffffffffff16146139f0576040517f08c379a00000000000000000000000000000000000000000000000000000000081526004016139e790614597565b60405180910390fd5b600073ffffffffffffffffffffffffffffffffffffffff168173ffffffffffffffffffffffffffffffffffffffff161415613a60576040517f08c379a0000000000000000000000000000000000000000000000000000000008152600401613a57906144b7565b60405180910390fd5b613a6981613b21565b50565b34600360003373ffffffffffffffffffffffffffffffffffffffff1673ffffffffffffffffffffffffffffffffffffffff16815260200190815260200160002060007f455448000000000000000000000000000000000000000000000000000000000081526020019081526020016000206000828254613aec919061469d565b92505081905550565b600081600001549050919050565b6001816000016000828254019250508190555050565b600033905090565b60008060009054906101000a900473ffffffffffffffffffffffffffffffffffffffff169050816000806101000a81548173ffffffffffffffffffffffffffffffffffffffff021916908373ffffffffffffffffffffffffffffffffffffffff1602179055508173ffffffffffffffffffffffffffffffffffffffff168173ffffffffffffffffffffffffffffffffffffffff167f8be0079c531659141344cd1fd0a4f28419497f9722a3daafe3b4186f6b6457e060405160405180910390a35050565b600081359050613bf4816148dd565b92915050565b600081519050613c09816148f4565b92915050565b600081359050613c1e8161490b565b92915050565b600081359050613c3381614922565b92915050565b600081359050613c4881614932565b92915050565b600081519050613c5d81614932565b92915050565b600060208284031215613c7557600080fd5b6000613c8384828501613be5565b91505092915050565b60008060408385031215613c9f57600080fd5b6000613cad85828601613be5565b9250506020613cbe85828601613c0f565b9150509250929050565b600060208284031215613cda57600080fd5b6000613ce884828501613bfa565b91505092915050565b600060208284031215613d0357600080fd5b6000613d1184828501613c0f565b91505092915050565b60008060408385031215613d2d57600080fd5b6000613d3b85828601613c0f565b9250506020613d4c85828601613be5565b9150509250929050565b60008060408385031215613d6957600080fd5b6000613d7785828601613c0f565b9250506020613d8885828601613c24565b9150509250929050565b600080600060608486031215613da757600080fd5b6000613db586828701613c0f565b9350506020613dc686828701613c39565b9250506040613dd786828701613c39565b9150509250925092565b600080600060608486031215613df657600080fd5b6000613e0486828701613c24565b9350506020613e1586828701613c0f565b9250506040613e2686828701613c39565b9150509250925092565b60008060008060808587031215613e4657600080fd5b6000613e5487828801613c24565b9450506020613e6587828801613c0f565b9350506040613e7687828801613c39565b9250506060613e8787828801613c39565b91505092959194509250565b600060208284031215613ea557600080fd5b6000613eb384828501613c39565b91505092915050565b600060208284031215613ece57600080fd5b6000613edc84828501613c4e565b91505092915050565b60008060408385031215613ef857600080fd5b6000613f0685828601613c39565b9250506020613f1785828601613c0f565b9150509250929050565b6000613f2d83836142fd565b60c08301905092915050565b613f4281614781565b82525050565b613f5181614781565b82525050565b6000613f6282614663565b613f6c818561467b565b9350613f7783614653565b8060005b83811015613fa8578151613f8f8882613f21565b9750613f9a8361466e565b925050600181019050613f7b565b5085935050505092915050565b613fbe8161479f565b82525050565b613fcd8161479f565b82525050565b613fdc816147e6565b82525050565b613feb816147e6565b82525050565b6000613ffe60178361468c565b91507f496e73756666696369656e742045544820746f206275790000000000000000006000830152602082019050919050565b600061403e601c8361468c565b91507f57616c6c65743a20696e73756666696369656e742062616c616e6365000000006000830152602082019050919050565b600061407e60268361468c565b91507f4f776e61626c653a206e6577206f776e657220697320746865207a65726f206160008301527f64647265737300000000000000000000000000000000000000000000000000006020830152604082019050919050565b60006140e4601c8361468c565b91507f436f7374206578646565647320746865204554482062616c616e6365000000006000830152602082019050919050565b600061412460268361468c565b91507f4465706f7369742062616c616e636520696e20796f757220746f6b656e20636f60008301527f6e747261637400000000000000000000000000000000000000000000000000006020830152604082019050919050565b600061418a601b8361468c565b91507f57616c6c65743a20546f6b656e20616c726561647920657869737400000000006000830152602082019050919050565b60006141ca601b8361468c565b91507f496e73756666696369656e7420746f6b656e7320746f2073656c6c00000000006000830152602082019050919050565b600061420a601b8361468c565b91507f57616c6c65743a20746f6b656e20646f65736e277420657869737400000000006000830152602082019050919050565b600061424a601d8361468c565b91507f53686f756c64206b65657020796f75722077616c6c65742068656176790000006000830152602082019050919050565b600061428a60208361468c565b91507f4f776e61626c653a2063616c6c6572206973206e6f7420746865206f776e65726000830152602082019050919050565b60006142ca601a8361468c565b91507f496e737566666963656e7420746f6b656e7320746f2073656c6c0000000000006000830152602082019050919050565b60c0820160008201516143136000850182614378565b5060208201516143266020850182613f39565b5060408201516143396040850182613fd3565b50606082015161434c6060850182613fb5565b50608082015161435f6080850182614378565b5060a082015161437260a0850182614378565b50505050565b614381816147dc565b82525050565b614390816147dc565b82525050565b60006020820190506143ab6000830184613f48565b92915050565b60006060820190506143c66000830186613f48565b6143d36020830185613f48565b6143e06040830184614387565b949350505050565b60006040820190506143fd6000830185613f48565b61440a6020830184614387565b9392505050565b6000602082019050818103600083015261442b8184613f57565b905092915050565b60006020820190506144486000830184613fc4565b92915050565b60006040820190506144636000830185613fc4565b6144706020830184613f48565b9392505050565b6000602082019050818103600083015261449081613ff1565b9050919050565b600060208201905081810360008301526144b081614031565b9050919050565b600060208201905081810360008301526144d081614071565b9050919050565b600060208201905081810360008301526144f0816140d7565b9050919050565b6000602082019050818103600083015261451081614117565b9050919050565b600060208201905081810360008301526145308161417d565b9050919050565b60006020820190508181036000830152614550816141bd565b9050919050565b60006020820190508181036000830152614570816141fd565b9050919050565b600060208201905081810360008301526145908161423d565b9050919050565b600060208201905081810360008301526145b08161427d565b9050919050565b600060208201905081810360008301526145d0816142bd565b9050919050565b60006020820190506145ec6000830184614387565b92915050565b600060c0820190506146076000830189614387565b6146146020830188613f48565b6146216040830187613fe2565b61462e6060830186613fc4565b61463b6080830185614387565b61464860a0830184614387565b979650505050505050565b6000819050602082019050919050565b600081519050919050565b6000602082019050919050565b600082825260208201905092915050565b600082825260208201905092915050565b60006146a8826147dc565b91506146b3836147dc565b9250827fffffffffffffffffffffffffffffffffffffffffffffffffffffffffffffffff038211156146e8576146e761486b565b5b828201905092915050565b60006146fe826147dc565b9150614709836147dc565b9250817fffffffffffffffffffffffffffffffffffffffffffffffffffffffffffffffff04831182151516156147425761474161486b565b5b828202905092915050565b6000614758826147dc565b9150614763836147dc565b9250828210156147765761477561486b565b5b828203905092915050565b600061478c826147bc565b9050919050565b60008115159050919050565b6000819050919050565b60008190506147b7826148c9565b919050565b600073ffffffffffffffffffffffffffffffffffffffff82169050919050565b6000819050919050565b60006147f1826147a9565b9050919050565b6000614803826147dc565b915060008214156148175761481661486b565b5b600182039050919050565b600061482d826147dc565b91507fffffffffffffffffffffffffffffffffffffffffffffffffffffffffffffffff8214156148605761485f61486b565b5b600182019050919050565b7f4e487b7100000000000000000000000000000000000000000000000000000000600052601160045260246000fd5b7f4e487b7100000000000000000000000000000000000000000000000000000000600052602160045260246000fd5b600281106148da576148d961489a565b5b50565b6148e681614781565b81146148f157600080fd5b50565b6148fd81614793565b811461490857600080fd5b50565b6149148161479f565b811461491f57600080fd5b50565b6002811061492f57600080fd5b50565b61493b816147dc565b811461494657600080fd5b5056fea2646970667358221220472aedce88b96ce8c8094d60c41faebe4fb1e5bed02b209c689cc7a77996e75064736f6c63430008000033",
  "immutableReferences": {},
  "source": "// SPDX-License-Identifier: MIT\r\npragma solidity >=0.4.22 <0.9.0;\r\nimport './wallet.sol';\r\nimport '../node_modules/@openzeppelin/contracts/utils/Counters.sol';\r\n\r\ncontract Dex is Wallet{\r\n\r\n    using Counters for Counters.Counter; \r\n    \r\n    enum Side{\r\n        BUY,\r\n        SELL\r\n    }\r\n\r\n   struct Order{\r\n       uint id;\r\n       address trader;\r\n       Side side;\r\n       bytes32 ticker;\r\n       uint amount;\r\n       uint price;\r\n   }\r\n   \r\n   mapping(bytes32 => mapping(uint => Order[]))public orderBook;\r\n   Counters.Counter private _counterIds;\r\n\r\n   //getOrderBook(bytes32(\"LINK\"),Side.BUY)\r\n   function getOrderBook(bytes32 _ticker,Side side) public view returns(Order[] memory){\r\n       return orderBook[_ticker][uint(side)];\r\n   }\r\n \r\n   function createLimitOrder(Side side,bytes32 ticker,uint amount, uint price) public{\r\n      if(side == Side.BUY){\r\n          require(balances[msg.sender][\"ETH\"] >= amount * price,'Cost exdeeds the ETH balance');\r\n      }\r\n      else if(side == Side.SELL){\r\n          require(balances[msg.sender][ticker] >= amount,'Insufficient tokens to sell');\r\n      }\r\n\r\n        uint256 newCounterId = _counterIds.current();\r\n        Order[] storage orders = orderBook[ticker][uint(side)];\r\n        orders.push(Order(newCounterId,msg.sender,side,ticker,amount,price));\r\n         \r\n        uint j =  orders.length > 0 ? orders.length-1 : 0;\r\n         if(side == Side.BUY){\r\n            for( ; j > 0 ; j--){\r\n                 if(orders[j].price > orders[j-1].price){\r\n                    Order memory temp = orders[j];\r\n                    orders[j] = orders[j-1];\r\n                    orders[j-1] = temp;\r\n                }\r\n                else{\r\n                    break;\r\n                }\r\n            }\r\n         }\r\n         else if(side == Side.SELL){\r\n            for(; j > 0 ; j--){\r\n                 if(orders[j].price < orders[j-1].price){\r\n                    Order memory temp = orders[j];\r\n                    orders[j] = orders[j-1];\r\n                    orders[j-1] = temp;\r\n                }\r\n                else{\r\n                    break;\r\n                }\r\n            }\r\n         }\r\n         _counterIds.increment();\r\n   }\r\n\r\n   function createMarketOrder(Side side, bytes32 ticker, uint amount) public {\r\n    \r\n    if(Side.SELL == side){\r\n        require(amount <= balances[msg.sender][ticker],\"Insufficent tokens to sell\");\r\n        Order[] storage orders = orderBook[ticker][0]; //Buy order book\r\n        uint i = 0; \r\n        while(amount > 0 && orders.length > 0){\r\n         if(amount >= orders[i].amount){\r\n             //updating the amount for seller\r\n             Order memory temp = orders[i];\r\n             amount -= temp.amount; //left amount\r\n             balances[msg.sender][\"ETH\"] += (temp.price * temp.amount); // depositing eth in the account of seller\r\n             balances[msg.sender][ticker] -= temp.amount; // withdrawing tickers from the account of seller\r\n             balances[temp.trader][\"ETH\"] -= (temp.price * temp.amount); // reducing eth from the acccount of buyer\r\n             balances[temp.trader][ticker] += temp.amount; //adding ticker to the account of buyer\r\n             temp.amount = 0;\r\n             orders[i] = temp;\r\n             //deleting the fulfilled order from buy order book by shifting rows to the front\r\n             for(uint j = 0 ; j < orders.length-1 ; j++){\r\n                 orders[j] = orders[j+1];\r\n             }\r\n             orders.pop(); // removing the last duplicate row\r\n             i++;\r\n         }\r\n         else if(amount < orders[i].amount){\r\n             Order memory temp = orders[i];\r\n             temp.amount -= amount;\r\n             balances[msg.sender][\"ETH\"] += temp.price * amount;\r\n             balances[msg.sender][ticker] -= amount; //should become 0\r\n             balances[temp.trader][\"ETH\"] -= temp.price * amount;\r\n             balances[temp.trader][ticker] += amount;\r\n             amount = 0;\r\n             orders[i] = temp;\r\n         }\r\n     }\r\n    }\r\n    else if(Side.BUY == side){\r\n        //make sure that buyer has enough eth to buy tokens\r\n         Order[] storage orders = orderBook[ticker][1]; //limit order sell book to get maximum selling price\r\n        if(orders.length > 0){\r\n            require(balances[msg.sender][\"ETH\"] >= amount * orders[orders.length-1].price,\"Insufficient ETH to buy\");\r\n        }\r\n        require(balances[msg.sender][\"ETH\"] >= 100000,\"Should keep your wallet heavy\");\r\n \r\n        uint i = 0;\r\n        while(amount > 0 && orders.length > 0){\r\n            if(amount >= orders[i].amount){\r\n               Order memory temp = orders[i];\r\n               amount -= temp.amount;\r\n               balances[msg.sender][ticker] += temp.amount ;//buyer\r\n               balances[msg.sender][\"ETH\"] -= temp.price * temp.amount; // buyer\r\n               balances[temp.trader][ticker] -= temp.amount; // seller\r\n               balances[temp.trader][\"ETH\"] += temp.price * temp.amount; //seller\r\n               temp.amount = 0;\r\n               orders[i] = temp;\r\n\r\n               //deleting the fulfilled order from sell order book by shifting rows to the front\r\n                for(uint j = 0 ; j < orders.length-1 ; j++){\r\n                    orders[j] = orders[j+1];\r\n                }\r\n                orders.pop(); // removing the last duplicate row\r\n                i++;\r\n            }\r\n            else if(amount < orders[i].amount){\r\n                Order memory temp = orders[i];\r\n                temp.amount -= amount;\r\n                balances[msg.sender][ticker] += amount ;//buyer\r\n                balances[msg.sender][\"ETH\"] -= temp.price * amount; // buyer\r\n                balances[temp.trader][ticker] -= amount; // seller\r\n                balances[temp.trader][\"ETH\"] += temp.price * amount; //seller\r\n                amount = 0;\r\n                orders[i] = temp;\r\n            }\r\n        } \r\n    }\r\n\r\n   }\r\n\r\n    \r\n}",
  "sourcePath": "D:/BlockChain/Ethereum-201/DEX/contracts/dex.sol",
  "compiler": {
    "name": "solc",
    "version": "0.8.0+commit.c7dfd78e.Emscripten.clang"
  },
  "schemaVersion": "3.4.1",
  "updatedAt": "2021-07-10T09:03:01.002Z",
  "networkType": "ethereum",
  "devdoc": {
    "kind": "dev",
    "methods": {
      "owner()": {
        "details": "Returns the address of the current owner."
      },
      "renounceOwnership()": {
        "details": "Leaves the contract without owner. It will not be possible to call `onlyOwner` functions anymore. Can only be called by the current owner. NOTE: Renouncing ownership will leave the contract without an owner, thereby removing any functionality that is only available to the owner."
      },
      "transferOwnership(address)": {
        "details": "Transfers ownership of the contract to a new account (`newOwner`). Can only be called by the current owner."
      }
    },
    "version": 1
  },
  "userdoc": {
    "kind": "user",
    "methods": {},
    "version": 1
  }
}