{
  "contractName": "Wallet",
  "abi": [
    {
      "anonymous": false,
      "inputs": [
        {
          "indexed": true,
          "internalType": "address",
          "name": "previousOwner",
          "type": "address"
        },
        {
          "indexed": true,
          "internalType": "address",
          "name": "newOwner",
          "type": "address"
        }
      ],
      "name": "OwnershipTransferred",
      "type": "event"
    },
    {
      "inputs": [
        {
          "internalType": "address",
          "name": "",
          "type": "address"
        },
        {
          "internalType": "bytes32",
          "name": "",
          "type": "bytes32"
        }
      ],
      "name": "balances",
      "outputs": [
        {
          "internalType": "uint256",
          "name": "",
          "type": "uint256"
        }
      ],
      "stateMutability": "view",
      "type": "function"
    },
    {
      "inputs": [],
      "name": "owner",
      "outputs": [
        {
          "internalType": "address",
          "name": "",
          "type": "address"
        }
      ],
      "stateMutability": "view",
      "type": "function"
    },
    {
      "inputs": [],
      "name": "renounceOwnership",
      "outputs": [],
      "stateMutability": "nonpayable",
      "type": "function"
    },
    {
      "inputs": [
        {
          "internalType": "uint256",
          "name": "",
          "type": "uint256"
        }
      ],
      "name": "tickerList",
      "outputs": [
        {
          "internalType": "bytes32",
          "name": "",
          "type": "bytes32"
        }
      ],
      "stateMutability": "view",
      "type": "function"
    },
    {
      "inputs": [
        {
          "internalType": "bytes32",
          "name": "",
          "type": "bytes32"
        }
      ],
      "name": "tokenMapping",
      "outputs": [
        {
          "internalType": "bytes32",
          "name": "ticker",
          "type": "bytes32"
        },
        {
          "internalType": "address",
          "name": "tokenAddress",
          "type": "address"
        }
      ],
      "stateMutability": "view",
      "type": "function"
    },
    {
      "inputs": [
        {
          "internalType": "address",
          "name": "newOwner",
          "type": "address"
        }
      ],
      "name": "transferOwnership",
      "outputs": [],
      "stateMutability": "nonpayable",
      "type": "function"
    },
    {
      "inputs": [
        {
          "internalType": "bytes32",
          "name": "_ticker",
          "type": "bytes32"
        },
        {
          "internalType": "address",
          "name": "_tickerAddress",
          "type": "address"
        }
      ],
      "name": "addToken",
      "outputs": [],
      "stateMutability": "nonpayable",
      "type": "function"
    },
    {
      "inputs": [
        {
          "internalType": "uint256",
          "name": "_amount",
          "type": "uint256"
        },
        {
          "internalType": "bytes32",
          "name": "_ticker",
          "type": "bytes32"
        }
      ],
      "name": "deposit",
      "outputs": [],
      "stateMutability": "nonpayable",
      "type": "function"
    },
    {
      "inputs": [],
      "name": "depositETH",
      "outputs": [],
      "stateMutability": "payable",
      "type": "function"
    },
    {
      "inputs": [
        {
          "internalType": "uint256",
          "name": "_amount",
          "type": "uint256"
        },
        {
          "internalType": "bytes32",
          "name": "_ticker",
          "type": "bytes32"
        }
      ],
      "name": "withdraw",
      "outputs": [],
      "stateMutability": "nonpayable",
      "type": "function"
    }
  ],
  "bytecode": "0x608060405234801561001057600080fd5b5061002d61002261003260201b60201c565b61003a60201b60201c565b6100fe565b600033905090565b60008060009054906101000a900473ffffffffffffffffffffffffffffffffffffffff169050816000806101000a81548173ffffffffffffffffffffffffffffffffffffffff021916908373ffffffffffffffffffffffffffffffffffffffff1602179055508173ffffffffffffffffffffffffffffffffffffffff168173ffffffffffffffffffffffffffffffffffffffff167f8be0079c531659141344cd1fd0a4f28419497f9722a3daafe3b4186f6b6457e060405160405180910390a35050565b61132c8061010d6000396000f3fe6080604052600436106100915760003560e01c8063a8d2021a11610059578063a8d2021a1461017c578063c9630cb0146101a5578063cb3764a8146101ce578063f2fde38b1461020b578063f6326fb31461023457610091565b80631f14df6914610096578063667cb4ba146100d3578063715018a6146101115780638da5cb5b146101285780639776aacf14610153575b600080fd5b3480156100a257600080fd5b506100bd60048036038101906100b89190610d19565b61023e565b6040516100ca9190611163565b60405180910390f35b3480156100df57600080fd5b506100fa60048036038101906100f59190610d7e565b610263565b60405161010892919061109a565b60405180910390f35b34801561011d57600080fd5b506101266102a7565b005b34801561013457600080fd5b5061013d61032f565b60405161014a9190611004565b60405180910390f35b34801561015f57600080fd5b5061017a60048036038101906101759190610da7565b610358565b005b34801561018857600080fd5b506101a3600480360381019061019e9190610e35565b610538565b005b3480156101b157600080fd5b506101cc60048036038101906101c79190610e35565b6107a2565b005b3480156101da57600080fd5b506101f560048036038101906101f09190610de3565b610a16565b604051610202919061107f565b60405180910390f35b34801561021757600080fd5b50610232600480360381019061022d9190610cf0565b610a3a565b005b61023c610b32565b005b6003602052816000526040600020602052806000526040600020600091509150505481565b60026020528060005260406000206000915090508060000154908060010160009054906101000a900473ffffffffffffffffffffffffffffffffffffffff16905082565b6102af610bbb565b73ffffffffffffffffffffffffffffffffffffffff166102cd61032f565b73ffffffffffffffffffffffffffffffffffffffff1614610323576040517f08c379a000000000000000000000000000000000000000000000000000000000815260040161031a90611143565b60405180910390fd5b61032d6000610bc3565b565b60008060009054906101000a900473ffffffffffffffffffffffffffffffffffffffff16905090565b610360610bbb565b73ffffffffffffffffffffffffffffffffffffffff1661037e61032f565b73ffffffffffffffffffffffffffffffffffffffff16146103d4576040517f08c379a00000000000000000000000000000000000000000000000000000000081526004016103cb90611143565b60405180910390fd5b600073ffffffffffffffffffffffffffffffffffffffff166002600084815260200190815260200160002060010160009054906101000a900473ffffffffffffffffffffffffffffffffffffffff1673ffffffffffffffffffffffffffffffffffffffff1614610479576040517f08c379a000000000000000000000000000000000000000000000000000000000815260040161047090611103565b60405180910390fd5b60405180604001604052808381526020018273ffffffffffffffffffffffffffffffffffffffff16815250600260008481526020019081526020016000206000820151816000015560208201518160010160006101000a81548173ffffffffffffffffffffffffffffffffffffffff021916908373ffffffffffffffffffffffffffffffffffffffff16021790555090505060018290806001815401808255809150506001900390600052602060002001600090919091909150555050565b80600073ffffffffffffffffffffffffffffffffffffffff166002600083815260200190815260200160002060010160009054906101000a900473ffffffffffffffffffffffffffffffffffffffff1673ffffffffffffffffffffffffffffffffffffffff1614156105df576040517f08c379a00000000000000000000000000000000000000000000000000000000081526004016105d690611123565b60405180910390fd5b82600360003373ffffffffffffffffffffffffffffffffffffffff1673ffffffffffffffffffffffffffffffffffffffff1681526020019081526020016000206000848152602001908152602001600020541015610672576040517f08c379a0000000000000000000000000000000000000000000000000000000008152600401610669906110c3565b60405180910390fd5b82600360003373ffffffffffffffffffffffffffffffffffffffff1673ffffffffffffffffffffffffffffffffffffffff168152602001908152602001600020600084815260200190815260200160002060008282546106d291906111e5565b925050819055506002600083815260200190815260200160002060010160009054906101000a900473ffffffffffffffffffffffffffffffffffffffff1673ffffffffffffffffffffffffffffffffffffffff1663a9059cbb33856040518363ffffffff1660e01b815260040161074a929190611056565b602060405180830381600087803b15801561076457600080fd5b505af1158015610778573d6000803e3d6000fd5b505050506040513d601f19601f8201168201806040525081019061079c9190610d55565b50505050565b80600073ffffffffffffffffffffffffffffffffffffffff166002600083815260200190815260200160002060010160009054906101000a900473ffffffffffffffffffffffffffffffffffffffff1673ffffffffffffffffffffffffffffffffffffffff161415610849576040517f08c379a000000000000000000000000000000000000000000000000000000000815260040161084090611123565b60405180910390fd5b60006002600084815260200190815260200160002060010160009054906101000a900473ffffffffffffffffffffffffffffffffffffffff169050838173ffffffffffffffffffffffffffffffffffffffff166370a08231336040518263ffffffff1660e01b81526004016108be9190611004565b60206040518083038186803b1580156108d657600080fd5b505afa1580156108ea573d6000803e3d6000fd5b505050506040513d601f19601f8201168201806040525081019061090e9190610e0c565b101561091957600080fd5b83600360003373ffffffffffffffffffffffffffffffffffffffff1673ffffffffffffffffffffffffffffffffffffffff16815260200190815260200160002060008581526020019081526020016000206000828254610979919061118f565b925050819055508073ffffffffffffffffffffffffffffffffffffffff166323b872dd3330876040518463ffffffff1660e01b81526004016109bd9392919061101f565b602060405180830381600087803b1580156109d757600080fd5b505af11580156109eb573d6000803e3d6000fd5b505050506040513d601f19601f82011682018060405250810190610a0f9190610d55565b5050505050565b60018181548110610a2657600080fd5b906000526020600020016000915090505481565b610a42610bbb565b73ffffffffffffffffffffffffffffffffffffffff16610a6061032f565b73ffffffffffffffffffffffffffffffffffffffff1614610ab6576040517f08c379a0000000000000000000000000000000000000000000000000000000008152600401610aad90611143565b60405180910390fd5b600073ffffffffffffffffffffffffffffffffffffffff168173ffffffffffffffffffffffffffffffffffffffff161415610b26576040517f08c379a0000000000000000000000000000000000000000000000000000000008152600401610b1d906110e3565b60405180910390fd5b610b2f81610bc3565b50565b34600360003373ffffffffffffffffffffffffffffffffffffffff1673ffffffffffffffffffffffffffffffffffffffff16815260200190815260200160002060007f455448000000000000000000000000000000000000000000000000000000000081526020019081526020016000206000828254610bb2919061118f565b92505081905550565b600033905090565b60008060009054906101000a900473ffffffffffffffffffffffffffffffffffffffff169050816000806101000a81548173ffffffffffffffffffffffffffffffffffffffff021916908373ffffffffffffffffffffffffffffffffffffffff1602179055508173ffffffffffffffffffffffffffffffffffffffff168173ffffffffffffffffffffffffffffffffffffffff167f8be0079c531659141344cd1fd0a4f28419497f9722a3daafe3b4186f6b6457e060405160405180910390a35050565b600081359050610c968161129a565b92915050565b600081519050610cab816112b1565b92915050565b600081359050610cc0816112c8565b92915050565b600081359050610cd5816112df565b92915050565b600081519050610cea816112df565b92915050565b600060208284031215610d0257600080fd5b6000610d1084828501610c87565b91505092915050565b60008060408385031215610d2c57600080fd5b6000610d3a85828601610c87565b9250506020610d4b85828601610cb1565b9150509250929050565b600060208284031215610d6757600080fd5b6000610d7584828501610c9c565b91505092915050565b600060208284031215610d9057600080fd5b6000610d9e84828501610cb1565b91505092915050565b60008060408385031215610dba57600080fd5b6000610dc885828601610cb1565b9250506020610dd985828601610c87565b9150509250929050565b600060208284031215610df557600080fd5b6000610e0384828501610cc6565b91505092915050565b600060208284031215610e1e57600080fd5b6000610e2c84828501610cdb565b91505092915050565b60008060408385031215610e4857600080fd5b6000610e5685828601610cc6565b9250506020610e6785828601610cb1565b9150509250929050565b610e7a81611219565b82525050565b610e8981611237565b82525050565b6000610e9c601c8361117e565b91507f57616c6c65743a20696e73756666696369656e742062616c616e6365000000006000830152602082019050919050565b6000610edc60268361117e565b91507f4f776e61626c653a206e6577206f776e657220697320746865207a65726f206160008301527f64647265737300000000000000000000000000000000000000000000000000006020830152604082019050919050565b6000610f42601b8361117e565b91507f57616c6c65743a20546f6b656e20616c726561647920657869737400000000006000830152602082019050919050565b6000610f82601b8361117e565b91507f57616c6c65743a20746f6b656e20646f65736e277420657869737400000000006000830152602082019050919050565b6000610fc260208361117e565b91507f4f776e61626c653a2063616c6c6572206973206e6f7420746865206f776e65726000830152602082019050919050565b610ffe81611261565b82525050565b60006020820190506110196000830184610e71565b92915050565b60006060820190506110346000830186610e71565b6110416020830185610e71565b61104e6040830184610ff5565b949350505050565b600060408201905061106b6000830185610e71565b6110786020830184610ff5565b9392505050565b60006020820190506110946000830184610e80565b92915050565b60006040820190506110af6000830185610e80565b6110bc6020830184610e71565b9392505050565b600060208201905081810360008301526110dc81610e8f565b9050919050565b600060208201905081810360008301526110fc81610ecf565b9050919050565b6000602082019050818103600083015261111c81610f35565b9050919050565b6000602082019050818103600083015261113c81610f75565b9050919050565b6000602082019050818103600083015261115c81610fb5565b9050919050565b60006020820190506111786000830184610ff5565b92915050565b600082825260208201905092915050565b600061119a82611261565b91506111a583611261565b9250827fffffffffffffffffffffffffffffffffffffffffffffffffffffffffffffffff038211156111da576111d961126b565b5b828201905092915050565b60006111f082611261565b91506111fb83611261565b92508282101561120e5761120d61126b565b5b828203905092915050565b600061122482611241565b9050919050565b60008115159050919050565b6000819050919050565b600073ffffffffffffffffffffffffffffffffffffffff82169050919050565b6000819050919050565b7f4e487b7100000000000000000000000000000000000000000000000000000000600052601160045260246000fd5b6112a381611219565b81146112ae57600080fd5b50565b6112ba8161122b565b81146112c557600080fd5b50565b6112d181611237565b81146112dc57600080fd5b50565b6112e881611261565b81146112f357600080fd5b5056fea2646970667358221220256b3e629bd68277aa68cee3f5c4af6f40d312540bb6d8704ac3a850e3cb3e7364736f6c63430008000033",
  "immutableReferences": {},
  "source": "// SPDX-License-Identifier: MIT\r\npragma solidity >=0.4.22 <0.9.0;\r\nimport '../node_modules/@openzeppelin/contracts/access/Ownable.sol';\r\nimport '../node_modules/@openzeppelin/contracts/token/ERC20/IERC20.sol';\r\n\r\ncontract Wallet is Ownable{\r\n\r\n  struct Token{\r\n      bytes32 ticker;\r\n      address tokenAddress;\r\n  }\r\n   bytes32[] public tickerList;\r\n   mapping(bytes32 => Token) public tokenMapping;\r\n   mapping(address => mapping(bytes32 => uint)) public balances;\r\n   \r\n   modifier tokenExist(bytes32 _ticker){\r\n      require(tokenMapping[_ticker].tokenAddress != address(0),\"Wallet: token doesn't exist\");\r\n      _;\r\n   }\r\n\r\n   function addToken(bytes32 _ticker,address _tickerAddress) external onlyOwner{\r\n      require(tokenMapping[_ticker].tokenAddress == address(0),\"Wallet: Token already exist\");\r\n      tokenMapping[_ticker] = Token(_ticker,_tickerAddress);\r\n      tickerList.push(_ticker);\r\n   } \r\n   \r\n   function deposit(uint _amount,bytes32 _ticker) external tokenExist(_ticker){\r\n       IERC20 instance = IERC20(tokenMapping[_ticker].tokenAddress);\r\n       require(instance.balanceOf(msg.sender) >= _amount);\r\n       balances[msg.sender][_ticker] += _amount;\r\n       instance.transferFrom(msg.sender, address(this), _amount);\r\n   \r\n   }\r\n\r\n   function depositETH() public payable{\r\n      balances[msg.sender][\"ETH\"] += msg.value;\r\n    }\r\n   \r\n   function withdraw(uint _amount,bytes32 _ticker)external tokenExist(_ticker){\r\n        require(balances[msg.sender][_ticker] >= _amount,\"Wallet: insufficient balance\");\r\n        balances[msg.sender][_ticker] -= _amount;\r\n        IERC20(tokenMapping[_ticker].tokenAddress).transfer(msg.sender, _amount);\r\n   }\r\n   \r\n}",
  "sourcePath": "D:\\BlockChain\\Ethereum-201\\DEX\\contracts\\wallet.sol",
  "compiler": {
    "name": "solc",
    "version": "0.8.0+commit.c7dfd78e.Emscripten.clang"
  },
  "schemaVersion": "3.4.1",
  "updatedAt": "2021-07-07T17:04:07.647Z",
  "devdoc": {
    "kind": "dev",
    "methods": {
      "owner()": {
        "details": "Returns the address of the current owner."
      },
      "renounceOwnership()": {
        "details": "Leaves the contract without owner. It will not be possible to call `onlyOwner` functions anymore. Can only be called by the current owner. NOTE: Renouncing ownership will leave the contract without an owner, thereby removing any functionality that is only available to the owner."
      },
      "transferOwnership(address)": {
        "details": "Transfers ownership of the contract to a new account (`newOwner`). Can only be called by the current owner."
      }
    },
    "version": 1
  },
  "userdoc": {
    "kind": "user",
    "methods": {},
    "version": 1
  }
}