{
  "contractName": "Wallet",
  "abi": [
    {
      "anonymous": false,
      "inputs": [
        {
          "indexed": true,
          "internalType": "address",
          "name": "previousOwner",
          "type": "address"
        },
        {
          "indexed": true,
          "internalType": "address",
          "name": "newOwner",
          "type": "address"
        }
      ],
      "name": "OwnershipTransferred",
      "type": "event"
    },
    {
      "inputs": [
        {
          "internalType": "address",
          "name": "",
          "type": "address"
        },
        {
          "internalType": "bytes32",
          "name": "",
          "type": "bytes32"
        }
      ],
      "name": "balances",
      "outputs": [
        {
          "internalType": "uint256",
          "name": "",
          "type": "uint256"
        }
      ],
      "stateMutability": "view",
      "type": "function"
    },
    {
      "inputs": [],
      "name": "owner",
      "outputs": [
        {
          "internalType": "address",
          "name": "",
          "type": "address"
        }
      ],
      "stateMutability": "view",
      "type": "function"
    },
    {
      "inputs": [],
      "name": "renounceOwnership",
      "outputs": [],
      "stateMutability": "nonpayable",
      "type": "function"
    },
    {
      "inputs": [
        {
          "internalType": "uint256",
          "name": "",
          "type": "uint256"
        }
      ],
      "name": "tickerList",
      "outputs": [
        {
          "internalType": "bytes32",
          "name": "",
          "type": "bytes32"
        }
      ],
      "stateMutability": "view",
      "type": "function"
    },
    {
      "inputs": [
        {
          "internalType": "bytes32",
          "name": "",
          "type": "bytes32"
        }
      ],
      "name": "tokenMapping",
      "outputs": [
        {
          "internalType": "bytes32",
          "name": "ticker",
          "type": "bytes32"
        },
        {
          "internalType": "address",
          "name": "tokenAddress",
          "type": "address"
        }
      ],
      "stateMutability": "view",
      "type": "function"
    },
    {
      "inputs": [
        {
          "internalType": "address",
          "name": "newOwner",
          "type": "address"
        }
      ],
      "name": "transferOwnership",
      "outputs": [],
      "stateMutability": "nonpayable",
      "type": "function"
    },
    {
      "inputs": [
        {
          "internalType": "bytes32",
          "name": "_ticker",
          "type": "bytes32"
        },
        {
          "internalType": "address",
          "name": "_tickerAddress",
          "type": "address"
        }
      ],
      "name": "addToken",
      "outputs": [],
      "stateMutability": "nonpayable",
      "type": "function"
    },
    {
      "inputs": [
        {
          "internalType": "uint256",
          "name": "_amount",
          "type": "uint256"
        },
        {
          "internalType": "bytes32",
          "name": "_ticker",
          "type": "bytes32"
        }
      ],
      "name": "deposit",
      "outputs": [],
      "stateMutability": "nonpayable",
      "type": "function"
    },
    {
      "inputs": [],
      "name": "depositETH",
      "outputs": [],
      "stateMutability": "payable",
      "type": "function"
    },
    {
      "inputs": [
        {
          "internalType": "uint256",
          "name": "_amount",
          "type": "uint256"
        },
        {
          "internalType": "bytes32",
          "name": "_ticker",
          "type": "bytes32"
        }
      ],
      "name": "withdraw",
      "outputs": [],
      "stateMutability": "nonpayable",
      "type": "function"
    }
  ],
  "bytecode": "0x608060405234801561001057600080fd5b5061002d61002261003260201b60201c565b61003a60201b60201c565b6100fe565b600033905090565b60008060009054906101000a900473ffffffffffffffffffffffffffffffffffffffff169050816000806101000a81548173ffffffffffffffffffffffffffffffffffffffff021916908373ffffffffffffffffffffffffffffffffffffffff1602179055508173ffffffffffffffffffffffffffffffffffffffff168173ffffffffffffffffffffffffffffffffffffffff167f8be0079c531659141344cd1fd0a4f28419497f9722a3daafe3b4186f6b6457e060405160405180910390a35050565b6113e88061010d6000396000f3fe6080604052600436106100915760003560e01c8063a8d2021a11610059578063a8d2021a1461017c578063c9630cb0146101a5578063cb3764a8146101ce578063f2fde38b1461020b578063f6326fb31461023457610091565b80631f14df6914610096578063667cb4ba146100d3578063715018a6146101115780638da5cb5b146101285780639776aacf14610153575b600080fd5b3480156100a257600080fd5b506100bd60048036038101906100b89190610d4f565b61023e565b6040516100ca919061121f565b60405180910390f35b3480156100df57600080fd5b506100fa60048036038101906100f59190610db4565b610263565b604051610108929190611136565b60405180910390f35b34801561011d57600080fd5b506101266102a7565b005b34801561013457600080fd5b5061013d61032f565b60405161014a91906110a0565b60405180910390f35b34801561015f57600080fd5b5061017a60048036038101906101759190610ddd565b610358565b005b34801561018857600080fd5b506101a3600480360381019061019e9190610e6b565b610538565b005b3480156101b157600080fd5b506101cc60048036038101906101c79190610e6b565b6107a2565b005b3480156101da57600080fd5b506101f560048036038101906101f09190610e19565b610a4c565b604051610202919061111b565b60405180910390f35b34801561021757600080fd5b50610232600480360381019061022d9190610d26565b610a70565b005b61023c610b68565b005b6003602052816000526040600020602052806000526040600020600091509150505481565b60026020528060005260406000206000915090508060000154908060010160009054906101000a900473ffffffffffffffffffffffffffffffffffffffff16905082565b6102af610bf1565b73ffffffffffffffffffffffffffffffffffffffff166102cd61032f565b73ffffffffffffffffffffffffffffffffffffffff1614610323576040517f08c379a000000000000000000000000000000000000000000000000000000000815260040161031a906111ff565b60405180910390fd5b61032d6000610bf9565b565b60008060009054906101000a900473ffffffffffffffffffffffffffffffffffffffff16905090565b610360610bf1565b73ffffffffffffffffffffffffffffffffffffffff1661037e61032f565b73ffffffffffffffffffffffffffffffffffffffff16146103d4576040517f08c379a00000000000000000000000000000000000000000000000000000000081526004016103cb906111ff565b60405180910390fd5b600073ffffffffffffffffffffffffffffffffffffffff166002600084815260200190815260200160002060010160009054906101000a900473ffffffffffffffffffffffffffffffffffffffff1673ffffffffffffffffffffffffffffffffffffffff1614610479576040517f08c379a0000000000000000000000000000000000000000000000000000000008152600401610470906111bf565b60405180910390fd5b60405180604001604052808381526020018273ffffffffffffffffffffffffffffffffffffffff16815250600260008481526020019081526020016000206000820151816000015560208201518160010160006101000a81548173ffffffffffffffffffffffffffffffffffffffff021916908373ffffffffffffffffffffffffffffffffffffffff16021790555090505060018290806001815401808255809150506001900390600052602060002001600090919091909150555050565b80600073ffffffffffffffffffffffffffffffffffffffff166002600083815260200190815260200160002060010160009054906101000a900473ffffffffffffffffffffffffffffffffffffffff1673ffffffffffffffffffffffffffffffffffffffff1614156105df576040517f08c379a00000000000000000000000000000000000000000000000000000000081526004016105d6906111df565b60405180910390fd5b82600360003373ffffffffffffffffffffffffffffffffffffffff1673ffffffffffffffffffffffffffffffffffffffff1681526020019081526020016000206000848152602001908152602001600020541015610672576040517f08c379a00000000000000000000000000000000000000000000000000000000081526004016106699061115f565b60405180910390fd5b82600360003373ffffffffffffffffffffffffffffffffffffffff1673ffffffffffffffffffffffffffffffffffffffff168152602001908152602001600020600084815260200190815260200160002060008282546106d291906112a1565b925050819055506002600083815260200190815260200160002060010160009054906101000a900473ffffffffffffffffffffffffffffffffffffffff1673ffffffffffffffffffffffffffffffffffffffff1663a9059cbb33856040518363ffffffff1660e01b815260040161074a9291906110f2565b602060405180830381600087803b15801561076457600080fd5b505af1158015610778573d6000803e3d6000fd5b505050506040513d601f19601f8201168201806040525081019061079c9190610d8b565b50505050565b80600073ffffffffffffffffffffffffffffffffffffffff166002600083815260200190815260200160002060010160009054906101000a900473ffffffffffffffffffffffffffffffffffffffff1673ffffffffffffffffffffffffffffffffffffffff161415610849576040517f08c379a0000000000000000000000000000000000000000000000000000000008152600401610840906111df565b60405180910390fd5b60006002600084815260200190815260200160002060010160009054906101000a900473ffffffffffffffffffffffffffffffffffffffff169050838173ffffffffffffffffffffffffffffffffffffffff166370a08231336040518263ffffffff1660e01b81526004016108be91906110a0565b60206040518083038186803b1580156108d657600080fd5b505afa1580156108ea573d6000803e3d6000fd5b505050506040513d601f19601f8201168201806040525081019061090e9190610e42565b101561094f576040517f08c379a00000000000000000000000000000000000000000000000000000000081526004016109469061119f565b60405180910390fd5b83600360003373ffffffffffffffffffffffffffffffffffffffff1673ffffffffffffffffffffffffffffffffffffffff168152602001908152602001600020600085815260200190815260200160002060008282546109af919061124b565b925050819055508073ffffffffffffffffffffffffffffffffffffffff166323b872dd3330876040518463ffffffff1660e01b81526004016109f3939291906110bb565b602060405180830381600087803b158015610a0d57600080fd5b505af1158015610a21573d6000803e3d6000fd5b505050506040513d601f19601f82011682018060405250810190610a459190610d8b565b5050505050565b60018181548110610a5c57600080fd5b906000526020600020016000915090505481565b610a78610bf1565b73ffffffffffffffffffffffffffffffffffffffff16610a9661032f565b73ffffffffffffffffffffffffffffffffffffffff1614610aec576040517f08c379a0000000000000000000000000000000000000000000000000000000008152600401610ae3906111ff565b60405180910390fd5b600073ffffffffffffffffffffffffffffffffffffffff168173ffffffffffffffffffffffffffffffffffffffff161415610b5c576040517f08c379a0000000000000000000000000000000000000000000000000000000008152600401610b539061117f565b60405180910390fd5b610b6581610bf9565b50565b34600360003373ffffffffffffffffffffffffffffffffffffffff1673ffffffffffffffffffffffffffffffffffffffff16815260200190815260200160002060007f455448000000000000000000000000000000000000000000000000000000000081526020019081526020016000206000828254610be8919061124b565b92505081905550565b600033905090565b60008060009054906101000a900473ffffffffffffffffffffffffffffffffffffffff169050816000806101000a81548173ffffffffffffffffffffffffffffffffffffffff021916908373ffffffffffffffffffffffffffffffffffffffff1602179055508173ffffffffffffffffffffffffffffffffffffffff168173ffffffffffffffffffffffffffffffffffffffff167f8be0079c531659141344cd1fd0a4f28419497f9722a3daafe3b4186f6b6457e060405160405180910390a35050565b600081359050610ccc81611356565b92915050565b600081519050610ce18161136d565b92915050565b600081359050610cf681611384565b92915050565b600081359050610d0b8161139b565b92915050565b600081519050610d208161139b565b92915050565b600060208284031215610d3857600080fd5b6000610d4684828501610cbd565b91505092915050565b60008060408385031215610d6257600080fd5b6000610d7085828601610cbd565b9250506020610d8185828601610ce7565b9150509250929050565b600060208284031215610d9d57600080fd5b6000610dab84828501610cd2565b91505092915050565b600060208284031215610dc657600080fd5b6000610dd484828501610ce7565b91505092915050565b60008060408385031215610df057600080fd5b6000610dfe85828601610ce7565b9250506020610e0f85828601610cbd565b9150509250929050565b600060208284031215610e2b57600080fd5b6000610e3984828501610cfc565b91505092915050565b600060208284031215610e5457600080fd5b6000610e6284828501610d11565b91505092915050565b60008060408385031215610e7e57600080fd5b6000610e8c85828601610cfc565b9250506020610e9d85828601610ce7565b9150509250929050565b610eb0816112d5565b82525050565b610ebf816112f3565b82525050565b6000610ed2601c8361123a565b91507f57616c6c65743a20696e73756666696369656e742062616c616e6365000000006000830152602082019050919050565b6000610f1260268361123a565b91507f4f776e61626c653a206e6577206f776e657220697320746865207a65726f206160008301527f64647265737300000000000000000000000000000000000000000000000000006020830152604082019050919050565b6000610f7860268361123a565b91507f4465706f7369742062616c616e636520696e20796f757220746f6b656e20636f60008301527f6e747261637400000000000000000000000000000000000000000000000000006020830152604082019050919050565b6000610fde601b8361123a565b91507f57616c6c65743a20546f6b656e20616c726561647920657869737400000000006000830152602082019050919050565b600061101e601b8361123a565b91507f57616c6c65743a20746f6b656e20646f65736e277420657869737400000000006000830152602082019050919050565b600061105e60208361123a565b91507f4f776e61626c653a2063616c6c6572206973206e6f7420746865206f776e65726000830152602082019050919050565b61109a8161131d565b82525050565b60006020820190506110b56000830184610ea7565b92915050565b60006060820190506110d06000830186610ea7565b6110dd6020830185610ea7565b6110ea6040830184611091565b949350505050565b60006040820190506111076000830185610ea7565b6111146020830184611091565b9392505050565b60006020820190506111306000830184610eb6565b92915050565b600060408201905061114b6000830185610eb6565b6111586020830184610ea7565b9392505050565b6000602082019050818103600083015261117881610ec5565b9050919050565b6000602082019050818103600083015261119881610f05565b9050919050565b600060208201905081810360008301526111b881610f6b565b9050919050565b600060208201905081810360008301526111d881610fd1565b9050919050565b600060208201905081810360008301526111f881611011565b9050919050565b6000602082019050818103600083015261121881611051565b9050919050565b60006020820190506112346000830184611091565b92915050565b600082825260208201905092915050565b60006112568261131d565b91506112618361131d565b9250827fffffffffffffffffffffffffffffffffffffffffffffffffffffffffffffffff0382111561129657611295611327565b5b828201905092915050565b60006112ac8261131d565b91506112b78361131d565b9250828210156112ca576112c9611327565b5b828203905092915050565b60006112e0826112fd565b9050919050565b60008115159050919050565b6000819050919050565b600073ffffffffffffffffffffffffffffffffffffffff82169050919050565b6000819050919050565b7f4e487b7100000000000000000000000000000000000000000000000000000000600052601160045260246000fd5b61135f816112d5565b811461136a57600080fd5b50565b611376816112e7565b811461138157600080fd5b50565b61138d816112f3565b811461139857600080fd5b50565b6113a48161131d565b81146113af57600080fd5b5056fea2646970667358221220d5cd1a8498543fc7d97202450979b4d25101fb35123e414889cf6223302e8f8464736f6c63430008000033",
  "immutableReferences": {},
  "source": "// SPDX-License-Identifier: MIT\r\npragma solidity >=0.4.22 <0.9.0;\r\nimport '../node_modules/@openzeppelin/contracts/access/Ownable.sol';\r\nimport '../node_modules/@openzeppelin/contracts/token/ERC20/IERC20.sol';\r\n\r\ncontract Wallet is Ownable{\r\n\r\n  struct Token{\r\n      bytes32 ticker;\r\n      address tokenAddress;\r\n  }\r\n   bytes32[] public tickerList;\r\n   mapping(bytes32 => Token) public tokenMapping;\r\n   mapping(address => mapping(bytes32 => uint)) public balances;\r\n   \r\n   modifier tokenExist(bytes32 _ticker){\r\n      require(tokenMapping[_ticker].tokenAddress != address(0),\"Wallet: token doesn't exist\");\r\n      _;\r\n   }\r\n\r\n   function addToken(bytes32 _ticker,address _tickerAddress) external onlyOwner{\r\n      require(tokenMapping[_ticker].tokenAddress == address(0),\"Wallet: Token already exist\");\r\n      tokenMapping[_ticker] = Token(_ticker,_tickerAddress);\r\n      tickerList.push(_ticker);\r\n   } \r\n   \r\n   function deposit(uint _amount,bytes32 _ticker) external tokenExist(_ticker){\r\n       IERC20 instance = IERC20(tokenMapping[_ticker].tokenAddress);\r\n       require(instance.balanceOf(msg.sender) >= _amount,\"Deposit balance in your token contract\");\r\n       balances[msg.sender][_ticker] += _amount;\r\n       instance.transferFrom(msg.sender, address(this), _amount);\r\n   \r\n   }\r\n\r\n   function depositETH() public payable{\r\n      balances[msg.sender][\"ETH\"] += msg.value;\r\n    }\r\n   \r\n   function withdraw(uint _amount,bytes32 _ticker)external tokenExist(_ticker){\r\n        require(balances[msg.sender][_ticker] >= _amount,\"Wallet: insufficient balance\");\r\n        balances[msg.sender][_ticker] -= _amount;\r\n        IERC20(tokenMapping[_ticker].tokenAddress).transfer(msg.sender, _amount);\r\n   }\r\n   \r\n}",
  "sourcePath": "D:/BlockChain/Ethereum-201/DEX/contracts/wallet.sol",
  "compiler": {
    "name": "solc",
    "version": "0.8.0+commit.c7dfd78e.Emscripten.clang"
  },
  "schemaVersion": "3.4.1",
  "updatedAt": "2021-07-09T20:51:49.580Z",
  "devdoc": {
    "kind": "dev",
    "methods": {
      "owner()": {
        "details": "Returns the address of the current owner."
      },
      "renounceOwnership()": {
        "details": "Leaves the contract without owner. It will not be possible to call `onlyOwner` functions anymore. Can only be called by the current owner. NOTE: Renouncing ownership will leave the contract without an owner, thereby removing any functionality that is only available to the owner."
      },
      "transferOwnership(address)": {
        "details": "Transfers ownership of the contract to a new account (`newOwner`). Can only be called by the current owner."
      }
    },
    "version": 1
  },
  "userdoc": {
    "kind": "user",
    "methods": {},
    "version": 1
  }
}