{
  "contractName": "Wallet",
  "abi": [
    {
      "anonymous": false,
      "inputs": [
        {
          "indexed": true,
          "internalType": "address",
          "name": "previousOwner",
          "type": "address"
        },
        {
          "indexed": true,
          "internalType": "address",
          "name": "newOwner",
          "type": "address"
        }
      ],
      "name": "OwnershipTransferred",
      "type": "event"
    },
    {
      "inputs": [
        {
          "internalType": "address",
          "name": "",
          "type": "address"
        },
        {
          "internalType": "bytes32",
          "name": "",
          "type": "bytes32"
        }
      ],
      "name": "balances",
      "outputs": [
        {
          "internalType": "uint256",
          "name": "",
          "type": "uint256"
        }
      ],
      "stateMutability": "view",
      "type": "function",
      "constant": true
    },
    {
      "inputs": [],
      "name": "owner",
      "outputs": [
        {
          "internalType": "address",
          "name": "",
          "type": "address"
        }
      ],
      "stateMutability": "view",
      "type": "function",
      "constant": true
    },
    {
      "inputs": [],
      "name": "renounceOwnership",
      "outputs": [],
      "stateMutability": "nonpayable",
      "type": "function"
    },
    {
      "inputs": [
        {
          "internalType": "uint256",
          "name": "",
          "type": "uint256"
        }
      ],
      "name": "tickerList",
      "outputs": [
        {
          "internalType": "bytes32",
          "name": "",
          "type": "bytes32"
        }
      ],
      "stateMutability": "view",
      "type": "function",
      "constant": true
    },
    {
      "inputs": [
        {
          "internalType": "bytes32",
          "name": "",
          "type": "bytes32"
        }
      ],
      "name": "tokenMapping",
      "outputs": [
        {
          "internalType": "bytes32",
          "name": "ticker",
          "type": "bytes32"
        },
        {
          "internalType": "address",
          "name": "tokenAddress",
          "type": "address"
        }
      ],
      "stateMutability": "view",
      "type": "function",
      "constant": true
    },
    {
      "inputs": [
        {
          "internalType": "address",
          "name": "newOwner",
          "type": "address"
        }
      ],
      "name": "transferOwnership",
      "outputs": [],
      "stateMutability": "nonpayable",
      "type": "function"
    },
    {
      "inputs": [
        {
          "internalType": "bytes32",
          "name": "_ticker",
          "type": "bytes32"
        },
        {
          "internalType": "address",
          "name": "_tickerAddress",
          "type": "address"
        }
      ],
      "name": "addToken",
      "outputs": [],
      "stateMutability": "nonpayable",
      "type": "function"
    },
    {
      "inputs": [
        {
          "internalType": "uint256",
          "name": "_amount",
          "type": "uint256"
        },
        {
          "internalType": "bytes32",
          "name": "_ticker",
          "type": "bytes32"
        }
      ],
      "name": "deposit",
      "outputs": [],
      "stateMutability": "nonpayable",
      "type": "function"
    },
    {
      "inputs": [
        {
          "internalType": "uint256",
          "name": "_amount",
          "type": "uint256"
        },
        {
          "internalType": "bytes32",
          "name": "_ticker",
          "type": "bytes32"
        }
      ],
      "name": "withdraw",
      "outputs": [],
      "stateMutability": "nonpayable",
      "type": "function"
    }
  ],
  "bytecode": "0x608060405234801561001057600080fd5b5061002d61002261003260201b60201c565b61003a60201b60201c565b6100fe565b600033905090565b60008060009054906101000a900473ffffffffffffffffffffffffffffffffffffffff169050816000806101000a81548173ffffffffffffffffffffffffffffffffffffffff021916908373ffffffffffffffffffffffffffffffffffffffff1602179055508173ffffffffffffffffffffffffffffffffffffffff168173ffffffffffffffffffffffffffffffffffffffff167f8be0079c531659141344cd1fd0a4f28419497f9722a3daafe3b4186f6b6457e060405160405180910390a35050565b6112268061010d6000396000f3fe608060405234801561001057600080fd5b50600436106100935760003560e01c80639776aacf116100665780639776aacf14610121578063a8d2021a1461013d578063c9630cb014610159578063cb3764a814610175578063f2fde38b146101a557610093565b80631f14df6914610098578063667cb4ba146100c8578063715018a6146100f95780638da5cb5b14610103575b600080fd5b6100b260048036038101906100ad9190610c13565b6101c1565b6040516100bf919061105d565b60405180910390f35b6100e260048036038101906100dd9190610c78565b6101e6565b6040516100f0929190610f94565b60405180910390f35b61010161022a565b005b61010b6102b2565b6040516101189190610efe565b60405180910390f35b61013b60048036038101906101369190610ca1565b6102db565b005b61015760048036038101906101529190610d2f565b6104bb565b005b610173600480360381019061016e9190610d2f565b610725565b005b61018f600480360381019061018a9190610cdd565b610999565b60405161019c9190610f79565b60405180910390f35b6101bf60048036038101906101ba9190610bea565b6109bd565b005b6003602052816000526040600020602052806000526040600020600091509150505481565b60026020528060005260406000206000915090508060000154908060010160009054906101000a900473ffffffffffffffffffffffffffffffffffffffff16905082565b610232610ab5565b73ffffffffffffffffffffffffffffffffffffffff166102506102b2565b73ffffffffffffffffffffffffffffffffffffffff16146102a6576040517f08c379a000000000000000000000000000000000000000000000000000000000815260040161029d9061103d565b60405180910390fd5b6102b06000610abd565b565b60008060009054906101000a900473ffffffffffffffffffffffffffffffffffffffff16905090565b6102e3610ab5565b73ffffffffffffffffffffffffffffffffffffffff166103016102b2565b73ffffffffffffffffffffffffffffffffffffffff1614610357576040517f08c379a000000000000000000000000000000000000000000000000000000000815260040161034e9061103d565b60405180910390fd5b600073ffffffffffffffffffffffffffffffffffffffff166002600084815260200190815260200160002060010160009054906101000a900473ffffffffffffffffffffffffffffffffffffffff1673ffffffffffffffffffffffffffffffffffffffff16146103fc576040517f08c379a00000000000000000000000000000000000000000000000000000000081526004016103f390610ffd565b60405180910390fd5b60405180604001604052808381526020018273ffffffffffffffffffffffffffffffffffffffff16815250600260008481526020019081526020016000206000820151816000015560208201518160010160006101000a81548173ffffffffffffffffffffffffffffffffffffffff021916908373ffffffffffffffffffffffffffffffffffffffff16021790555090505060018290806001815401808255809150506001900390600052602060002001600090919091909150555050565b80600073ffffffffffffffffffffffffffffffffffffffff166002600083815260200190815260200160002060010160009054906101000a900473ffffffffffffffffffffffffffffffffffffffff1673ffffffffffffffffffffffffffffffffffffffff161415610562576040517f08c379a00000000000000000000000000000000000000000000000000000000081526004016105599061101d565b60405180910390fd5b82600360003373ffffffffffffffffffffffffffffffffffffffff1673ffffffffffffffffffffffffffffffffffffffff16815260200190815260200160002060008481526020019081526020016000205410156105f5576040517f08c379a00000000000000000000000000000000000000000000000000000000081526004016105ec90610fbd565b60405180910390fd5b82600360003373ffffffffffffffffffffffffffffffffffffffff1673ffffffffffffffffffffffffffffffffffffffff1681526020019081526020016000206000848152602001908152602001600020600082825461065591906110df565b925050819055506002600083815260200190815260200160002060010160009054906101000a900473ffffffffffffffffffffffffffffffffffffffff1673ffffffffffffffffffffffffffffffffffffffff1663a9059cbb33856040518363ffffffff1660e01b81526004016106cd929190610f50565b602060405180830381600087803b1580156106e757600080fd5b505af11580156106fb573d6000803e3d6000fd5b505050506040513d601f19601f8201168201806040525081019061071f9190610c4f565b50505050565b80600073ffffffffffffffffffffffffffffffffffffffff166002600083815260200190815260200160002060010160009054906101000a900473ffffffffffffffffffffffffffffffffffffffff1673ffffffffffffffffffffffffffffffffffffffff1614156107cc576040517f08c379a00000000000000000000000000000000000000000000000000000000081526004016107c39061101d565b60405180910390fd5b60006002600084815260200190815260200160002060010160009054906101000a900473ffffffffffffffffffffffffffffffffffffffff169050838173ffffffffffffffffffffffffffffffffffffffff166370a08231336040518263ffffffff1660e01b81526004016108419190610efe565b60206040518083038186803b15801561085957600080fd5b505afa15801561086d573d6000803e3d6000fd5b505050506040513d601f19601f820116820180604052508101906108919190610d06565b101561089c57600080fd5b83600360003373ffffffffffffffffffffffffffffffffffffffff1673ffffffffffffffffffffffffffffffffffffffff168152602001908152602001600020600085815260200190815260200160002060008282546108fc9190611089565b925050819055508073ffffffffffffffffffffffffffffffffffffffff166323b872dd3330876040518463ffffffff1660e01b815260040161094093929190610f19565b602060405180830381600087803b15801561095a57600080fd5b505af115801561096e573d6000803e3d6000fd5b505050506040513d601f19601f820116820180604052508101906109929190610c4f565b5050505050565b600181815481106109a957600080fd5b906000526020600020016000915090505481565b6109c5610ab5565b73ffffffffffffffffffffffffffffffffffffffff166109e36102b2565b73ffffffffffffffffffffffffffffffffffffffff1614610a39576040517f08c379a0000000000000000000000000000000000000000000000000000000008152600401610a309061103d565b60405180910390fd5b600073ffffffffffffffffffffffffffffffffffffffff168173ffffffffffffffffffffffffffffffffffffffff161415610aa9576040517f08c379a0000000000000000000000000000000000000000000000000000000008152600401610aa090610fdd565b60405180910390fd5b610ab281610abd565b50565b600033905090565b60008060009054906101000a900473ffffffffffffffffffffffffffffffffffffffff169050816000806101000a81548173ffffffffffffffffffffffffffffffffffffffff021916908373ffffffffffffffffffffffffffffffffffffffff1602179055508173ffffffffffffffffffffffffffffffffffffffff168173ffffffffffffffffffffffffffffffffffffffff167f8be0079c531659141344cd1fd0a4f28419497f9722a3daafe3b4186f6b6457e060405160405180910390a35050565b600081359050610b9081611194565b92915050565b600081519050610ba5816111ab565b92915050565b600081359050610bba816111c2565b92915050565b600081359050610bcf816111d9565b92915050565b600081519050610be4816111d9565b92915050565b600060208284031215610bfc57600080fd5b6000610c0a84828501610b81565b91505092915050565b60008060408385031215610c2657600080fd5b6000610c3485828601610b81565b9250506020610c4585828601610bab565b9150509250929050565b600060208284031215610c6157600080fd5b6000610c6f84828501610b96565b91505092915050565b600060208284031215610c8a57600080fd5b6000610c9884828501610bab565b91505092915050565b60008060408385031215610cb457600080fd5b6000610cc285828601610bab565b9250506020610cd385828601610b81565b9150509250929050565b600060208284031215610cef57600080fd5b6000610cfd84828501610bc0565b91505092915050565b600060208284031215610d1857600080fd5b6000610d2684828501610bd5565b91505092915050565b60008060408385031215610d4257600080fd5b6000610d5085828601610bc0565b9250506020610d6185828601610bab565b9150509250929050565b610d7481611113565b82525050565b610d8381611131565b82525050565b6000610d96601c83611078565b91507f57616c6c65743a20696e73756666696369656e742062616c616e6365000000006000830152602082019050919050565b6000610dd6602683611078565b91507f4f776e61626c653a206e6577206f776e657220697320746865207a65726f206160008301527f64647265737300000000000000000000000000000000000000000000000000006020830152604082019050919050565b6000610e3c601b83611078565b91507f57616c6c65743a20546f6b656e20616c726561647920657869737400000000006000830152602082019050919050565b6000610e7c601b83611078565b91507f57616c6c65743a20746f6b656e20646f65736e277420657869737400000000006000830152602082019050919050565b6000610ebc602083611078565b91507f4f776e61626c653a2063616c6c6572206973206e6f7420746865206f776e65726000830152602082019050919050565b610ef88161115b565b82525050565b6000602082019050610f136000830184610d6b565b92915050565b6000606082019050610f2e6000830186610d6b565b610f3b6020830185610d6b565b610f486040830184610eef565b949350505050565b6000604082019050610f656000830185610d6b565b610f726020830184610eef565b9392505050565b6000602082019050610f8e6000830184610d7a565b92915050565b6000604082019050610fa96000830185610d7a565b610fb66020830184610d6b565b9392505050565b60006020820190508181036000830152610fd681610d89565b9050919050565b60006020820190508181036000830152610ff681610dc9565b9050919050565b6000602082019050818103600083015261101681610e2f565b9050919050565b6000602082019050818103600083015261103681610e6f565b9050919050565b6000602082019050818103600083015261105681610eaf565b9050919050565b60006020820190506110726000830184610eef565b92915050565b600082825260208201905092915050565b60006110948261115b565b915061109f8361115b565b9250827fffffffffffffffffffffffffffffffffffffffffffffffffffffffffffffffff038211156110d4576110d3611165565b5b828201905092915050565b60006110ea8261115b565b91506110f58361115b565b92508282101561110857611107611165565b5b828203905092915050565b600061111e8261113b565b9050919050565b60008115159050919050565b6000819050919050565b600073ffffffffffffffffffffffffffffffffffffffff82169050919050565b6000819050919050565b7f4e487b7100000000000000000000000000000000000000000000000000000000600052601160045260246000fd5b61119d81611113565b81146111a857600080fd5b50565b6111b481611125565b81146111bf57600080fd5b50565b6111cb81611131565b81146111d657600080fd5b50565b6111e28161115b565b81146111ed57600080fd5b5056fea26469706673582212207cd808117c5a145c9c7776f5631b4ee40ceec43247f1c564dc022e0714a5ff7264736f6c63430008000033",
  "immutableReferences": {},
  "source": "// SPDX-License-Identifier: MIT\r\npragma solidity >=0.4.22 <0.9.0;\r\nimport '../node_modules/@openzeppelin/contracts/access/Ownable.sol';\r\nimport '../node_modules/@openzeppelin/contracts/token/ERC20/IERC20.sol';\r\n\r\ncontract Wallet is Ownable{\r\n\r\n  struct Token{\r\n      bytes32 ticker;\r\n      address tokenAddress;\r\n  }\r\n   bytes32[] public tickerList;\r\n   mapping(bytes32 => Token) public tokenMapping;\r\n   mapping(address => mapping(bytes32 => uint)) public balances;\r\n   \r\n   modifier tokenExist(bytes32 _ticker){\r\n      require(tokenMapping[_ticker].tokenAddress != address(0),\"Wallet: token doesn't exist\");\r\n      _;\r\n   }\r\n\r\n   function addToken(bytes32 _ticker,address _tickerAddress) external onlyOwner{\r\n      require(tokenMapping[_ticker].tokenAddress == address(0),\"Wallet: Token already exist\");\r\n      tokenMapping[_ticker] = Token(_ticker,_tickerAddress);\r\n      tickerList.push(_ticker);\r\n   } \r\n   \r\n   function deposit(uint _amount,bytes32 _ticker) external tokenExist(_ticker){\r\n       IERC20 instance = IERC20(tokenMapping[_ticker].tokenAddress);\r\n       require(instance.balanceOf(msg.sender) >= _amount);\r\n       balances[msg.sender][_ticker] += _amount;\r\n       instance.transferFrom(msg.sender, address(this), _amount);\r\n   \r\n   }\r\n   \r\n   function withdraw(uint _amount,bytes32 _ticker)external tokenExist(_ticker){\r\n        require(balances[msg.sender][_ticker] >= _amount,\"Wallet: insufficient balance\");\r\n        balances[msg.sender][_ticker] -= _amount;\r\n        IERC20(tokenMapping[_ticker].tokenAddress).transfer(msg.sender, _amount);\r\n   }\r\n   \r\n}",
  "sourcePath": "D:/BlockChain/Ethereum-201/DEX/contracts/wallet.sol",
  "compiler": {
    "name": "solc",
    "version": "0.8.0+commit.c7dfd78e.Emscripten.clang"
  },
  "schemaVersion": "3.4.1",
  "updatedAt": "2021-07-05T08:16:11.500Z",
  "networkType": "ethereum",
  "devdoc": {
    "kind": "dev",
    "methods": {
      "owner()": {
        "details": "Returns the address of the current owner."
      },
      "renounceOwnership()": {
        "details": "Leaves the contract without owner. It will not be possible to call `onlyOwner` functions anymore. Can only be called by the current owner. NOTE: Renouncing ownership will leave the contract without an owner, thereby removing any functionality that is only available to the owner."
      },
      "transferOwnership(address)": {
        "details": "Transfers ownership of the contract to a new account (`newOwner`). Can only be called by the current owner."
      }
    },
    "version": 1
  },
  "userdoc": {
    "kind": "user",
    "methods": {},
    "version": 1
  }
}